{
	"fifthExampleMappingStruct.sol": {
		"UserProfiles": {
			"abi": [
				{
					"inputs": [
						{
							"internalType": "string",
							"name": "_name",
							"type": "string"
						},
						{
							"internalType": "uint256",
							"name": "age",
							"type": "uint256"
						}
					],
					"name": "addUser",
					"outputs": [],
					"stateMutability": "nonpayable",
					"type": "function"
				},
				{
					"inputs": [
						{
							"internalType": "string",
							"name": "_name",
							"type": "string"
						}
					],
					"name": "getUser",
					"outputs": [
						{
							"components": [
								{
									"internalType": "string",
									"name": "name",
									"type": "string"
								},
								{
									"internalType": "uint256",
									"name": "age",
									"type": "uint256"
								}
							],
							"internalType": "struct UserProfiles.User",
							"name": "",
							"type": "tuple"
						}
					],
					"stateMutability": "view",
					"type": "function"
				},
				{
					"inputs": [
						{
							"internalType": "string",
							"name": "_name",
							"type": "string"
						},
						{
							"internalType": "uint256",
							"name": "newAge",
							"type": "uint256"
						}
					],
					"name": "updateAge",
					"outputs": [],
					"stateMutability": "nonpayable",
					"type": "function"
				},
				{
					"inputs": [
						{
							"internalType": "string",
							"name": "",
							"type": "string"
						}
					],
					"name": "users",
					"outputs": [
						{
							"internalType": "string",
							"name": "name",
							"type": "string"
						},
						{
							"internalType": "uint256",
							"name": "age",
							"type": "uint256"
						}
					],
					"stateMutability": "view",
					"type": "function"
				}
			],
			"devdoc": {
				"kind": "dev",
				"methods": {},
				"version": 1
			},
			"evm": {
				"assembly": "    /* \"fifthExampleMappingStruct.sol\":61:552  contract UserProfiles {... */\n  mstore(0x40, 0x80)\n  callvalue\n  dup1\n  iszero\n  tag_1\n  jumpi\n  0x00\n  dup1\n  revert\ntag_1:\n  pop\n  dataSize(sub_0)\n  dup1\n  dataOffset(sub_0)\n  0x00\n  codecopy\n  0x00\n  return\nstop\n\nsub_0: assembly {\n        /* \"fifthExampleMappingStruct.sol\":61:552  contract UserProfiles {... */\n      mstore(0x40, 0x80)\n      callvalue\n      dup1\n      iszero\n      tag_1\n      jumpi\n      0x00\n      dup1\n      revert\n    tag_1:\n      pop\n      jumpi(tag_2, lt(calldatasize, 0x04))\n      shr(0xe0, calldataload(0x00))\n      dup1\n      0x15af09c0\n      eq\n      tag_3\n      jumpi\n      dup1\n      0x1c5220c2\n      eq\n      tag_4\n      jumpi\n      dup1\n      0x31feb671\n      eq\n      tag_5\n      jumpi\n      dup1\n      0x689e1c03\n      eq\n      tag_6\n      jumpi\n    tag_2:\n      0x00\n      dup1\n      revert\n        /* \"fifthExampleMappingStruct.sol\":324:431  function updateAge(string memory _name, uint256 newAge) public {... */\n    tag_3:\n      tag_7\n      0x04\n      dup1\n      calldatasize\n      sub\n      dup2\n      add\n      swap1\n      tag_8\n      swap2\n      swap1\n      tag_9\n      jump\t// in\n    tag_8:\n      tag_10\n      jump\t// in\n    tag_7:\n      stop\n        /* \"fifthExampleMappingStruct.sol\":208:316  function addUser(string memory _name, uint256 age) public {... */\n    tag_4:\n      tag_11\n      0x04\n      dup1\n      calldatasize\n      sub\n      dup2\n      add\n      swap1\n      tag_12\n      swap2\n      swap1\n      tag_9\n      jump\t// in\n    tag_12:\n      tag_13\n      jump\t// in\n    tag_11:\n      stop\n        /* \"fifthExampleMappingStruct.sol\":439:549  function getUser(string memory _name) public view returns (User memory) {... */\n    tag_5:\n      tag_14\n      0x04\n      dup1\n      calldatasize\n      sub\n      dup2\n      add\n      swap1\n      tag_15\n      swap2\n      swap1\n      tag_16\n      jump\t// in\n    tag_15:\n      tag_17\n      jump\t// in\n    tag_14:\n      mload(0x40)\n      tag_18\n      swap2\n      swap1\n      tag_19\n      jump\t// in\n    tag_18:\n      mload(0x40)\n      dup1\n      swap2\n      sub\n      swap1\n      return\n        /* \"fifthExampleMappingStruct.sol\":162:199  mapping (string => User) public users */\n    tag_6:\n      tag_20\n      0x04\n      dup1\n      calldatasize\n      sub\n      dup2\n      add\n      swap1\n      tag_21\n      swap2\n      swap1\n      tag_16\n      jump\t// in\n    tag_21:\n      tag_22\n      jump\t// in\n    tag_20:\n      mload(0x40)\n      tag_23\n      swap3\n      swap2\n      swap1\n      tag_24\n      jump\t// in\n    tag_23:\n      mload(0x40)\n      dup1\n      swap2\n      sub\n      swap1\n      return\n        /* \"fifthExampleMappingStruct.sol\":324:431  function updateAge(string memory _name, uint256 newAge) public {... */\n    tag_10:\n        /* \"fifthExampleMappingStruct.sol\":417:423  newAge */\n      dup1\n        /* \"fifthExampleMappingStruct.sol\":398:403  users */\n      0x00\n        /* \"fifthExampleMappingStruct.sol\":404:409  _name */\n      dup4\n        /* \"fifthExampleMappingStruct.sol\":398:410  users[_name] */\n      mload(0x40)\n      tag_26\n      swap2\n      swap1\n      tag_27\n      jump\t// in\n    tag_26:\n      swap1\n      dup2\n      mstore\n      0x20\n      add\n      mload(0x40)\n      dup1\n      swap2\n      sub\n      swap1\n      keccak256\n        /* \"fifthExampleMappingStruct.sol\":398:414  users[_name].age */\n      0x01\n      add\n        /* \"fifthExampleMappingStruct.sol\":398:423  users[_name].age = newAge */\n      dup2\n      swap1\n      sstore\n      pop\n        /* \"fifthExampleMappingStruct.sol\":324:431  function updateAge(string memory _name, uint256 newAge) public {... */\n      pop\n      pop\n      jump\t// out\n        /* \"fifthExampleMappingStruct.sol\":208:316  function addUser(string memory _name, uint256 age) public {... */\n    tag_13:\n        /* \"fifthExampleMappingStruct.sol\":292:308  User(_name, age) */\n      mload(0x40)\n      dup1\n      0x40\n      add\n      0x40\n      mstore\n      dup1\n        /* \"fifthExampleMappingStruct.sol\":297:302  _name */\n      dup4\n        /* \"fifthExampleMappingStruct.sol\":292:308  User(_name, age) */\n      dup2\n      mstore\n      0x20\n      add\n        /* \"fifthExampleMappingStruct.sol\":304:307  age */\n      dup3\n        /* \"fifthExampleMappingStruct.sol\":292:308  User(_name, age) */\n      dup2\n      mstore\n      pop\n        /* \"fifthExampleMappingStruct.sol\":277:282  users */\n      0x00\n        /* \"fifthExampleMappingStruct.sol\":283:288  _name */\n      dup4\n        /* \"fifthExampleMappingStruct.sol\":277:289  users[_name] */\n      mload(0x40)\n      tag_29\n      swap2\n      swap1\n      tag_27\n      jump\t// in\n    tag_29:\n      swap1\n      dup2\n      mstore\n      0x20\n      add\n      mload(0x40)\n      dup1\n      swap2\n      sub\n      swap1\n      keccak256\n        /* \"fifthExampleMappingStruct.sol\":277:308  users[_name] = User(_name, age) */\n      0x00\n      dup3\n      add\n      mload\n      dup2\n      0x00\n      add\n      swap1\n      dup2\n      tag_30\n      swap2\n      swap1\n      tag_31\n      jump\t// in\n    tag_30:\n      pop\n      0x20\n      dup3\n      add\n      mload\n      dup2\n      0x01\n      add\n      sstore\n      swap1\n      pop\n      pop\n        /* \"fifthExampleMappingStruct.sol\":208:316  function addUser(string memory _name, uint256 age) public {... */\n      pop\n      pop\n      jump\t// out\n        /* \"fifthExampleMappingStruct.sol\":439:549  function getUser(string memory _name) public view returns (User memory) {... */\n    tag_17:\n        /* \"fifthExampleMappingStruct.sol\":498:509  User memory */\n      tag_32\n      tag_33\n      jump\t// in\n    tag_32:\n        /* \"fifthExampleMappingStruct.sol\":529:534  users */\n      0x00\n        /* \"fifthExampleMappingStruct.sol\":535:540  _name */\n      dup3\n        /* \"fifthExampleMappingStruct.sol\":529:541  users[_name] */\n      mload(0x40)\n      tag_35\n      swap2\n      swap1\n      tag_27\n      jump\t// in\n    tag_35:\n      swap1\n      dup2\n      mstore\n      0x20\n      add\n      mload(0x40)\n      dup1\n      swap2\n      sub\n      swap1\n      keccak256\n        /* \"fifthExampleMappingStruct.sol\":522:541  return users[_name] */\n      mload(0x40)\n      dup1\n      0x40\n      add\n      0x40\n      mstore\n      swap1\n      dup2\n      0x00\n      dup3\n      add\n      dup1\n      sload\n      tag_36\n      swap1\n      tag_37\n      jump\t// in\n    tag_36:\n      dup1\n      0x1f\n      add\n      0x20\n      dup1\n      swap2\n      div\n      mul\n      0x20\n      add\n      mload(0x40)\n      swap1\n      dup2\n      add\n      0x40\n      mstore\n      dup1\n      swap3\n      swap2\n      swap1\n      dup2\n      dup2\n      mstore\n      0x20\n      add\n      dup3\n      dup1\n      sload\n      tag_38\n      swap1\n      tag_37\n      jump\t// in\n    tag_38:\n      dup1\n      iszero\n      tag_39\n      jumpi\n      dup1\n      0x1f\n      lt\n      tag_40\n      jumpi\n      0x0100\n      dup1\n      dup4\n      sload\n      div\n      mul\n      dup4\n      mstore\n      swap2\n      0x20\n      add\n      swap2\n      jump(tag_39)\n    tag_40:\n      dup3\n      add\n      swap2\n      swap1\n      0x00\n      mstore\n      keccak256(0x00, 0x20)\n      swap1\n    tag_41:\n      dup2\n      sload\n      dup2\n      mstore\n      swap1\n      0x01\n      add\n      swap1\n      0x20\n      add\n      dup1\n      dup4\n      gt\n      tag_41\n      jumpi\n      dup3\n      swap1\n      sub\n      0x1f\n      and\n      dup3\n      add\n      swap2\n    tag_39:\n      pop\n      pop\n      pop\n      pop\n      pop\n      dup2\n      mstore\n      0x20\n      add\n      0x01\n      dup3\n      add\n      sload\n      dup2\n      mstore\n      pop\n      pop\n      swap1\n      pop\n        /* \"fifthExampleMappingStruct.sol\":439:549  function getUser(string memory _name) public view returns (User memory) {... */\n      swap2\n      swap1\n      pop\n      jump\t// out\n        /* \"fifthExampleMappingStruct.sol\":162:199  mapping (string => User) public users */\n    tag_22:\n      0x00\n      dup2\n      dup1\n      mload\n      0x20\n      dup2\n      add\n      dup3\n      add\n      dup1\n      mload\n      dup5\n      dup3\n      mstore\n      0x20\n      dup4\n      add\n      0x20\n      dup6\n      add\n      keccak256\n      dup2\n      dup4\n      mstore\n      dup1\n      swap6\n      pop\n      pop\n      pop\n      pop\n      pop\n      pop\n      0x00\n      swap2\n      pop\n      swap1\n      pop\n      dup1\n      0x00\n      add\n      dup1\n      sload\n      tag_42\n      swap1\n      tag_37\n      jump\t// in\n    tag_42:\n      dup1\n      0x1f\n      add\n      0x20\n      dup1\n      swap2\n      div\n      mul\n      0x20\n      add\n      mload(0x40)\n      swap1\n      dup2\n      add\n      0x40\n      mstore\n      dup1\n      swap3\n      swap2\n      swap1\n      dup2\n      dup2\n      mstore\n      0x20\n      add\n      dup3\n      dup1\n      sload\n      tag_43\n      swap1\n      tag_37\n      jump\t// in\n    tag_43:\n      dup1\n      iszero\n      tag_44\n      jumpi\n      dup1\n      0x1f\n      lt\n      tag_45\n      jumpi\n      0x0100\n      dup1\n      dup4\n      sload\n      div\n      mul\n      dup4\n      mstore\n      swap2\n      0x20\n      add\n      swap2\n      jump(tag_44)\n    tag_45:\n      dup3\n      add\n      swap2\n      swap1\n      0x00\n      mstore\n      keccak256(0x00, 0x20)\n      swap1\n    tag_46:\n      dup2\n      sload\n      dup2\n      mstore\n      swap1\n      0x01\n      add\n      swap1\n      0x20\n      add\n      dup1\n      dup4\n      gt\n      tag_46\n      jumpi\n      dup3\n      swap1\n      sub\n      0x1f\n      and\n      dup3\n      add\n      swap2\n    tag_44:\n      pop\n      pop\n      pop\n      pop\n      pop\n      swap1\n      dup1\n      0x01\n      add\n      sload\n      swap1\n      pop\n      dup3\n      jump\t// out\n    tag_33:\n      mload(0x40)\n      dup1\n      0x40\n      add\n      0x40\n      mstore\n      dup1\n      0x60\n      dup2\n      mstore\n      0x20\n      add\n      0x00\n      dup2\n      mstore\n      pop\n      swap1\n      jump\t// out\n        /* \"#utility.yul\":7:82   */\n    tag_47:\n        /* \"#utility.yul\":40:46   */\n      0x00\n        /* \"#utility.yul\":73:75   */\n      0x40\n        /* \"#utility.yul\":67:76   */\n      mload\n        /* \"#utility.yul\":57:76   */\n      swap1\n      pop\n        /* \"#utility.yul\":7:82   */\n      swap1\n      jump\t// out\n        /* \"#utility.yul\":88:205   */\n    tag_48:\n        /* \"#utility.yul\":197:198   */\n      0x00\n        /* \"#utility.yul\":194:195   */\n      dup1\n        /* \"#utility.yul\":187:199   */\n      revert\n        /* \"#utility.yul\":211:328   */\n    tag_49:\n        /* \"#utility.yul\":320:321   */\n      0x00\n        /* \"#utility.yul\":317:318   */\n      dup1\n        /* \"#utility.yul\":310:322   */\n      revert\n        /* \"#utility.yul\":334:451   */\n    tag_50:\n        /* \"#utility.yul\":443:444   */\n      0x00\n        /* \"#utility.yul\":440:441   */\n      dup1\n        /* \"#utility.yul\":433:445   */\n      revert\n        /* \"#utility.yul\":457:574   */\n    tag_51:\n        /* \"#utility.yul\":566:567   */\n      0x00\n        /* \"#utility.yul\":563:564   */\n      dup1\n        /* \"#utility.yul\":556:568   */\n      revert\n        /* \"#utility.yul\":580:682   */\n    tag_52:\n        /* \"#utility.yul\":621:627   */\n      0x00\n        /* \"#utility.yul\":672:674   */\n      0x1f\n        /* \"#utility.yul\":668:675   */\n      not\n        /* \"#utility.yul\":663:665   */\n      0x1f\n        /* \"#utility.yul\":656:661   */\n      dup4\n        /* \"#utility.yul\":652:666   */\n      add\n        /* \"#utility.yul\":648:676   */\n      and\n        /* \"#utility.yul\":638:676   */\n      swap1\n      pop\n        /* \"#utility.yul\":580:682   */\n      swap2\n      swap1\n      pop\n      jump\t// out\n        /* \"#utility.yul\":688:868   */\n    tag_53:\n        /* \"#utility.yul\":736:813   */\n      0x4e487b7100000000000000000000000000000000000000000000000000000000\n        /* \"#utility.yul\":733:734   */\n      0x00\n        /* \"#utility.yul\":726:814   */\n      mstore\n        /* \"#utility.yul\":833:837   */\n      0x41\n        /* \"#utility.yul\":830:831   */\n      0x04\n        /* \"#utility.yul\":823:838   */\n      mstore\n        /* \"#utility.yul\":857:861   */\n      0x24\n        /* \"#utility.yul\":854:855   */\n      0x00\n        /* \"#utility.yul\":847:862   */\n      revert\n        /* \"#utility.yul\":874:1155   */\n    tag_54:\n        /* \"#utility.yul\":957:984   */\n      tag_99\n        /* \"#utility.yul\":979:983   */\n      dup3\n        /* \"#utility.yul\":957:984   */\n      tag_52\n      jump\t// in\n    tag_99:\n        /* \"#utility.yul\":949:955   */\n      dup2\n        /* \"#utility.yul\":945:985   */\n      add\n        /* \"#utility.yul\":1087:1093   */\n      dup2\n        /* \"#utility.yul\":1075:1085   */\n      dup2\n        /* \"#utility.yul\":1072:1094   */\n      lt\n        /* \"#utility.yul\":1051:1069   */\n      0xffffffffffffffff\n        /* \"#utility.yul\":1039:1049   */\n      dup3\n        /* \"#utility.yul\":1036:1070   */\n      gt\n        /* \"#utility.yul\":1033:1095   */\n      or\n        /* \"#utility.yul\":1030:1118   */\n      iszero\n      tag_100\n      jumpi\n        /* \"#utility.yul\":1098:1116   */\n      tag_101\n      tag_53\n      jump\t// in\n    tag_101:\n        /* \"#utility.yul\":1030:1118   */\n    tag_100:\n        /* \"#utility.yul\":1138:1148   */\n      dup1\n        /* \"#utility.yul\":1134:1136   */\n      0x40\n        /* \"#utility.yul\":1127:1149   */\n      mstore\n        /* \"#utility.yul\":917:1155   */\n      pop\n        /* \"#utility.yul\":874:1155   */\n      pop\n      pop\n      jump\t// out\n        /* \"#utility.yul\":1161:1290   */\n    tag_55:\n        /* \"#utility.yul\":1195:1201   */\n      0x00\n        /* \"#utility.yul\":1222:1242   */\n      tag_103\n      tag_47\n      jump\t// in\n    tag_103:\n        /* \"#utility.yul\":1212:1242   */\n      swap1\n      pop\n        /* \"#utility.yul\":1251:1284   */\n      tag_104\n        /* \"#utility.yul\":1279:1283   */\n      dup3\n        /* \"#utility.yul\":1271:1277   */\n      dup3\n        /* \"#utility.yul\":1251:1284   */\n      tag_54\n      jump\t// in\n    tag_104:\n        /* \"#utility.yul\":1161:1290   */\n      swap2\n      swap1\n      pop\n      jump\t// out\n        /* \"#utility.yul\":1296:1604   */\n    tag_56:\n        /* \"#utility.yul\":1358:1362   */\n      0x00\n        /* \"#utility.yul\":1448:1466   */\n      0xffffffffffffffff\n        /* \"#utility.yul\":1440:1446   */\n      dup3\n        /* \"#utility.yul\":1437:1467   */\n      gt\n        /* \"#utility.yul\":1434:1490   */\n      iszero\n      tag_106\n      jumpi\n        /* \"#utility.yul\":1470:1488   */\n      tag_107\n      tag_53\n      jump\t// in\n    tag_107:\n        /* \"#utility.yul\":1434:1490   */\n    tag_106:\n        /* \"#utility.yul\":1508:1537   */\n      tag_108\n        /* \"#utility.yul\":1530:1536   */\n      dup3\n        /* \"#utility.yul\":1508:1537   */\n      tag_52\n      jump\t// in\n    tag_108:\n        /* \"#utility.yul\":1500:1537   */\n      swap1\n      pop\n        /* \"#utility.yul\":1592:1596   */\n      0x20\n        /* \"#utility.yul\":1586:1590   */\n      dup2\n        /* \"#utility.yul\":1582:1597   */\n      add\n        /* \"#utility.yul\":1574:1597   */\n      swap1\n      pop\n        /* \"#utility.yul\":1296:1604   */\n      swap2\n      swap1\n      pop\n      jump\t// out\n        /* \"#utility.yul\":1610:1756   */\n    tag_57:\n        /* \"#utility.yul\":1707:1713   */\n      dup3\n        /* \"#utility.yul\":1702:1705   */\n      dup2\n        /* \"#utility.yul\":1697:1700   */\n      dup4\n        /* \"#utility.yul\":1684:1714   */\n      calldatacopy\n        /* \"#utility.yul\":1748:1749   */\n      0x00\n        /* \"#utility.yul\":1739:1745   */\n      dup4\n        /* \"#utility.yul\":1734:1737   */\n      dup4\n        /* \"#utility.yul\":1730:1746   */\n      add\n        /* \"#utility.yul\":1723:1750   */\n      mstore\n        /* \"#utility.yul\":1610:1756   */\n      pop\n      pop\n      pop\n      jump\t// out\n        /* \"#utility.yul\":1762:2187   */\n    tag_58:\n        /* \"#utility.yul\":1840:1845   */\n      0x00\n        /* \"#utility.yul\":1865:1931   */\n      tag_111\n        /* \"#utility.yul\":1881:1930   */\n      tag_112\n        /* \"#utility.yul\":1923:1929   */\n      dup5\n        /* \"#utility.yul\":1881:1930   */\n      tag_56\n      jump\t// in\n    tag_112:\n        /* \"#utility.yul\":1865:1931   */\n      tag_55\n      jump\t// in\n    tag_111:\n        /* \"#utility.yul\":1856:1931   */\n      swap1\n      pop\n        /* \"#utility.yul\":1954:1960   */\n      dup3\n        /* \"#utility.yul\":1947:1952   */\n      dup2\n        /* \"#utility.yul\":1940:1961   */\n      mstore\n        /* \"#utility.yul\":1992:1996   */\n      0x20\n        /* \"#utility.yul\":1985:1990   */\n      dup2\n        /* \"#utility.yul\":1981:1997   */\n      add\n        /* \"#utility.yul\":2030:2033   */\n      dup5\n        /* \"#utility.yul\":2021:2027   */\n      dup5\n        /* \"#utility.yul\":2016:2019   */\n      dup5\n        /* \"#utility.yul\":2012:2028   */\n      add\n        /* \"#utility.yul\":2009:2034   */\n      gt\n        /* \"#utility.yul\":2006:2118   */\n      iszero\n      tag_113\n      jumpi\n        /* \"#utility.yul\":2037:2116   */\n      tag_114\n      tag_51\n      jump\t// in\n    tag_114:\n        /* \"#utility.yul\":2006:2118   */\n    tag_113:\n        /* \"#utility.yul\":2127:2181   */\n      tag_115\n        /* \"#utility.yul\":2174:2180   */\n      dup5\n        /* \"#utility.yul\":2169:2172   */\n      dup3\n        /* \"#utility.yul\":2164:2167   */\n      dup6\n        /* \"#utility.yul\":2127:2181   */\n      tag_57\n      jump\t// in\n    tag_115:\n        /* \"#utility.yul\":1846:2187   */\n      pop\n        /* \"#utility.yul\":1762:2187   */\n      swap4\n      swap3\n      pop\n      pop\n      pop\n      jump\t// out\n        /* \"#utility.yul\":2207:2547   */\n    tag_59:\n        /* \"#utility.yul\":2263:2268   */\n      0x00\n        /* \"#utility.yul\":2312:2315   */\n      dup3\n        /* \"#utility.yul\":2305:2309   */\n      0x1f\n        /* \"#utility.yul\":2297:2303   */\n      dup4\n        /* \"#utility.yul\":2293:2310   */\n      add\n        /* \"#utility.yul\":2289:2316   */\n      slt\n        /* \"#utility.yul\":2279:2401   */\n      tag_117\n      jumpi\n        /* \"#utility.yul\":2320:2399   */\n      tag_118\n      tag_50\n      jump\t// in\n    tag_118:\n        /* \"#utility.yul\":2279:2401   */\n    tag_117:\n        /* \"#utility.yul\":2437:2443   */\n      dup2\n        /* \"#utility.yul\":2424:2444   */\n      calldataload\n        /* \"#utility.yul\":2462:2541   */\n      tag_119\n        /* \"#utility.yul\":2537:2540   */\n      dup5\n        /* \"#utility.yul\":2529:2535   */\n      dup3\n        /* \"#utility.yul\":2522:2526   */\n      0x20\n        /* \"#utility.yul\":2514:2520   */\n      dup7\n        /* \"#utility.yul\":2510:2527   */\n      add\n        /* \"#utility.yul\":2462:2541   */\n      tag_58\n      jump\t// in\n    tag_119:\n        /* \"#utility.yul\":2453:2541   */\n      swap2\n      pop\n        /* \"#utility.yul\":2269:2547   */\n      pop\n        /* \"#utility.yul\":2207:2547   */\n      swap3\n      swap2\n      pop\n      pop\n      jump\t// out\n        /* \"#utility.yul\":2553:2630   */\n    tag_60:\n        /* \"#utility.yul\":2590:2597   */\n      0x00\n        /* \"#utility.yul\":2619:2624   */\n      dup2\n        /* \"#utility.yul\":2608:2624   */\n      swap1\n      pop\n        /* \"#utility.yul\":2553:2630   */\n      swap2\n      swap1\n      pop\n      jump\t// out\n        /* \"#utility.yul\":2636:2758   */\n    tag_61:\n        /* \"#utility.yul\":2709:2733   */\n      tag_122\n        /* \"#utility.yul\":2727:2732   */\n      dup2\n        /* \"#utility.yul\":2709:2733   */\n      tag_60\n      jump\t// in\n    tag_122:\n        /* \"#utility.yul\":2702:2707   */\n      dup2\n        /* \"#utility.yul\":2699:2734   */\n      eq\n        /* \"#utility.yul\":2689:2752   */\n      tag_123\n      jumpi\n        /* \"#utility.yul\":2748:2749   */\n      0x00\n        /* \"#utility.yul\":2745:2746   */\n      dup1\n        /* \"#utility.yul\":2738:2750   */\n      revert\n        /* \"#utility.yul\":2689:2752   */\n    tag_123:\n        /* \"#utility.yul\":2636:2758   */\n      pop\n      jump\t// out\n        /* \"#utility.yul\":2764:2903   */\n    tag_62:\n        /* \"#utility.yul\":2810:2815   */\n      0x00\n        /* \"#utility.yul\":2848:2854   */\n      dup2\n        /* \"#utility.yul\":2835:2855   */\n      calldataload\n        /* \"#utility.yul\":2826:2855   */\n      swap1\n      pop\n        /* \"#utility.yul\":2864:2897   */\n      tag_125\n        /* \"#utility.yul\":2891:2896   */\n      dup2\n        /* \"#utility.yul\":2864:2897   */\n      tag_61\n      jump\t// in\n    tag_125:\n        /* \"#utility.yul\":2764:2903   */\n      swap3\n      swap2\n      pop\n      pop\n      jump\t// out\n        /* \"#utility.yul\":2909:3563   */\n    tag_9:\n        /* \"#utility.yul\":2987:2993   */\n      0x00\n        /* \"#utility.yul\":2995:3001   */\n      dup1\n        /* \"#utility.yul\":3044:3046   */\n      0x40\n        /* \"#utility.yul\":3032:3041   */\n      dup4\n        /* \"#utility.yul\":3023:3030   */\n      dup6\n        /* \"#utility.yul\":3019:3042   */\n      sub\n        /* \"#utility.yul\":3015:3047   */\n      slt\n        /* \"#utility.yul\":3012:3131   */\n      iszero\n      tag_127\n      jumpi\n        /* \"#utility.yul\":3050:3129   */\n      tag_128\n      tag_48\n      jump\t// in\n    tag_128:\n        /* \"#utility.yul\":3012:3131   */\n    tag_127:\n        /* \"#utility.yul\":3198:3199   */\n      0x00\n        /* \"#utility.yul\":3187:3196   */\n      dup4\n        /* \"#utility.yul\":3183:3200   */\n      add\n        /* \"#utility.yul\":3170:3201   */\n      calldataload\n        /* \"#utility.yul\":3228:3246   */\n      0xffffffffffffffff\n        /* \"#utility.yul\":3220:3226   */\n      dup2\n        /* \"#utility.yul\":3217:3247   */\n      gt\n        /* \"#utility.yul\":3214:3331   */\n      iszero\n      tag_129\n      jumpi\n        /* \"#utility.yul\":3250:3329   */\n      tag_130\n      tag_49\n      jump\t// in\n    tag_130:\n        /* \"#utility.yul\":3214:3331   */\n    tag_129:\n        /* \"#utility.yul\":3355:3418   */\n      tag_131\n        /* \"#utility.yul\":3410:3417   */\n      dup6\n        /* \"#utility.yul\":3401:3407   */\n      dup3\n        /* \"#utility.yul\":3390:3399   */\n      dup7\n        /* \"#utility.yul\":3386:3408   */\n      add\n        /* \"#utility.yul\":3355:3418   */\n      tag_59\n      jump\t// in\n    tag_131:\n        /* \"#utility.yul\":3345:3418   */\n      swap3\n      pop\n        /* \"#utility.yul\":3141:3428   */\n      pop\n        /* \"#utility.yul\":3467:3469   */\n      0x20\n        /* \"#utility.yul\":3493:3546   */\n      tag_132\n        /* \"#utility.yul\":3538:3545   */\n      dup6\n        /* \"#utility.yul\":3529:3535   */\n      dup3\n        /* \"#utility.yul\":3518:3527   */\n      dup7\n        /* \"#utility.yul\":3514:3536   */\n      add\n        /* \"#utility.yul\":3493:3546   */\n      tag_62\n      jump\t// in\n    tag_132:\n        /* \"#utility.yul\":3483:3546   */\n      swap2\n      pop\n        /* \"#utility.yul\":3438:3556   */\n      pop\n        /* \"#utility.yul\":2909:3563   */\n      swap3\n      pop\n      swap3\n      swap1\n      pop\n      jump\t// out\n        /* \"#utility.yul\":3569:4078   */\n    tag_16:\n        /* \"#utility.yul\":3638:3644   */\n      0x00\n        /* \"#utility.yul\":3687:3689   */\n      0x20\n        /* \"#utility.yul\":3675:3684   */\n      dup3\n        /* \"#utility.yul\":3666:3673   */\n      dup5\n        /* \"#utility.yul\":3662:3685   */\n      sub\n        /* \"#utility.yul\":3658:3690   */\n      slt\n        /* \"#utility.yul\":3655:3774   */\n      iszero\n      tag_134\n      jumpi\n        /* \"#utility.yul\":3693:3772   */\n      tag_135\n      tag_48\n      jump\t// in\n    tag_135:\n        /* \"#utility.yul\":3655:3774   */\n    tag_134:\n        /* \"#utility.yul\":3841:3842   */\n      0x00\n        /* \"#utility.yul\":3830:3839   */\n      dup3\n        /* \"#utility.yul\":3826:3843   */\n      add\n        /* \"#utility.yul\":3813:3844   */\n      calldataload\n        /* \"#utility.yul\":3871:3889   */\n      0xffffffffffffffff\n        /* \"#utility.yul\":3863:3869   */\n      dup2\n        /* \"#utility.yul\":3860:3890   */\n      gt\n        /* \"#utility.yul\":3857:3974   */\n      iszero\n      tag_136\n      jumpi\n        /* \"#utility.yul\":3893:3972   */\n      tag_137\n      tag_49\n      jump\t// in\n    tag_137:\n        /* \"#utility.yul\":3857:3974   */\n    tag_136:\n        /* \"#utility.yul\":3998:4061   */\n      tag_138\n        /* \"#utility.yul\":4053:4060   */\n      dup5\n        /* \"#utility.yul\":4044:4050   */\n      dup3\n        /* \"#utility.yul\":4033:4042   */\n      dup6\n        /* \"#utility.yul\":4029:4051   */\n      add\n        /* \"#utility.yul\":3998:4061   */\n      tag_59\n      jump\t// in\n    tag_138:\n        /* \"#utility.yul\":3988:4061   */\n      swap2\n      pop\n        /* \"#utility.yul\":3784:4071   */\n      pop\n        /* \"#utility.yul\":3569:4078   */\n      swap3\n      swap2\n      pop\n      pop\n      jump\t// out\n        /* \"#utility.yul\":4084:4183   */\n    tag_63:\n        /* \"#utility.yul\":4136:4142   */\n      0x00\n        /* \"#utility.yul\":4170:4175   */\n      dup2\n        /* \"#utility.yul\":4164:4176   */\n      mload\n        /* \"#utility.yul\":4154:4176   */\n      swap1\n      pop\n        /* \"#utility.yul\":4084:4183   */\n      swap2\n      swap1\n      pop\n      jump\t// out\n        /* \"#utility.yul\":4189:4348   */\n    tag_64:\n        /* \"#utility.yul\":4263:4274   */\n      0x00\n        /* \"#utility.yul\":4297:4303   */\n      dup3\n        /* \"#utility.yul\":4292:4295   */\n      dup3\n        /* \"#utility.yul\":4285:4304   */\n      mstore\n        /* \"#utility.yul\":4337:4341   */\n      0x20\n        /* \"#utility.yul\":4332:4335   */\n      dup3\n        /* \"#utility.yul\":4328:4342   */\n      add\n        /* \"#utility.yul\":4313:4342   */\n      swap1\n      pop\n        /* \"#utility.yul\":4189:4348   */\n      swap3\n      swap2\n      pop\n      pop\n      jump\t// out\n        /* \"#utility.yul\":4354:4600   */\n    tag_65:\n        /* \"#utility.yul\":4435:4436   */\n      0x00\n        /* \"#utility.yul\":4445:4558   */\n    tag_142:\n        /* \"#utility.yul\":4459:4465   */\n      dup4\n        /* \"#utility.yul\":4456:4457   */\n      dup2\n        /* \"#utility.yul\":4453:4466   */\n      lt\n        /* \"#utility.yul\":4445:4558   */\n      iszero\n      tag_144\n      jumpi\n        /* \"#utility.yul\":4544:4545   */\n      dup1\n        /* \"#utility.yul\":4539:4542   */\n      dup3\n        /* \"#utility.yul\":4535:4546   */\n      add\n        /* \"#utility.yul\":4529:4547   */\n      mload\n        /* \"#utility.yul\":4525:4526   */\n      dup2\n        /* \"#utility.yul\":4520:4523   */\n      dup5\n        /* \"#utility.yul\":4516:4527   */\n      add\n        /* \"#utility.yul\":4509:4548   */\n      mstore\n        /* \"#utility.yul\":4481:4483   */\n      0x20\n        /* \"#utility.yul\":4478:4479   */\n      dup2\n        /* \"#utility.yul\":4474:4484   */\n      add\n        /* \"#utility.yul\":4469:4484   */\n      swap1\n      pop\n        /* \"#utility.yul\":4445:4558   */\n      jump(tag_142)\n    tag_144:\n        /* \"#utility.yul\":4592:4593   */\n      0x00\n        /* \"#utility.yul\":4583:4589   */\n      dup5\n        /* \"#utility.yul\":4578:4581   */\n      dup5\n        /* \"#utility.yul\":4574:4590   */\n      add\n        /* \"#utility.yul\":4567:4594   */\n      mstore\n        /* \"#utility.yul\":4416:4600   */\n      pop\n        /* \"#utility.yul\":4354:4600   */\n      pop\n      pop\n      pop\n      jump\t// out\n        /* \"#utility.yul\":4606:4963   */\n    tag_66:\n        /* \"#utility.yul\":4684:4687   */\n      0x00\n        /* \"#utility.yul\":4712:4751   */\n      tag_146\n        /* \"#utility.yul\":4745:4750   */\n      dup3\n        /* \"#utility.yul\":4712:4751   */\n      tag_63\n      jump\t// in\n    tag_146:\n        /* \"#utility.yul\":4767:4828   */\n      tag_147\n        /* \"#utility.yul\":4821:4827   */\n      dup2\n        /* \"#utility.yul\":4816:4819   */\n      dup6\n        /* \"#utility.yul\":4767:4828   */\n      tag_64\n      jump\t// in\n    tag_147:\n        /* \"#utility.yul\":4760:4828   */\n      swap4\n      pop\n        /* \"#utility.yul\":4837:4902   */\n      tag_148\n        /* \"#utility.yul\":4895:4901   */\n      dup2\n        /* \"#utility.yul\":4890:4893   */\n      dup6\n        /* \"#utility.yul\":4883:4887   */\n      0x20\n        /* \"#utility.yul\":4876:4881   */\n      dup7\n        /* \"#utility.yul\":4872:4888   */\n      add\n        /* \"#utility.yul\":4837:4902   */\n      tag_65\n      jump\t// in\n    tag_148:\n        /* \"#utility.yul\":4927:4956   */\n      tag_149\n        /* \"#utility.yul\":4949:4955   */\n      dup2\n        /* \"#utility.yul\":4927:4956   */\n      tag_52\n      jump\t// in\n    tag_149:\n        /* \"#utility.yul\":4922:4925   */\n      dup5\n        /* \"#utility.yul\":4918:4957   */\n      add\n        /* \"#utility.yul\":4911:4957   */\n      swap2\n      pop\n        /* \"#utility.yul\":4688:4963   */\n      pop\n        /* \"#utility.yul\":4606:4963   */\n      swap3\n      swap2\n      pop\n      pop\n      jump\t// out\n        /* \"#utility.yul\":4969:5077   */\n    tag_67:\n        /* \"#utility.yul\":5046:5070   */\n      tag_151\n        /* \"#utility.yul\":5064:5069   */\n      dup2\n        /* \"#utility.yul\":5046:5070   */\n      tag_60\n      jump\t// in\n    tag_151:\n        /* \"#utility.yul\":5041:5044   */\n      dup3\n        /* \"#utility.yul\":5034:5071   */\n      mstore\n        /* \"#utility.yul\":4969:5077   */\n      pop\n      pop\n      jump\t// out\n        /* \"#utility.yul\":5143:5736   */\n    tag_68:\n        /* \"#utility.yul\":5250:5253   */\n      0x00\n        /* \"#utility.yul\":5286:5290   */\n      0x40\n        /* \"#utility.yul\":5281:5284   */\n      dup4\n        /* \"#utility.yul\":5277:5291   */\n      add\n        /* \"#utility.yul\":5373:5377   */\n      0x00\n        /* \"#utility.yul\":5366:5371   */\n      dup4\n        /* \"#utility.yul\":5362:5378   */\n      add\n        /* \"#utility.yul\":5356:5379   */\n      mload\n        /* \"#utility.yul\":5426:5429   */\n      dup5\n        /* \"#utility.yul\":5420:5424   */\n      dup3\n        /* \"#utility.yul\":5416:5430   */\n      sub\n        /* \"#utility.yul\":5409:5413   */\n      0x00\n        /* \"#utility.yul\":5404:5407   */\n      dup7\n        /* \"#utility.yul\":5400:5414   */\n      add\n        /* \"#utility.yul\":5393:5431   */\n      mstore\n        /* \"#utility.yul\":5452:5525   */\n      tag_153\n        /* \"#utility.yul\":5520:5524   */\n      dup3\n        /* \"#utility.yul\":5506:5518   */\n      dup3\n        /* \"#utility.yul\":5452:5525   */\n      tag_66\n      jump\t// in\n    tag_153:\n        /* \"#utility.yul\":5444:5525   */\n      swap2\n      pop\n        /* \"#utility.yul\":5301:5536   */\n      pop\n        /* \"#utility.yul\":5617:5621   */\n      0x20\n        /* \"#utility.yul\":5610:5615   */\n      dup4\n        /* \"#utility.yul\":5606:5622   */\n      add\n        /* \"#utility.yul\":5600:5623   */\n      mload\n        /* \"#utility.yul\":5636:5699   */\n      tag_154\n        /* \"#utility.yul\":5693:5697   */\n      0x20\n        /* \"#utility.yul\":5688:5691   */\n      dup7\n        /* \"#utility.yul\":5684:5698   */\n      add\n        /* \"#utility.yul\":5670:5682   */\n      dup3\n        /* \"#utility.yul\":5636:5699   */\n      tag_67\n      jump\t// in\n    tag_154:\n        /* \"#utility.yul\":5546:5709   */\n      pop\n        /* \"#utility.yul\":5726:5730   */\n      dup1\n        /* \"#utility.yul\":5719:5730   */\n      swap2\n      pop\n        /* \"#utility.yul\":5255:5736   */\n      pop\n        /* \"#utility.yul\":5143:5736   */\n      swap3\n      swap2\n      pop\n      pop\n      jump\t// out\n        /* \"#utility.yul\":5742:6091   */\n    tag_19:\n        /* \"#utility.yul\":5873:5877   */\n      0x00\n        /* \"#utility.yul\":5911:5913   */\n      0x20\n        /* \"#utility.yul\":5900:5909   */\n      dup3\n        /* \"#utility.yul\":5896:5914   */\n      add\n        /* \"#utility.yul\":5888:5914   */\n      swap1\n      pop\n        /* \"#utility.yul\":5960:5969   */\n      dup2\n        /* \"#utility.yul\":5954:5958   */\n      dup2\n        /* \"#utility.yul\":5950:5970   */\n      sub\n        /* \"#utility.yul\":5946:5947   */\n      0x00\n        /* \"#utility.yul\":5935:5944   */\n      dup4\n        /* \"#utility.yul\":5931:5948   */\n      add\n        /* \"#utility.yul\":5924:5971   */\n      mstore\n        /* \"#utility.yul\":5988:6084   */\n      tag_156\n        /* \"#utility.yul\":6079:6083   */\n      dup2\n        /* \"#utility.yul\":6070:6076   */\n      dup5\n        /* \"#utility.yul\":5988:6084   */\n      tag_68\n      jump\t// in\n    tag_156:\n        /* \"#utility.yul\":5980:6084   */\n      swap1\n      pop\n        /* \"#utility.yul\":5742:6091   */\n      swap3\n      swap2\n      pop\n      pop\n      jump\t// out\n        /* \"#utility.yul\":6097:6266   */\n    tag_69:\n        /* \"#utility.yul\":6181:6192   */\n      0x00\n        /* \"#utility.yul\":6215:6221   */\n      dup3\n        /* \"#utility.yul\":6210:6213   */\n      dup3\n        /* \"#utility.yul\":6203:6222   */\n      mstore\n        /* \"#utility.yul\":6255:6259   */\n      0x20\n        /* \"#utility.yul\":6250:6253   */\n      dup3\n        /* \"#utility.yul\":6246:6260   */\n      add\n        /* \"#utility.yul\":6231:6260   */\n      swap1\n      pop\n        /* \"#utility.yul\":6097:6266   */\n      swap3\n      swap2\n      pop\n      pop\n      jump\t// out\n        /* \"#utility.yul\":6272:6649   */\n    tag_70:\n        /* \"#utility.yul\":6360:6363   */\n      0x00\n        /* \"#utility.yul\":6388:6427   */\n      tag_159\n        /* \"#utility.yul\":6421:6426   */\n      dup3\n        /* \"#utility.yul\":6388:6427   */\n      tag_63\n      jump\t// in\n    tag_159:\n        /* \"#utility.yul\":6443:6514   */\n      tag_160\n        /* \"#utility.yul\":6507:6513   */\n      dup2\n        /* \"#utility.yul\":6502:6505   */\n      dup6\n        /* \"#utility.yul\":6443:6514   */\n      tag_69\n      jump\t// in\n    tag_160:\n        /* \"#utility.yul\":6436:6514   */\n      swap4\n      pop\n        /* \"#utility.yul\":6523:6588   */\n      tag_161\n        /* \"#utility.yul\":6581:6587   */\n      dup2\n        /* \"#utility.yul\":6576:6579   */\n      dup6\n        /* \"#utility.yul\":6569:6573   */\n      0x20\n        /* \"#utility.yul\":6562:6567   */\n      dup7\n        /* \"#utility.yul\":6558:6574   */\n      add\n        /* \"#utility.yul\":6523:6588   */\n      tag_65\n      jump\t// in\n    tag_161:\n        /* \"#utility.yul\":6613:6642   */\n      tag_162\n        /* \"#utility.yul\":6635:6641   */\n      dup2\n        /* \"#utility.yul\":6613:6642   */\n      tag_52\n      jump\t// in\n    tag_162:\n        /* \"#utility.yul\":6608:6611   */\n      dup5\n        /* \"#utility.yul\":6604:6643   */\n      add\n        /* \"#utility.yul\":6597:6643   */\n      swap2\n      pop\n        /* \"#utility.yul\":6364:6649   */\n      pop\n        /* \"#utility.yul\":6272:6649   */\n      swap3\n      swap2\n      pop\n      pop\n      jump\t// out\n        /* \"#utility.yul\":6655:6773   */\n    tag_71:\n        /* \"#utility.yul\":6742:6766   */\n      tag_164\n        /* \"#utility.yul\":6760:6765   */\n      dup2\n        /* \"#utility.yul\":6742:6766   */\n      tag_60\n      jump\t// in\n    tag_164:\n        /* \"#utility.yul\":6737:6740   */\n      dup3\n        /* \"#utility.yul\":6730:6767   */\n      mstore\n        /* \"#utility.yul\":6655:6773   */\n      pop\n      pop\n      jump\t// out\n        /* \"#utility.yul\":6779:7202   */\n    tag_24:\n        /* \"#utility.yul\":6920:6924   */\n      0x00\n        /* \"#utility.yul\":6958:6960   */\n      0x40\n        /* \"#utility.yul\":6947:6956   */\n      dup3\n        /* \"#utility.yul\":6943:6961   */\n      add\n        /* \"#utility.yul\":6935:6961   */\n      swap1\n      pop\n        /* \"#utility.yul\":7007:7016   */\n      dup2\n        /* \"#utility.yul\":7001:7005   */\n      dup2\n        /* \"#utility.yul\":6997:7017   */\n      sub\n        /* \"#utility.yul\":6993:6994   */\n      0x00\n        /* \"#utility.yul\":6982:6991   */\n      dup4\n        /* \"#utility.yul\":6978:6995   */\n      add\n        /* \"#utility.yul\":6971:7018   */\n      mstore\n        /* \"#utility.yul\":7035:7113   */\n      tag_166\n        /* \"#utility.yul\":7108:7112   */\n      dup2\n        /* \"#utility.yul\":7099:7105   */\n      dup6\n        /* \"#utility.yul\":7035:7113   */\n      tag_70\n      jump\t// in\n    tag_166:\n        /* \"#utility.yul\":7027:7113   */\n      swap1\n      pop\n        /* \"#utility.yul\":7123:7195   */\n      tag_167\n        /* \"#utility.yul\":7191:7193   */\n      0x20\n        /* \"#utility.yul\":7180:7189   */\n      dup4\n        /* \"#utility.yul\":7176:7194   */\n      add\n        /* \"#utility.yul\":7167:7173   */\n      dup5\n        /* \"#utility.yul\":7123:7195   */\n      tag_71\n      jump\t// in\n    tag_167:\n        /* \"#utility.yul\":6779:7202   */\n      swap4\n      swap3\n      pop\n      pop\n      pop\n      jump\t// out\n        /* \"#utility.yul\":7208:7356   */\n    tag_72:\n        /* \"#utility.yul\":7310:7321   */\n      0x00\n        /* \"#utility.yul\":7347:7350   */\n      dup2\n        /* \"#utility.yul\":7332:7350   */\n      swap1\n      pop\n        /* \"#utility.yul\":7208:7356   */\n      swap3\n      swap2\n      pop\n      pop\n      jump\t// out\n        /* \"#utility.yul\":7362:7752   */\n    tag_73:\n        /* \"#utility.yul\":7468:7471   */\n      0x00\n        /* \"#utility.yul\":7496:7535   */\n      tag_170\n        /* \"#utility.yul\":7529:7534   */\n      dup3\n        /* \"#utility.yul\":7496:7535   */\n      tag_63\n      jump\t// in\n    tag_170:\n        /* \"#utility.yul\":7551:7640   */\n      tag_171\n        /* \"#utility.yul\":7633:7639   */\n      dup2\n        /* \"#utility.yul\":7628:7631   */\n      dup6\n        /* \"#utility.yul\":7551:7640   */\n      tag_72\n      jump\t// in\n    tag_171:\n        /* \"#utility.yul\":7544:7640   */\n      swap4\n      pop\n        /* \"#utility.yul\":7649:7714   */\n      tag_172\n        /* \"#utility.yul\":7707:7713   */\n      dup2\n        /* \"#utility.yul\":7702:7705   */\n      dup6\n        /* \"#utility.yul\":7695:7699   */\n      0x20\n        /* \"#utility.yul\":7688:7693   */\n      dup7\n        /* \"#utility.yul\":7684:7700   */\n      add\n        /* \"#utility.yul\":7649:7714   */\n      tag_65\n      jump\t// in\n    tag_172:\n        /* \"#utility.yul\":7739:7745   */\n      dup1\n        /* \"#utility.yul\":7734:7737   */\n      dup5\n        /* \"#utility.yul\":7730:7746   */\n      add\n        /* \"#utility.yul\":7723:7746   */\n      swap2\n      pop\n        /* \"#utility.yul\":7472:7752   */\n      pop\n        /* \"#utility.yul\":7362:7752   */\n      swap3\n      swap2\n      pop\n      pop\n      jump\t// out\n        /* \"#utility.yul\":7758:8033   */\n    tag_27:\n        /* \"#utility.yul\":7890:7893   */\n      0x00\n        /* \"#utility.yul\":7912:8007   */\n      tag_174\n        /* \"#utility.yul\":8003:8006   */\n      dup3\n        /* \"#utility.yul\":7994:8000   */\n      dup5\n        /* \"#utility.yul\":7912:8007   */\n      tag_73\n      jump\t// in\n    tag_174:\n        /* \"#utility.yul\":7905:8007   */\n      swap2\n      pop\n        /* \"#utility.yul\":8024:8027   */\n      dup2\n        /* \"#utility.yul\":8017:8027   */\n      swap1\n      pop\n        /* \"#utility.yul\":7758:8033   */\n      swap3\n      swap2\n      pop\n      pop\n      jump\t// out\n        /* \"#utility.yul\":8039:8219   */\n    tag_74:\n        /* \"#utility.yul\":8087:8164   */\n      0x4e487b7100000000000000000000000000000000000000000000000000000000\n        /* \"#utility.yul\":8084:8085   */\n      0x00\n        /* \"#utility.yul\":8077:8165   */\n      mstore\n        /* \"#utility.yul\":8184:8188   */\n      0x22\n        /* \"#utility.yul\":8181:8182   */\n      0x04\n        /* \"#utility.yul\":8174:8189   */\n      mstore\n        /* \"#utility.yul\":8208:8212   */\n      0x24\n        /* \"#utility.yul\":8205:8206   */\n      0x00\n        /* \"#utility.yul\":8198:8213   */\n      revert\n        /* \"#utility.yul\":8225:8545   */\n    tag_37:\n        /* \"#utility.yul\":8269:8275   */\n      0x00\n        /* \"#utility.yul\":8306:8307   */\n      0x02\n        /* \"#utility.yul\":8300:8304   */\n      dup3\n        /* \"#utility.yul\":8296:8308   */\n      div\n        /* \"#utility.yul\":8286:8308   */\n      swap1\n      pop\n        /* \"#utility.yul\":8353:8354   */\n      0x01\n        /* \"#utility.yul\":8347:8351   */\n      dup3\n        /* \"#utility.yul\":8343:8355   */\n      and\n        /* \"#utility.yul\":8374:8392   */\n      dup1\n        /* \"#utility.yul\":8364:8445   */\n      tag_177\n      jumpi\n        /* \"#utility.yul\":8430:8434   */\n      0x7f\n        /* \"#utility.yul\":8422:8428   */\n      dup3\n        /* \"#utility.yul\":8418:8435   */\n      and\n        /* \"#utility.yul\":8408:8435   */\n      swap2\n      pop\n        /* \"#utility.yul\":8364:8445   */\n    tag_177:\n        /* \"#utility.yul\":8492:8494   */\n      0x20\n        /* \"#utility.yul\":8484:8490   */\n      dup3\n        /* \"#utility.yul\":8481:8495   */\n      lt\n        /* \"#utility.yul\":8461:8479   */\n      dup2\n        /* \"#utility.yul\":8458:8496   */\n      sub\n        /* \"#utility.yul\":8455:8539   */\n      tag_178\n      jumpi\n        /* \"#utility.yul\":8511:8529   */\n      tag_179\n      tag_74\n      jump\t// in\n    tag_179:\n        /* \"#utility.yul\":8455:8539   */\n    tag_178:\n        /* \"#utility.yul\":8276:8545   */\n      pop\n        /* \"#utility.yul\":8225:8545   */\n      swap2\n      swap1\n      pop\n      jump\t// out\n        /* \"#utility.yul\":8551:8692   */\n    tag_75:\n        /* \"#utility.yul\":8600:8604   */\n      0x00\n        /* \"#utility.yul\":8623:8626   */\n      dup2\n        /* \"#utility.yul\":8615:8626   */\n      swap1\n      pop\n        /* \"#utility.yul\":8646:8649   */\n      dup2\n        /* \"#utility.yul\":8643:8644   */\n      0x00\n        /* \"#utility.yul\":8636:8650   */\n      mstore\n        /* \"#utility.yul\":8680:8684   */\n      0x20\n        /* \"#utility.yul\":8677:8678   */\n      0x00\n        /* \"#utility.yul\":8667:8685   */\n      keccak256\n        /* \"#utility.yul\":8659:8685   */\n      swap1\n      pop\n        /* \"#utility.yul\":8551:8692   */\n      swap2\n      swap1\n      pop\n      jump\t// out\n        /* \"#utility.yul\":8698:8791   */\n    tag_76:\n        /* \"#utility.yul\":8735:8741   */\n      0x00\n        /* \"#utility.yul\":8782:8784   */\n      0x20\n        /* \"#utility.yul\":8777:8779   */\n      0x1f\n        /* \"#utility.yul\":8770:8775   */\n      dup4\n        /* \"#utility.yul\":8766:8780   */\n      add\n        /* \"#utility.yul\":8762:8785   */\n      div\n        /* \"#utility.yul\":8752:8785   */\n      swap1\n      pop\n        /* \"#utility.yul\":8698:8791   */\n      swap2\n      swap1\n      pop\n      jump\t// out\n        /* \"#utility.yul\":8797:8904   */\n    tag_77:\n        /* \"#utility.yul\":8841:8849   */\n      0x00\n        /* \"#utility.yul\":8891:8896   */\n      dup3\n        /* \"#utility.yul\":8885:8889   */\n      dup3\n        /* \"#utility.yul\":8881:8897   */\n      shl\n        /* \"#utility.yul\":8860:8897   */\n      swap1\n      pop\n        /* \"#utility.yul\":8797:8904   */\n      swap3\n      swap2\n      pop\n      pop\n      jump\t// out\n        /* \"#utility.yul\":8910:9303   */\n    tag_78:\n        /* \"#utility.yul\":8979:8985   */\n      0x00\n        /* \"#utility.yul\":9029:9030   */\n      0x08\n        /* \"#utility.yul\":9017:9027   */\n      dup4\n        /* \"#utility.yul\":9013:9031   */\n      mul\n        /* \"#utility.yul\":9052:9149   */\n      tag_184\n        /* \"#utility.yul\":9082:9148   */\n      0xffffffffffffffffffffffffffffffffffffffffffffffffffffffffffffffff\n        /* \"#utility.yul\":9071:9080   */\n      dup3\n        /* \"#utility.yul\":9052:9149   */\n      tag_77\n      jump\t// in\n    tag_184:\n        /* \"#utility.yul\":9170:9209   */\n      tag_185\n        /* \"#utility.yul\":9200:9208   */\n      dup7\n        /* \"#utility.yul\":9189:9198   */\n      dup4\n        /* \"#utility.yul\":9170:9209   */\n      tag_77\n      jump\t// in\n    tag_185:\n        /* \"#utility.yul\":9158:9209   */\n      swap6\n      pop\n        /* \"#utility.yul\":9242:9246   */\n      dup1\n        /* \"#utility.yul\":9238:9247   */\n      not\n        /* \"#utility.yul\":9231:9236   */\n      dup5\n        /* \"#utility.yul\":9227:9248   */\n      and\n        /* \"#utility.yul\":9218:9248   */\n      swap4\n      pop\n        /* \"#utility.yul\":9291:9295   */\n      dup1\n        /* \"#utility.yul\":9281:9289   */\n      dup7\n        /* \"#utility.yul\":9277:9296   */\n      and\n        /* \"#utility.yul\":9270:9275   */\n      dup5\n        /* \"#utility.yul\":9267:9297   */\n      or\n        /* \"#utility.yul\":9257:9297   */\n      swap3\n      pop\n        /* \"#utility.yul\":8986:9303   */\n      pop\n      pop\n        /* \"#utility.yul\":8910:9303   */\n      swap4\n      swap3\n      pop\n      pop\n      pop\n      jump\t// out\n        /* \"#utility.yul\":9309:9369   */\n    tag_79:\n        /* \"#utility.yul\":9337:9340   */\n      0x00\n        /* \"#utility.yul\":9358:9363   */\n      dup2\n        /* \"#utility.yul\":9351:9363   */\n      swap1\n      pop\n        /* \"#utility.yul\":9309:9369   */\n      swap2\n      swap1\n      pop\n      jump\t// out\n        /* \"#utility.yul\":9375:9517   */\n    tag_80:\n        /* \"#utility.yul\":9425:9434   */\n      0x00\n        /* \"#utility.yul\":9458:9511   */\n      tag_188\n        /* \"#utility.yul\":9476:9510   */\n      tag_189\n        /* \"#utility.yul\":9485:9509   */\n      tag_190\n        /* \"#utility.yul\":9503:9508   */\n      dup5\n        /* \"#utility.yul\":9485:9509   */\n      tag_60\n      jump\t// in\n    tag_190:\n        /* \"#utility.yul\":9476:9510   */\n      tag_79\n      jump\t// in\n    tag_189:\n        /* \"#utility.yul\":9458:9511   */\n      tag_60\n      jump\t// in\n    tag_188:\n        /* \"#utility.yul\":9445:9511   */\n      swap1\n      pop\n        /* \"#utility.yul\":9375:9517   */\n      swap2\n      swap1\n      pop\n      jump\t// out\n        /* \"#utility.yul\":9523:9598   */\n    tag_81:\n        /* \"#utility.yul\":9566:9569   */\n      0x00\n        /* \"#utility.yul\":9587:9592   */\n      dup2\n        /* \"#utility.yul\":9580:9592   */\n      swap1\n      pop\n        /* \"#utility.yul\":9523:9598   */\n      swap2\n      swap1\n      pop\n      jump\t// out\n        /* \"#utility.yul\":9604:9873   */\n    tag_82:\n        /* \"#utility.yul\":9714:9753   */\n      tag_193\n        /* \"#utility.yul\":9745:9752   */\n      dup4\n        /* \"#utility.yul\":9714:9753   */\n      tag_80\n      jump\t// in\n    tag_193:\n        /* \"#utility.yul\":9775:9866   */\n      tag_194\n        /* \"#utility.yul\":9824:9865   */\n      tag_195\n        /* \"#utility.yul\":9848:9864   */\n      dup3\n        /* \"#utility.yul\":9824:9865   */\n      tag_81\n      jump\t// in\n    tag_195:\n        /* \"#utility.yul\":9816:9822   */\n      dup5\n        /* \"#utility.yul\":9809:9813   */\n      dup5\n        /* \"#utility.yul\":9803:9814   */\n      sload\n        /* \"#utility.yul\":9775:9866   */\n      tag_78\n      jump\t// in\n    tag_194:\n        /* \"#utility.yul\":9769:9773   */\n      dup3\n        /* \"#utility.yul\":9762:9867   */\n      sstore\n        /* \"#utility.yul\":9680:9873   */\n      pop\n        /* \"#utility.yul\":9604:9873   */\n      pop\n      pop\n      pop\n      jump\t// out\n        /* \"#utility.yul\":9879:9952   */\n    tag_83:\n        /* \"#utility.yul\":9924:9927   */\n      0x00\n        /* \"#utility.yul\":9879:9952   */\n      swap1\n      jump\t// out\n        /* \"#utility.yul\":9958:10147   */\n    tag_84:\n        /* \"#utility.yul\":10035:10067   */\n      tag_198\n      tag_83\n      jump\t// in\n    tag_198:\n        /* \"#utility.yul\":10076:10141   */\n      tag_199\n        /* \"#utility.yul\":10134:10140   */\n      dup2\n        /* \"#utility.yul\":10126:10132   */\n      dup5\n        /* \"#utility.yul\":10120:10124   */\n      dup5\n        /* \"#utility.yul\":10076:10141   */\n      tag_82\n      jump\t// in\n    tag_199:\n        /* \"#utility.yul\":10011:10147   */\n      pop\n        /* \"#utility.yul\":9958:10147   */\n      pop\n      pop\n      jump\t// out\n        /* \"#utility.yul\":10153:10339   */\n    tag_85:\n        /* \"#utility.yul\":10213:10333   */\n    tag_201:\n        /* \"#utility.yul\":10230:10233   */\n      dup2\n        /* \"#utility.yul\":10223:10228   */\n      dup2\n        /* \"#utility.yul\":10220:10234   */\n      lt\n        /* \"#utility.yul\":10213:10333   */\n      iszero\n      tag_203\n      jumpi\n        /* \"#utility.yul\":10284:10323   */\n      tag_204\n        /* \"#utility.yul\":10321:10322   */\n      0x00\n        /* \"#utility.yul\":10314:10319   */\n      dup3\n        /* \"#utility.yul\":10284:10323   */\n      tag_84\n      jump\t// in\n    tag_204:\n        /* \"#utility.yul\":10257:10258   */\n      0x01\n        /* \"#utility.yul\":10250:10255   */\n      dup2\n        /* \"#utility.yul\":10246:10259   */\n      add\n        /* \"#utility.yul\":10237:10259   */\n      swap1\n      pop\n        /* \"#utility.yul\":10213:10333   */\n      jump(tag_201)\n    tag_203:\n        /* \"#utility.yul\":10153:10339   */\n      pop\n      pop\n      jump\t// out\n        /* \"#utility.yul\":10345:10888   */\n    tag_86:\n        /* \"#utility.yul\":10446:10448   */\n      0x1f\n        /* \"#utility.yul\":10441:10444   */\n      dup3\n        /* \"#utility.yul\":10438:10449   */\n      gt\n        /* \"#utility.yul\":10435:10881   */\n      iszero\n      tag_206\n      jumpi\n        /* \"#utility.yul\":10480:10518   */\n      tag_207\n        /* \"#utility.yul\":10512:10517   */\n      dup2\n        /* \"#utility.yul\":10480:10518   */\n      tag_75\n      jump\t// in\n    tag_207:\n        /* \"#utility.yul\":10564:10593   */\n      tag_208\n        /* \"#utility.yul\":10582:10592   */\n      dup5\n        /* \"#utility.yul\":10564:10593   */\n      tag_76\n      jump\t// in\n    tag_208:\n        /* \"#utility.yul\":10554:10562   */\n      dup2\n        /* \"#utility.yul\":10550:10594   */\n      add\n        /* \"#utility.yul\":10747:10749   */\n      0x20\n        /* \"#utility.yul\":10735:10745   */\n      dup6\n        /* \"#utility.yul\":10732:10750   */\n      lt\n        /* \"#utility.yul\":10729:10778   */\n      iszero\n      tag_209\n      jumpi\n        /* \"#utility.yul\":10768:10776   */\n      dup2\n        /* \"#utility.yul\":10753:10776   */\n      swap1\n      pop\n        /* \"#utility.yul\":10729:10778   */\n    tag_209:\n        /* \"#utility.yul\":10791:10871   */\n      tag_210\n        /* \"#utility.yul\":10847:10869   */\n      tag_211\n        /* \"#utility.yul\":10865:10868   */\n      dup6\n        /* \"#utility.yul\":10847:10869   */\n      tag_76\n      jump\t// in\n    tag_211:\n        /* \"#utility.yul\":10837:10845   */\n      dup4\n        /* \"#utility.yul\":10833:10870   */\n      add\n        /* \"#utility.yul\":10820:10831   */\n      dup3\n        /* \"#utility.yul\":10791:10871   */\n      tag_85\n      jump\t// in\n    tag_210:\n        /* \"#utility.yul\":10450:10881   */\n      pop\n      pop\n        /* \"#utility.yul\":10435:10881   */\n    tag_206:\n        /* \"#utility.yul\":10345:10888   */\n      pop\n      pop\n      pop\n      jump\t// out\n        /* \"#utility.yul\":10894:11011   */\n    tag_87:\n        /* \"#utility.yul\":10948:10956   */\n      0x00\n        /* \"#utility.yul\":10998:11003   */\n      dup3\n        /* \"#utility.yul\":10992:10996   */\n      dup3\n        /* \"#utility.yul\":10988:11004   */\n      shr\n        /* \"#utility.yul\":10967:11004   */\n      swap1\n      pop\n        /* \"#utility.yul\":10894:11011   */\n      swap3\n      swap2\n      pop\n      pop\n      jump\t// out\n        /* \"#utility.yul\":11017:11186   */\n    tag_88:\n        /* \"#utility.yul\":11061:11067   */\n      0x00\n        /* \"#utility.yul\":11094:11145   */\n      tag_214\n        /* \"#utility.yul\":11142:11143   */\n      0x00\n        /* \"#utility.yul\":11138:11144   */\n      not\n        /* \"#utility.yul\":11130:11135   */\n      dup5\n        /* \"#utility.yul\":11127:11128   */\n      0x08\n        /* \"#utility.yul\":11123:11136   */\n      mul\n        /* \"#utility.yul\":11094:11145   */\n      tag_87\n      jump\t// in\n    tag_214:\n        /* \"#utility.yul\":11090:11146   */\n      not\n        /* \"#utility.yul\":11175:11179   */\n      dup1\n        /* \"#utility.yul\":11169:11173   */\n      dup4\n        /* \"#utility.yul\":11165:11180   */\n      and\n        /* \"#utility.yul\":11155:11180   */\n      swap2\n      pop\n        /* \"#utility.yul\":11068:11186   */\n      pop\n        /* \"#utility.yul\":11017:11186   */\n      swap3\n      swap2\n      pop\n      pop\n      jump\t// out\n        /* \"#utility.yul\":11191:11486   */\n    tag_89:\n        /* \"#utility.yul\":11267:11271   */\n      0x00\n        /* \"#utility.yul\":11413:11442   */\n      tag_216\n        /* \"#utility.yul\":11438:11441   */\n      dup4\n        /* \"#utility.yul\":11432:11436   */\n      dup4\n        /* \"#utility.yul\":11413:11442   */\n      tag_88\n      jump\t// in\n    tag_216:\n        /* \"#utility.yul\":11405:11442   */\n      swap2\n      pop\n        /* \"#utility.yul\":11475:11478   */\n      dup3\n        /* \"#utility.yul\":11472:11473   */\n      0x02\n        /* \"#utility.yul\":11468:11479   */\n      mul\n        /* \"#utility.yul\":11462:11466   */\n      dup3\n        /* \"#utility.yul\":11459:11480   */\n      or\n        /* \"#utility.yul\":11451:11480   */\n      swap1\n      pop\n        /* \"#utility.yul\":11191:11486   */\n      swap3\n      swap2\n      pop\n      pop\n      jump\t// out\n        /* \"#utility.yul\":11491:12886   */\n    tag_31:\n        /* \"#utility.yul\":11608:11645   */\n      tag_218\n        /* \"#utility.yul\":11641:11644   */\n      dup3\n        /* \"#utility.yul\":11608:11645   */\n      tag_63\n      jump\t// in\n    tag_218:\n        /* \"#utility.yul\":11710:11728   */\n      0xffffffffffffffff\n        /* \"#utility.yul\":11702:11708   */\n      dup2\n        /* \"#utility.yul\":11699:11729   */\n      gt\n        /* \"#utility.yul\":11696:11752   */\n      iszero\n      tag_219\n      jumpi\n        /* \"#utility.yul\":11732:11750   */\n      tag_220\n      tag_53\n      jump\t// in\n    tag_220:\n        /* \"#utility.yul\":11696:11752   */\n    tag_219:\n        /* \"#utility.yul\":11776:11814   */\n      tag_221\n        /* \"#utility.yul\":11808:11812   */\n      dup3\n        /* \"#utility.yul\":11802:11813   */\n      sload\n        /* \"#utility.yul\":11776:11814   */\n      tag_37\n      jump\t// in\n    tag_221:\n        /* \"#utility.yul\":11861:11928   */\n      tag_222\n        /* \"#utility.yul\":11921:11927   */\n      dup3\n        /* \"#utility.yul\":11913:11919   */\n      dup3\n        /* \"#utility.yul\":11907:11911   */\n      dup6\n        /* \"#utility.yul\":11861:11928   */\n      tag_86\n      jump\t// in\n    tag_222:\n        /* \"#utility.yul\":11955:11956   */\n      0x00\n        /* \"#utility.yul\":11979:11983   */\n      0x20\n        /* \"#utility.yul\":11966:11983   */\n      swap1\n      pop\n        /* \"#utility.yul\":12011:12013   */\n      0x1f\n        /* \"#utility.yul\":12003:12009   */\n      dup4\n        /* \"#utility.yul\":12000:12014   */\n      gt\n        /* \"#utility.yul\":12028:12029   */\n      0x01\n        /* \"#utility.yul\":12023:12641   */\n      dup2\n      eq\n      tag_224\n      jumpi\n        /* \"#utility.yul\":12685:12686   */\n      0x00\n        /* \"#utility.yul\":12702:12708   */\n      dup5\n        /* \"#utility.yul\":12699:12776   */\n      iszero\n      tag_225\n      jumpi\n        /* \"#utility.yul\":12751:12760   */\n      dup3\n        /* \"#utility.yul\":12746:12749   */\n      dup8\n        /* \"#utility.yul\":12742:12761   */\n      add\n        /* \"#utility.yul\":12736:12762   */\n      mload\n        /* \"#utility.yul\":12727:12762   */\n      swap1\n      pop\n        /* \"#utility.yul\":12699:12776   */\n    tag_225:\n        /* \"#utility.yul\":12802:12869   */\n      tag_226\n        /* \"#utility.yul\":12862:12868   */\n      dup6\n        /* \"#utility.yul\":12855:12860   */\n      dup3\n        /* \"#utility.yul\":12802:12869   */\n      tag_89\n      jump\t// in\n    tag_226:\n        /* \"#utility.yul\":12796:12800   */\n      dup7\n        /* \"#utility.yul\":12789:12870   */\n      sstore\n        /* \"#utility.yul\":12658:12880   */\n      pop\n        /* \"#utility.yul\":11993:12880   */\n      jump(tag_223)\n        /* \"#utility.yul\":12023:12641   */\n    tag_224:\n        /* \"#utility.yul\":12075:12079   */\n      0x1f\n        /* \"#utility.yul\":12071:12080   */\n      not\n        /* \"#utility.yul\":12063:12069   */\n      dup5\n        /* \"#utility.yul\":12059:12081   */\n      and\n        /* \"#utility.yul\":12109:12146   */\n      tag_227\n        /* \"#utility.yul\":12141:12145   */\n      dup7\n        /* \"#utility.yul\":12109:12146   */\n      tag_75\n      jump\t// in\n    tag_227:\n        /* \"#utility.yul\":12168:12169   */\n      0x00\n        /* \"#utility.yul\":12182:12390   */\n    tag_228:\n        /* \"#utility.yul\":12196:12203   */\n      dup3\n        /* \"#utility.yul\":12193:12194   */\n      dup2\n        /* \"#utility.yul\":12190:12204   */\n      lt\n        /* \"#utility.yul\":12182:12390   */\n      iszero\n      tag_230\n      jumpi\n        /* \"#utility.yul\":12275:12284   */\n      dup5\n        /* \"#utility.yul\":12270:12273   */\n      dup10\n        /* \"#utility.yul\":12266:12285   */\n      add\n        /* \"#utility.yul\":12260:12286   */\n      mload\n        /* \"#utility.yul\":12252:12258   */\n      dup3\n        /* \"#utility.yul\":12245:12287   */\n      sstore\n        /* \"#utility.yul\":12326:12327   */\n      0x01\n        /* \"#utility.yul\":12318:12324   */\n      dup3\n        /* \"#utility.yul\":12314:12328   */\n      add\n        /* \"#utility.yul\":12304:12328   */\n      swap2\n      pop\n        /* \"#utility.yul\":12373:12375   */\n      0x20\n        /* \"#utility.yul\":12362:12371   */\n      dup6\n        /* \"#utility.yul\":12358:12376   */\n      add\n        /* \"#utility.yul\":12345:12376   */\n      swap5\n      pop\n        /* \"#utility.yul\":12219:12223   */\n      0x20\n        /* \"#utility.yul\":12216:12217   */\n      dup2\n        /* \"#utility.yul\":12212:12224   */\n      add\n        /* \"#utility.yul\":12207:12224   */\n      swap1\n      pop\n        /* \"#utility.yul\":12182:12390   */\n      jump(tag_228)\n    tag_230:\n        /* \"#utility.yul\":12418:12424   */\n      dup7\n        /* \"#utility.yul\":12409:12416   */\n      dup4\n        /* \"#utility.yul\":12406:12425   */\n      lt\n        /* \"#utility.yul\":12403:12582   */\n      iszero\n      tag_231\n      jumpi\n        /* \"#utility.yul\":12476:12485   */\n      dup5\n        /* \"#utility.yul\":12471:12474   */\n      dup10\n        /* \"#utility.yul\":12467:12486   */\n      add\n        /* \"#utility.yul\":12461:12487   */\n      mload\n        /* \"#utility.yul\":12519:12567   */\n      tag_232\n        /* \"#utility.yul\":12561:12565   */\n      0x1f\n        /* \"#utility.yul\":12553:12559   */\n      dup10\n        /* \"#utility.yul\":12549:12566   */\n      and\n        /* \"#utility.yul\":12538:12547   */\n      dup3\n        /* \"#utility.yul\":12519:12567   */\n      tag_88\n      jump\t// in\n    tag_232:\n        /* \"#utility.yul\":12511:12517   */\n      dup4\n        /* \"#utility.yul\":12504:12568   */\n      sstore\n        /* \"#utility.yul\":12426:12582   */\n      pop\n        /* \"#utility.yul\":12403:12582   */\n    tag_231:\n        /* \"#utility.yul\":12628:12629   */\n      0x01\n        /* \"#utility.yul\":12624:12625   */\n      0x02\n        /* \"#utility.yul\":12616:12622   */\n      dup9\n        /* \"#utility.yul\":12612:12626   */\n      mul\n        /* \"#utility.yul\":12608:12630   */\n      add\n        /* \"#utility.yul\":12602:12606   */\n      dup9\n        /* \"#utility.yul\":12595:12631   */\n      sstore\n        /* \"#utility.yul\":12030:12641   */\n      pop\n      pop\n      pop\n        /* \"#utility.yul\":11993:12880   */\n    tag_223:\n      pop\n        /* \"#utility.yul\":11583:12886   */\n      pop\n      pop\n      pop\n        /* \"#utility.yul\":11491:12886   */\n      pop\n      pop\n      jump\t// out\n\n    auxdata: 0xa2646970667358221220d5346d3251b967532884ff8b372dfadccf731b6c6edc126fd4f6e984f03640a064736f6c63430008130033\n}\n",
				"bytecode": {
					"linkReferences": {},
					"object": "608060405234801561001057600080fd5b50610a30806100206000396000f3fe608060405234801561001057600080fd5b506004361061004c5760003560e01c806315af09c0146100515780631c5220c21461006d57806331feb67114610089578063689e1c03146100b9575b600080fd5b61006b600480360381019061006691906104ae565b6100ea565b005b610087600480360381019061008291906104ae565b610114565b005b6100a3600480360381019061009e919061050a565b61016e565b6040516100b0919061061e565b60405180910390f35b6100d360048036038101906100ce919061050a565b610242565b6040516100e1929190610699565b60405180910390f35b806000836040516100fb9190610705565b9081526020016040518091039020600101819055505050565b6040518060400160405280838152602001828152506000836040516101399190610705565b9081526020016040518091039020600082015181600001908161015c9190610928565b50602082015181600101559050505050565b610176610304565b6000826040516101869190610705565b90815260200160405180910390206040518060400160405290816000820180546101af9061074b565b80601f01602080910402602001604051908101604052809291908181526020018280546101db9061074b565b80156102285780601f106101fd57610100808354040283529160200191610228565b820191906000526020600020905b81548152906001019060200180831161020b57829003601f168201915b505050505081526020016001820154815250509050919050565b60008180516020810182018051848252602083016020850120818352809550505050505060009150905080600001805461027b9061074b565b80601f01602080910402602001604051908101604052809291908181526020018280546102a79061074b565b80156102f45780601f106102c9576101008083540402835291602001916102f4565b820191906000526020600020905b8154815290600101906020018083116102d757829003601f168201915b5050505050908060010154905082565b604051806040016040528060608152602001600081525090565b6000604051905090565b600080fd5b600080fd5b600080fd5b600080fd5b6000601f19601f8301169050919050565b7f4e487b7100000000000000000000000000000000000000000000000000000000600052604160045260246000fd5b6103858261033c565b810181811067ffffffffffffffff821117156103a4576103a361034d565b5b80604052505050565b60006103b761031e565b90506103c3828261037c565b919050565b600067ffffffffffffffff8211156103e3576103e261034d565b5b6103ec8261033c565b9050602081019050919050565b82818337600083830152505050565b600061041b610416846103c8565b6103ad565b90508281526020810184848401111561043757610436610337565b5b6104428482856103f9565b509392505050565b600082601f83011261045f5761045e610332565b5b813561046f848260208601610408565b91505092915050565b6000819050919050565b61048b81610478565b811461049657600080fd5b50565b6000813590506104a881610482565b92915050565b600080604083850312156104c5576104c4610328565b5b600083013567ffffffffffffffff8111156104e3576104e261032d565b5b6104ef8582860161044a565b925050602061050085828601610499565b9150509250929050565b6000602082840312156105205761051f610328565b5b600082013567ffffffffffffffff81111561053e5761053d61032d565b5b61054a8482850161044a565b91505092915050565b600081519050919050565b600082825260208201905092915050565b60005b8381101561058d578082015181840152602081019050610572565b60008484015250505050565b60006105a482610553565b6105ae818561055e565b93506105be81856020860161056f565b6105c78161033c565b840191505092915050565b6105db81610478565b82525050565b600060408301600083015184820360008601526105fe8282610599565b915050602083015161061360208601826105d2565b508091505092915050565b6000602082019050818103600083015261063881846105e1565b905092915050565b600082825260208201905092915050565b600061065c82610553565b6106668185610640565b935061067681856020860161056f565b61067f8161033c565b840191505092915050565b61069381610478565b82525050565b600060408201905081810360008301526106b38185610651565b90506106c2602083018461068a565b9392505050565b600081905092915050565b60006106df82610553565b6106e981856106c9565b93506106f981856020860161056f565b80840191505092915050565b600061071182846106d4565b915081905092915050565b7f4e487b7100000000000000000000000000000000000000000000000000000000600052602260045260246000fd5b6000600282049050600182168061076357607f821691505b6020821081036107765761077561071c565b5b50919050565b60008190508160005260206000209050919050565b60006020601f8301049050919050565b600082821b905092915050565b6000600883026107de7fffffffffffffffffffffffffffffffffffffffffffffffffffffffffffffffff826107a1565b6107e886836107a1565b95508019841693508086168417925050509392505050565b6000819050919050565b600061082561082061081b84610478565b610800565b610478565b9050919050565b6000819050919050565b61083f8361080a565b61085361084b8261082c565b8484546107ae565b825550505050565b600090565b61086861085b565b610873818484610836565b505050565b5b818110156108975761088c600082610860565b600181019050610879565b5050565b601f8211156108dc576108ad8161077c565b6108b684610791565b810160208510156108c5578190505b6108d96108d185610791565b830182610878565b50505b505050565b600082821c905092915050565b60006108ff600019846008026108e1565b1980831691505092915050565b600061091883836108ee565b9150826002028217905092915050565b61093182610553565b67ffffffffffffffff81111561094a5761094961034d565b5b610954825461074b565b61095f82828561089b565b600060209050601f8311600181146109925760008415610980578287015190505b61098a858261090c565b8655506109f2565b601f1984166109a08661077c565b60005b828110156109c8578489015182556001820191506020850194506020810190506109a3565b868310156109e557848901516109e1601f8916826108ee565b8355505b6001600288020188555050505b50505050505056fea2646970667358221220d5346d3251b967532884ff8b372dfadccf731b6c6edc126fd4f6e984f03640a064736f6c63430008130033",
					"opcodes": "PUSH1 0x80 PUSH1 0x40 MSTORE CALLVALUE DUP1 ISZERO PUSH2 0x10 JUMPI PUSH1 0x0 DUP1 REVERT JUMPDEST POP PUSH2 0xA30 DUP1 PUSH2 0x20 PUSH1 0x0 CODECOPY PUSH1 0x0 RETURN INVALID PUSH1 0x80 PUSH1 0x40 MSTORE CALLVALUE DUP1 ISZERO PUSH2 0x10 JUMPI PUSH1 0x0 DUP1 REVERT JUMPDEST POP PUSH1 0x4 CALLDATASIZE LT PUSH2 0x4C JUMPI PUSH1 0x0 CALLDATALOAD PUSH1 0xE0 SHR DUP1 PUSH4 0x15AF09C0 EQ PUSH2 0x51 JUMPI DUP1 PUSH4 0x1C5220C2 EQ PUSH2 0x6D JUMPI DUP1 PUSH4 0x31FEB671 EQ PUSH2 0x89 JUMPI DUP1 PUSH4 0x689E1C03 EQ PUSH2 0xB9 JUMPI JUMPDEST PUSH1 0x0 DUP1 REVERT JUMPDEST PUSH2 0x6B PUSH1 0x4 DUP1 CALLDATASIZE SUB DUP2 ADD SWAP1 PUSH2 0x66 SWAP2 SWAP1 PUSH2 0x4AE JUMP JUMPDEST PUSH2 0xEA JUMP JUMPDEST STOP JUMPDEST PUSH2 0x87 PUSH1 0x4 DUP1 CALLDATASIZE SUB DUP2 ADD SWAP1 PUSH2 0x82 SWAP2 SWAP1 PUSH2 0x4AE JUMP JUMPDEST PUSH2 0x114 JUMP JUMPDEST STOP JUMPDEST PUSH2 0xA3 PUSH1 0x4 DUP1 CALLDATASIZE SUB DUP2 ADD SWAP1 PUSH2 0x9E SWAP2 SWAP1 PUSH2 0x50A JUMP JUMPDEST PUSH2 0x16E JUMP JUMPDEST PUSH1 0x40 MLOAD PUSH2 0xB0 SWAP2 SWAP1 PUSH2 0x61E JUMP JUMPDEST PUSH1 0x40 MLOAD DUP1 SWAP2 SUB SWAP1 RETURN JUMPDEST PUSH2 0xD3 PUSH1 0x4 DUP1 CALLDATASIZE SUB DUP2 ADD SWAP1 PUSH2 0xCE SWAP2 SWAP1 PUSH2 0x50A JUMP JUMPDEST PUSH2 0x242 JUMP JUMPDEST PUSH1 0x40 MLOAD PUSH2 0xE1 SWAP3 SWAP2 SWAP1 PUSH2 0x699 JUMP JUMPDEST PUSH1 0x40 MLOAD DUP1 SWAP2 SUB SWAP1 RETURN JUMPDEST DUP1 PUSH1 0x0 DUP4 PUSH1 0x40 MLOAD PUSH2 0xFB SWAP2 SWAP1 PUSH2 0x705 JUMP JUMPDEST SWAP1 DUP2 MSTORE PUSH1 0x20 ADD PUSH1 0x40 MLOAD DUP1 SWAP2 SUB SWAP1 KECCAK256 PUSH1 0x1 ADD DUP2 SWAP1 SSTORE POP POP POP JUMP JUMPDEST PUSH1 0x40 MLOAD DUP1 PUSH1 0x40 ADD PUSH1 0x40 MSTORE DUP1 DUP4 DUP2 MSTORE PUSH1 0x20 ADD DUP3 DUP2 MSTORE POP PUSH1 0x0 DUP4 PUSH1 0x40 MLOAD PUSH2 0x139 SWAP2 SWAP1 PUSH2 0x705 JUMP JUMPDEST SWAP1 DUP2 MSTORE PUSH1 0x20 ADD PUSH1 0x40 MLOAD DUP1 SWAP2 SUB SWAP1 KECCAK256 PUSH1 0x0 DUP3 ADD MLOAD DUP2 PUSH1 0x0 ADD SWAP1 DUP2 PUSH2 0x15C SWAP2 SWAP1 PUSH2 0x928 JUMP JUMPDEST POP PUSH1 0x20 DUP3 ADD MLOAD DUP2 PUSH1 0x1 ADD SSTORE SWAP1 POP POP POP POP JUMP JUMPDEST PUSH2 0x176 PUSH2 0x304 JUMP JUMPDEST PUSH1 0x0 DUP3 PUSH1 0x40 MLOAD PUSH2 0x186 SWAP2 SWAP1 PUSH2 0x705 JUMP JUMPDEST SWAP1 DUP2 MSTORE PUSH1 0x20 ADD PUSH1 0x40 MLOAD DUP1 SWAP2 SUB SWAP1 KECCAK256 PUSH1 0x40 MLOAD DUP1 PUSH1 0x40 ADD PUSH1 0x40 MSTORE SWAP1 DUP2 PUSH1 0x0 DUP3 ADD DUP1 SLOAD PUSH2 0x1AF SWAP1 PUSH2 0x74B JUMP JUMPDEST DUP1 PUSH1 0x1F ADD PUSH1 0x20 DUP1 SWAP2 DIV MUL PUSH1 0x20 ADD PUSH1 0x40 MLOAD SWAP1 DUP2 ADD PUSH1 0x40 MSTORE DUP1 SWAP3 SWAP2 SWAP1 DUP2 DUP2 MSTORE PUSH1 0x20 ADD DUP3 DUP1 SLOAD PUSH2 0x1DB SWAP1 PUSH2 0x74B JUMP JUMPDEST DUP1 ISZERO PUSH2 0x228 JUMPI DUP1 PUSH1 0x1F LT PUSH2 0x1FD JUMPI PUSH2 0x100 DUP1 DUP4 SLOAD DIV MUL DUP4 MSTORE SWAP2 PUSH1 0x20 ADD SWAP2 PUSH2 0x228 JUMP JUMPDEST DUP3 ADD SWAP2 SWAP1 PUSH1 0x0 MSTORE PUSH1 0x20 PUSH1 0x0 KECCAK256 SWAP1 JUMPDEST DUP2 SLOAD DUP2 MSTORE SWAP1 PUSH1 0x1 ADD SWAP1 PUSH1 0x20 ADD DUP1 DUP4 GT PUSH2 0x20B JUMPI DUP3 SWAP1 SUB PUSH1 0x1F AND DUP3 ADD SWAP2 JUMPDEST POP POP POP POP POP DUP2 MSTORE PUSH1 0x20 ADD PUSH1 0x1 DUP3 ADD SLOAD DUP2 MSTORE POP POP SWAP1 POP SWAP2 SWAP1 POP JUMP JUMPDEST PUSH1 0x0 DUP2 DUP1 MLOAD PUSH1 0x20 DUP2 ADD DUP3 ADD DUP1 MLOAD DUP5 DUP3 MSTORE PUSH1 0x20 DUP4 ADD PUSH1 0x20 DUP6 ADD KECCAK256 DUP2 DUP4 MSTORE DUP1 SWAP6 POP POP POP POP POP POP PUSH1 0x0 SWAP2 POP SWAP1 POP DUP1 PUSH1 0x0 ADD DUP1 SLOAD PUSH2 0x27B SWAP1 PUSH2 0x74B JUMP JUMPDEST DUP1 PUSH1 0x1F ADD PUSH1 0x20 DUP1 SWAP2 DIV MUL PUSH1 0x20 ADD PUSH1 0x40 MLOAD SWAP1 DUP2 ADD PUSH1 0x40 MSTORE DUP1 SWAP3 SWAP2 SWAP1 DUP2 DUP2 MSTORE PUSH1 0x20 ADD DUP3 DUP1 SLOAD PUSH2 0x2A7 SWAP1 PUSH2 0x74B JUMP JUMPDEST DUP1 ISZERO PUSH2 0x2F4 JUMPI DUP1 PUSH1 0x1F LT PUSH2 0x2C9 JUMPI PUSH2 0x100 DUP1 DUP4 SLOAD DIV MUL DUP4 MSTORE SWAP2 PUSH1 0x20 ADD SWAP2 PUSH2 0x2F4 JUMP JUMPDEST DUP3 ADD SWAP2 SWAP1 PUSH1 0x0 MSTORE PUSH1 0x20 PUSH1 0x0 KECCAK256 SWAP1 JUMPDEST DUP2 SLOAD DUP2 MSTORE SWAP1 PUSH1 0x1 ADD SWAP1 PUSH1 0x20 ADD DUP1 DUP4 GT PUSH2 0x2D7 JUMPI DUP3 SWAP1 SUB PUSH1 0x1F AND DUP3 ADD SWAP2 JUMPDEST POP POP POP POP POP SWAP1 DUP1 PUSH1 0x1 ADD SLOAD SWAP1 POP DUP3 JUMP JUMPDEST PUSH1 0x40 MLOAD DUP1 PUSH1 0x40 ADD PUSH1 0x40 MSTORE DUP1 PUSH1 0x60 DUP2 MSTORE PUSH1 0x20 ADD PUSH1 0x0 DUP2 MSTORE POP SWAP1 JUMP JUMPDEST PUSH1 0x0 PUSH1 0x40 MLOAD SWAP1 POP SWAP1 JUMP JUMPDEST PUSH1 0x0 DUP1 REVERT JUMPDEST PUSH1 0x0 DUP1 REVERT JUMPDEST PUSH1 0x0 DUP1 REVERT JUMPDEST PUSH1 0x0 DUP1 REVERT JUMPDEST PUSH1 0x0 PUSH1 0x1F NOT PUSH1 0x1F DUP4 ADD AND SWAP1 POP SWAP2 SWAP1 POP JUMP JUMPDEST PUSH32 0x4E487B7100000000000000000000000000000000000000000000000000000000 PUSH1 0x0 MSTORE PUSH1 0x41 PUSH1 0x4 MSTORE PUSH1 0x24 PUSH1 0x0 REVERT JUMPDEST PUSH2 0x385 DUP3 PUSH2 0x33C JUMP JUMPDEST DUP2 ADD DUP2 DUP2 LT PUSH8 0xFFFFFFFFFFFFFFFF DUP3 GT OR ISZERO PUSH2 0x3A4 JUMPI PUSH2 0x3A3 PUSH2 0x34D JUMP JUMPDEST JUMPDEST DUP1 PUSH1 0x40 MSTORE POP POP POP JUMP JUMPDEST PUSH1 0x0 PUSH2 0x3B7 PUSH2 0x31E JUMP JUMPDEST SWAP1 POP PUSH2 0x3C3 DUP3 DUP3 PUSH2 0x37C JUMP JUMPDEST SWAP2 SWAP1 POP JUMP JUMPDEST PUSH1 0x0 PUSH8 0xFFFFFFFFFFFFFFFF DUP3 GT ISZERO PUSH2 0x3E3 JUMPI PUSH2 0x3E2 PUSH2 0x34D JUMP JUMPDEST JUMPDEST PUSH2 0x3EC DUP3 PUSH2 0x33C JUMP JUMPDEST SWAP1 POP PUSH1 0x20 DUP2 ADD SWAP1 POP SWAP2 SWAP1 POP JUMP JUMPDEST DUP3 DUP2 DUP4 CALLDATACOPY PUSH1 0x0 DUP4 DUP4 ADD MSTORE POP POP POP JUMP JUMPDEST PUSH1 0x0 PUSH2 0x41B PUSH2 0x416 DUP5 PUSH2 0x3C8 JUMP JUMPDEST PUSH2 0x3AD JUMP JUMPDEST SWAP1 POP DUP3 DUP2 MSTORE PUSH1 0x20 DUP2 ADD DUP5 DUP5 DUP5 ADD GT ISZERO PUSH2 0x437 JUMPI PUSH2 0x436 PUSH2 0x337 JUMP JUMPDEST JUMPDEST PUSH2 0x442 DUP5 DUP3 DUP6 PUSH2 0x3F9 JUMP JUMPDEST POP SWAP4 SWAP3 POP POP POP JUMP JUMPDEST PUSH1 0x0 DUP3 PUSH1 0x1F DUP4 ADD SLT PUSH2 0x45F JUMPI PUSH2 0x45E PUSH2 0x332 JUMP JUMPDEST JUMPDEST DUP2 CALLDATALOAD PUSH2 0x46F DUP5 DUP3 PUSH1 0x20 DUP7 ADD PUSH2 0x408 JUMP JUMPDEST SWAP2 POP POP SWAP3 SWAP2 POP POP JUMP JUMPDEST PUSH1 0x0 DUP2 SWAP1 POP SWAP2 SWAP1 POP JUMP JUMPDEST PUSH2 0x48B DUP2 PUSH2 0x478 JUMP JUMPDEST DUP2 EQ PUSH2 0x496 JUMPI PUSH1 0x0 DUP1 REVERT JUMPDEST POP JUMP JUMPDEST PUSH1 0x0 DUP2 CALLDATALOAD SWAP1 POP PUSH2 0x4A8 DUP2 PUSH2 0x482 JUMP JUMPDEST SWAP3 SWAP2 POP POP JUMP JUMPDEST PUSH1 0x0 DUP1 PUSH1 0x40 DUP4 DUP6 SUB SLT ISZERO PUSH2 0x4C5 JUMPI PUSH2 0x4C4 PUSH2 0x328 JUMP JUMPDEST JUMPDEST PUSH1 0x0 DUP4 ADD CALLDATALOAD PUSH8 0xFFFFFFFFFFFFFFFF DUP2 GT ISZERO PUSH2 0x4E3 JUMPI PUSH2 0x4E2 PUSH2 0x32D JUMP JUMPDEST JUMPDEST PUSH2 0x4EF DUP6 DUP3 DUP7 ADD PUSH2 0x44A JUMP JUMPDEST SWAP3 POP POP PUSH1 0x20 PUSH2 0x500 DUP6 DUP3 DUP7 ADD PUSH2 0x499 JUMP JUMPDEST SWAP2 POP POP SWAP3 POP SWAP3 SWAP1 POP JUMP JUMPDEST PUSH1 0x0 PUSH1 0x20 DUP3 DUP5 SUB SLT ISZERO PUSH2 0x520 JUMPI PUSH2 0x51F PUSH2 0x328 JUMP JUMPDEST JUMPDEST PUSH1 0x0 DUP3 ADD CALLDATALOAD PUSH8 0xFFFFFFFFFFFFFFFF DUP2 GT ISZERO PUSH2 0x53E JUMPI PUSH2 0x53D PUSH2 0x32D JUMP JUMPDEST JUMPDEST PUSH2 0x54A DUP5 DUP3 DUP6 ADD PUSH2 0x44A JUMP JUMPDEST SWAP2 POP POP SWAP3 SWAP2 POP POP JUMP JUMPDEST PUSH1 0x0 DUP2 MLOAD SWAP1 POP SWAP2 SWAP1 POP JUMP JUMPDEST PUSH1 0x0 DUP3 DUP3 MSTORE PUSH1 0x20 DUP3 ADD SWAP1 POP SWAP3 SWAP2 POP POP JUMP JUMPDEST PUSH1 0x0 JUMPDEST DUP4 DUP2 LT ISZERO PUSH2 0x58D JUMPI DUP1 DUP3 ADD MLOAD DUP2 DUP5 ADD MSTORE PUSH1 0x20 DUP2 ADD SWAP1 POP PUSH2 0x572 JUMP JUMPDEST PUSH1 0x0 DUP5 DUP5 ADD MSTORE POP POP POP POP JUMP JUMPDEST PUSH1 0x0 PUSH2 0x5A4 DUP3 PUSH2 0x553 JUMP JUMPDEST PUSH2 0x5AE DUP2 DUP6 PUSH2 0x55E JUMP JUMPDEST SWAP4 POP PUSH2 0x5BE DUP2 DUP6 PUSH1 0x20 DUP7 ADD PUSH2 0x56F JUMP JUMPDEST PUSH2 0x5C7 DUP2 PUSH2 0x33C JUMP JUMPDEST DUP5 ADD SWAP2 POP POP SWAP3 SWAP2 POP POP JUMP JUMPDEST PUSH2 0x5DB DUP2 PUSH2 0x478 JUMP JUMPDEST DUP3 MSTORE POP POP JUMP JUMPDEST PUSH1 0x0 PUSH1 0x40 DUP4 ADD PUSH1 0x0 DUP4 ADD MLOAD DUP5 DUP3 SUB PUSH1 0x0 DUP7 ADD MSTORE PUSH2 0x5FE DUP3 DUP3 PUSH2 0x599 JUMP JUMPDEST SWAP2 POP POP PUSH1 0x20 DUP4 ADD MLOAD PUSH2 0x613 PUSH1 0x20 DUP7 ADD DUP3 PUSH2 0x5D2 JUMP JUMPDEST POP DUP1 SWAP2 POP POP SWAP3 SWAP2 POP POP JUMP JUMPDEST PUSH1 0x0 PUSH1 0x20 DUP3 ADD SWAP1 POP DUP2 DUP2 SUB PUSH1 0x0 DUP4 ADD MSTORE PUSH2 0x638 DUP2 DUP5 PUSH2 0x5E1 JUMP JUMPDEST SWAP1 POP SWAP3 SWAP2 POP POP JUMP JUMPDEST PUSH1 0x0 DUP3 DUP3 MSTORE PUSH1 0x20 DUP3 ADD SWAP1 POP SWAP3 SWAP2 POP POP JUMP JUMPDEST PUSH1 0x0 PUSH2 0x65C DUP3 PUSH2 0x553 JUMP JUMPDEST PUSH2 0x666 DUP2 DUP6 PUSH2 0x640 JUMP JUMPDEST SWAP4 POP PUSH2 0x676 DUP2 DUP6 PUSH1 0x20 DUP7 ADD PUSH2 0x56F JUMP JUMPDEST PUSH2 0x67F DUP2 PUSH2 0x33C JUMP JUMPDEST DUP5 ADD SWAP2 POP POP SWAP3 SWAP2 POP POP JUMP JUMPDEST PUSH2 0x693 DUP2 PUSH2 0x478 JUMP JUMPDEST DUP3 MSTORE POP POP JUMP JUMPDEST PUSH1 0x0 PUSH1 0x40 DUP3 ADD SWAP1 POP DUP2 DUP2 SUB PUSH1 0x0 DUP4 ADD MSTORE PUSH2 0x6B3 DUP2 DUP6 PUSH2 0x651 JUMP JUMPDEST SWAP1 POP PUSH2 0x6C2 PUSH1 0x20 DUP4 ADD DUP5 PUSH2 0x68A JUMP JUMPDEST SWAP4 SWAP3 POP POP POP JUMP JUMPDEST PUSH1 0x0 DUP2 SWAP1 POP SWAP3 SWAP2 POP POP JUMP JUMPDEST PUSH1 0x0 PUSH2 0x6DF DUP3 PUSH2 0x553 JUMP JUMPDEST PUSH2 0x6E9 DUP2 DUP6 PUSH2 0x6C9 JUMP JUMPDEST SWAP4 POP PUSH2 0x6F9 DUP2 DUP6 PUSH1 0x20 DUP7 ADD PUSH2 0x56F JUMP JUMPDEST DUP1 DUP5 ADD SWAP2 POP POP SWAP3 SWAP2 POP POP JUMP JUMPDEST PUSH1 0x0 PUSH2 0x711 DUP3 DUP5 PUSH2 0x6D4 JUMP JUMPDEST SWAP2 POP DUP2 SWAP1 POP SWAP3 SWAP2 POP POP JUMP JUMPDEST PUSH32 0x4E487B7100000000000000000000000000000000000000000000000000000000 PUSH1 0x0 MSTORE PUSH1 0x22 PUSH1 0x4 MSTORE PUSH1 0x24 PUSH1 0x0 REVERT JUMPDEST PUSH1 0x0 PUSH1 0x2 DUP3 DIV SWAP1 POP PUSH1 0x1 DUP3 AND DUP1 PUSH2 0x763 JUMPI PUSH1 0x7F DUP3 AND SWAP2 POP JUMPDEST PUSH1 0x20 DUP3 LT DUP2 SUB PUSH2 0x776 JUMPI PUSH2 0x775 PUSH2 0x71C JUMP JUMPDEST JUMPDEST POP SWAP2 SWAP1 POP JUMP JUMPDEST PUSH1 0x0 DUP2 SWAP1 POP DUP2 PUSH1 0x0 MSTORE PUSH1 0x20 PUSH1 0x0 KECCAK256 SWAP1 POP SWAP2 SWAP1 POP JUMP JUMPDEST PUSH1 0x0 PUSH1 0x20 PUSH1 0x1F DUP4 ADD DIV SWAP1 POP SWAP2 SWAP1 POP JUMP JUMPDEST PUSH1 0x0 DUP3 DUP3 SHL SWAP1 POP SWAP3 SWAP2 POP POP JUMP JUMPDEST PUSH1 0x0 PUSH1 0x8 DUP4 MUL PUSH2 0x7DE PUSH32 0xFFFFFFFFFFFFFFFFFFFFFFFFFFFFFFFFFFFFFFFFFFFFFFFFFFFFFFFFFFFFFFFF DUP3 PUSH2 0x7A1 JUMP JUMPDEST PUSH2 0x7E8 DUP7 DUP4 PUSH2 0x7A1 JUMP JUMPDEST SWAP6 POP DUP1 NOT DUP5 AND SWAP4 POP DUP1 DUP7 AND DUP5 OR SWAP3 POP POP POP SWAP4 SWAP3 POP POP POP JUMP JUMPDEST PUSH1 0x0 DUP2 SWAP1 POP SWAP2 SWAP1 POP JUMP JUMPDEST PUSH1 0x0 PUSH2 0x825 PUSH2 0x820 PUSH2 0x81B DUP5 PUSH2 0x478 JUMP JUMPDEST PUSH2 0x800 JUMP JUMPDEST PUSH2 0x478 JUMP JUMPDEST SWAP1 POP SWAP2 SWAP1 POP JUMP JUMPDEST PUSH1 0x0 DUP2 SWAP1 POP SWAP2 SWAP1 POP JUMP JUMPDEST PUSH2 0x83F DUP4 PUSH2 0x80A JUMP JUMPDEST PUSH2 0x853 PUSH2 0x84B DUP3 PUSH2 0x82C JUMP JUMPDEST DUP5 DUP5 SLOAD PUSH2 0x7AE JUMP JUMPDEST DUP3 SSTORE POP POP POP POP JUMP JUMPDEST PUSH1 0x0 SWAP1 JUMP JUMPDEST PUSH2 0x868 PUSH2 0x85B JUMP JUMPDEST PUSH2 0x873 DUP2 DUP5 DUP5 PUSH2 0x836 JUMP JUMPDEST POP POP POP JUMP JUMPDEST JUMPDEST DUP2 DUP2 LT ISZERO PUSH2 0x897 JUMPI PUSH2 0x88C PUSH1 0x0 DUP3 PUSH2 0x860 JUMP JUMPDEST PUSH1 0x1 DUP2 ADD SWAP1 POP PUSH2 0x879 JUMP JUMPDEST POP POP JUMP JUMPDEST PUSH1 0x1F DUP3 GT ISZERO PUSH2 0x8DC JUMPI PUSH2 0x8AD DUP2 PUSH2 0x77C JUMP JUMPDEST PUSH2 0x8B6 DUP5 PUSH2 0x791 JUMP JUMPDEST DUP2 ADD PUSH1 0x20 DUP6 LT ISZERO PUSH2 0x8C5 JUMPI DUP2 SWAP1 POP JUMPDEST PUSH2 0x8D9 PUSH2 0x8D1 DUP6 PUSH2 0x791 JUMP JUMPDEST DUP4 ADD DUP3 PUSH2 0x878 JUMP JUMPDEST POP POP JUMPDEST POP POP POP JUMP JUMPDEST PUSH1 0x0 DUP3 DUP3 SHR SWAP1 POP SWAP3 SWAP2 POP POP JUMP JUMPDEST PUSH1 0x0 PUSH2 0x8FF PUSH1 0x0 NOT DUP5 PUSH1 0x8 MUL PUSH2 0x8E1 JUMP JUMPDEST NOT DUP1 DUP4 AND SWAP2 POP POP SWAP3 SWAP2 POP POP JUMP JUMPDEST PUSH1 0x0 PUSH2 0x918 DUP4 DUP4 PUSH2 0x8EE JUMP JUMPDEST SWAP2 POP DUP3 PUSH1 0x2 MUL DUP3 OR SWAP1 POP SWAP3 SWAP2 POP POP JUMP JUMPDEST PUSH2 0x931 DUP3 PUSH2 0x553 JUMP JUMPDEST PUSH8 0xFFFFFFFFFFFFFFFF DUP2 GT ISZERO PUSH2 0x94A JUMPI PUSH2 0x949 PUSH2 0x34D JUMP JUMPDEST JUMPDEST PUSH2 0x954 DUP3 SLOAD PUSH2 0x74B JUMP JUMPDEST PUSH2 0x95F DUP3 DUP3 DUP6 PUSH2 0x89B JUMP JUMPDEST PUSH1 0x0 PUSH1 0x20 SWAP1 POP PUSH1 0x1F DUP4 GT PUSH1 0x1 DUP2 EQ PUSH2 0x992 JUMPI PUSH1 0x0 DUP5 ISZERO PUSH2 0x980 JUMPI DUP3 DUP8 ADD MLOAD SWAP1 POP JUMPDEST PUSH2 0x98A DUP6 DUP3 PUSH2 0x90C JUMP JUMPDEST DUP7 SSTORE POP PUSH2 0x9F2 JUMP JUMPDEST PUSH1 0x1F NOT DUP5 AND PUSH2 0x9A0 DUP7 PUSH2 0x77C JUMP JUMPDEST PUSH1 0x0 JUMPDEST DUP3 DUP2 LT ISZERO PUSH2 0x9C8 JUMPI DUP5 DUP10 ADD MLOAD DUP3 SSTORE PUSH1 0x1 DUP3 ADD SWAP2 POP PUSH1 0x20 DUP6 ADD SWAP5 POP PUSH1 0x20 DUP2 ADD SWAP1 POP PUSH2 0x9A3 JUMP JUMPDEST DUP7 DUP4 LT ISZERO PUSH2 0x9E5 JUMPI DUP5 DUP10 ADD MLOAD PUSH2 0x9E1 PUSH1 0x1F DUP10 AND DUP3 PUSH2 0x8EE JUMP JUMPDEST DUP4 SSTORE POP JUMPDEST PUSH1 0x1 PUSH1 0x2 DUP9 MUL ADD DUP9 SSTORE POP POP POP JUMPDEST POP POP POP POP POP POP JUMP INVALID LOG2 PUSH5 0x6970667358 0x22 SLT KECCAK256 0xD5 CALLVALUE PUSH14 0x3251B967532884FF8B372DFADCCF PUSH20 0x1B6C6EDC126FD4F6E984F03640A064736F6C6343 STOP ADDMOD SGT STOP CALLER "
				},
				"gasEstimates": {
					"creation": {
						"codeDepositCost": "521600",
						"executionCost": "556",
						"totalCost": "522156"
					},
					"external": {
						"addUser(string,uint256)": "infinite",
						"getUser(string)": "infinite",
						"updateAge(string,uint256)": "infinite",
						"users(string)": "infinite"
					}
				},
				"methodIdentifiers": {
					"addUser(string,uint256)": "1c5220c2",
					"getUser(string)": "31feb671",
					"updateAge(string,uint256)": "15af09c0",
					"users(string)": "689e1c03"
				}
			},
			"storageLayout": {
				"storage": [
					{
						"astId": 11,
						"contract": "fifthExampleMappingStruct.sol:UserProfiles",
						"label": "users",
						"offset": 0,
						"slot": "0",
						"type": "t_mapping(t_string_memory_ptr,t_struct(User)6_storage)"
					}
				],
				"types": {
					"t_mapping(t_string_memory_ptr,t_struct(User)6_storage)": {
						"encoding": "mapping",
						"key": "t_string_memory_ptr",
						"label": "mapping(string => struct UserProfiles.User)",
						"numberOfBytes": "32",
						"value": "t_struct(User)6_storage"
					},
					"t_string_memory_ptr": {
						"encoding": "bytes",
						"label": "string",
						"numberOfBytes": "32"
					},
					"t_string_storage": {
						"encoding": "bytes",
						"label": "string",
						"numberOfBytes": "32"
					},
					"t_struct(User)6_storage": {
						"encoding": "inplace",
						"label": "struct UserProfiles.User",
						"members": [
							{
								"astId": 3,
								"contract": "fifthExampleMappingStruct.sol:UserProfiles",
								"label": "name",
								"offset": 0,
								"slot": "0",
								"type": "t_string_storage"
							},
							{
								"astId": 5,
								"contract": "fifthExampleMappingStruct.sol:UserProfiles",
								"label": "age",
								"offset": 0,
								"slot": "1",
								"type": "t_uint256"
							}
						],
						"numberOfBytes": "64"
					},
					"t_uint256": {
						"encoding": "inplace",
						"label": "uint256",
						"numberOfBytes": "32"
					}
				}
			},
			"userdoc": {
				"kind": "user",
				"methods": {},
				"version": 1
			}
		}
	}
}