{
	"secondExample.sol": {
		"Zoo": {
			"abi": [
				{
					"inputs": [
						{
							"internalType": "string",
							"name": "_name",
							"type": "string"
						},
						{
							"internalType": "int256",
							"name": "age",
							"type": "int256"
						}
					],
					"name": "addAnimal",
					"outputs": [],
					"stateMutability": "nonpayable",
					"type": "function"
				},
				{
					"inputs": [],
					"name": "animal1",
					"outputs": [
						{
							"internalType": "string",
							"name": "name",
							"type": "string"
						},
						{
							"internalType": "int256",
							"name": "age",
							"type": "int256"
						}
					],
					"stateMutability": "view",
					"type": "function"
				},
				{
					"inputs": [],
					"name": "animal2",
					"outputs": [
						{
							"internalType": "string",
							"name": "name",
							"type": "string"
						},
						{
							"internalType": "int256",
							"name": "age",
							"type": "int256"
						}
					],
					"stateMutability": "view",
					"type": "function"
				},
				{
					"inputs": [],
					"name": "animal3",
					"outputs": [
						{
							"internalType": "string",
							"name": "name",
							"type": "string"
						},
						{
							"internalType": "int256",
							"name": "age",
							"type": "int256"
						}
					],
					"stateMutability": "view",
					"type": "function"
				},
				{
					"inputs": [
						{
							"internalType": "uint256",
							"name": "",
							"type": "uint256"
						}
					],
					"name": "listOfAnimal",
					"outputs": [
						{
							"internalType": "string",
							"name": "name",
							"type": "string"
						},
						{
							"internalType": "int256",
							"name": "age",
							"type": "int256"
						}
					],
					"stateMutability": "view",
					"type": "function"
				}
			],
			"devdoc": {
				"kind": "dev",
				"methods": {},
				"version": 1
			},
			"evm": {
				"assembly": "    /* \"secondExample.sol\":61:568  contract Zoo {... */\n  mstore(0x40, 0x80)\n    /* \"secondExample.sol\":174:195  Animal(\"Geraffe\", 25) */\n  mload(0x40)\n  dup1\n  0x40\n  add\n  0x40\n  mstore\n  dup1\n  mload(0x40)\n  dup1\n  0x40\n  add\n  0x40\n  mstore\n  dup1\n  0x07\n  dup2\n  mstore\n  0x20\n  add\n  0x4765726166666500000000000000000000000000000000000000000000000000\n  dup2\n  mstore\n  pop\n  dup2\n  mstore\n  0x20\n  add\n    /* \"secondExample.sol\":192:194  25 */\n  0x19\n    /* \"secondExample.sol\":174:195  Animal(\"Geraffe\", 25) */\n  dup2\n  mstore\n  pop\n    /* \"secondExample.sol\":150:195  Animal public animal1 = Animal(\"Geraffe\", 25) */\n  0x00\n  dup1\n  dup3\n  add\n  mload\n  dup2\n  0x00\n  add\n  swap1\n  dup2\n  tag_1\n  swap2\n  swap1\n  tag_2\n  jump\t// in\ntag_1:\n  pop\n  0x20\n  dup3\n  add\n  mload\n  dup2\n  0x01\n  add\n  sstore\n  pop\n  pop\n    /* \"secondExample.sol\":226:244  Animal(\"Lion\", 22) */\n  mload(0x40)\n  dup1\n  0x40\n  add\n  0x40\n  mstore\n  dup1\n  mload(0x40)\n  dup1\n  0x40\n  add\n  0x40\n  mstore\n  dup1\n  0x04\n  dup2\n  mstore\n  0x20\n  add\n  0x4c696f6e00000000000000000000000000000000000000000000000000000000\n  dup2\n  mstore\n  pop\n  dup2\n  mstore\n  0x20\n  add\n    /* \"secondExample.sol\":241:243  22 */\n  0x16\n    /* \"secondExample.sol\":226:244  Animal(\"Lion\", 22) */\n  dup2\n  mstore\n  pop\n    /* \"secondExample.sol\":202:244  Animal public animal2 = Animal(\"Lion\", 22) */\n  0x02\n  0x00\n  dup3\n  add\n  mload\n  dup2\n  0x00\n  add\n  swap1\n  dup2\n  tag_3\n  swap2\n  swap1\n  tag_2\n  jump\t// in\ntag_3:\n  pop\n  0x20\n  dup3\n  add\n  mload\n  dup2\n  0x01\n  add\n  sstore\n  pop\n  pop\n    /* \"secondExample.sol\":275:292  Animal(\"Krot\", 2) */\n  mload(0x40)\n  dup1\n  0x40\n  add\n  0x40\n  mstore\n  dup1\n  mload(0x40)\n  dup1\n  0x40\n  add\n  0x40\n  mstore\n  dup1\n  0x04\n  dup2\n  mstore\n  0x20\n  add\n  0x4b726f7400000000000000000000000000000000000000000000000000000000\n  dup2\n  mstore\n  pop\n  dup2\n  mstore\n  0x20\n  add\n    /* \"secondExample.sol\":290:291  2 */\n  0x02\n    /* \"secondExample.sol\":275:292  Animal(\"Krot\", 2) */\n  dup2\n  mstore\n  pop\n    /* \"secondExample.sol\":251:292  Animal public animal3 = Animal(\"Krot\", 2) */\n  0x04\n  0x00\n  dup3\n  add\n  mload\n  dup2\n  0x00\n  add\n  swap1\n  dup2\n  tag_4\n  swap2\n  swap1\n  tag_2\n  jump\t// in\ntag_4:\n  pop\n  0x20\n  dup3\n  add\n  mload\n  dup2\n  0x01\n  add\n  sstore\n  pop\n  pop\n    /* \"secondExample.sol\":61:568  contract Zoo {... */\n  callvalue\n  dup1\n  iszero\n  tag_5\n  jumpi\n  0x00\n  dup1\n  revert\ntag_5:\n  pop\n  jump(tag_6)\n    /* \"#utility.yul\":7:106   */\ntag_7:\n    /* \"#utility.yul\":59:65   */\n  0x00\n    /* \"#utility.yul\":93:98   */\n  dup2\n    /* \"#utility.yul\":87:99   */\n  mload\n    /* \"#utility.yul\":77:99   */\n  swap1\n  pop\n    /* \"#utility.yul\":7:106   */\n  swap2\n  swap1\n  pop\n  jump\t// out\n    /* \"#utility.yul\":112:292   */\ntag_8:\n    /* \"#utility.yul\":160:237   */\n  0x4e487b7100000000000000000000000000000000000000000000000000000000\n    /* \"#utility.yul\":157:158   */\n  0x00\n    /* \"#utility.yul\":150:238   */\n  mstore\n    /* \"#utility.yul\":257:261   */\n  0x41\n    /* \"#utility.yul\":254:255   */\n  0x04\n    /* \"#utility.yul\":247:262   */\n  mstore\n    /* \"#utility.yul\":281:285   */\n  0x24\n    /* \"#utility.yul\":278:279   */\n  0x00\n    /* \"#utility.yul\":271:286   */\n  revert\n    /* \"#utility.yul\":298:478   */\ntag_9:\n    /* \"#utility.yul\":346:423   */\n  0x4e487b7100000000000000000000000000000000000000000000000000000000\n    /* \"#utility.yul\":343:344   */\n  0x00\n    /* \"#utility.yul\":336:424   */\n  mstore\n    /* \"#utility.yul\":443:447   */\n  0x22\n    /* \"#utility.yul\":440:441   */\n  0x04\n    /* \"#utility.yul\":433:448   */\n  mstore\n    /* \"#utility.yul\":467:471   */\n  0x24\n    /* \"#utility.yul\":464:465   */\n  0x00\n    /* \"#utility.yul\":457:472   */\n  revert\n    /* \"#utility.yul\":484:804   */\ntag_10:\n    /* \"#utility.yul\":528:534   */\n  0x00\n    /* \"#utility.yul\":565:566   */\n  0x02\n    /* \"#utility.yul\":559:563   */\n  dup3\n    /* \"#utility.yul\":555:567   */\n  div\n    /* \"#utility.yul\":545:567   */\n  swap1\n  pop\n    /* \"#utility.yul\":612:613   */\n  0x01\n    /* \"#utility.yul\":606:610   */\n  dup3\n    /* \"#utility.yul\":602:614   */\n  and\n    /* \"#utility.yul\":633:651   */\n  dup1\n    /* \"#utility.yul\":623:704   */\n  tag_32\n  jumpi\n    /* \"#utility.yul\":689:693   */\n  0x7f\n    /* \"#utility.yul\":681:687   */\n  dup3\n    /* \"#utility.yul\":677:694   */\n  and\n    /* \"#utility.yul\":667:694   */\n  swap2\n  pop\n    /* \"#utility.yul\":623:704   */\ntag_32:\n    /* \"#utility.yul\":751:753   */\n  0x20\n    /* \"#utility.yul\":743:749   */\n  dup3\n    /* \"#utility.yul\":740:754   */\n  lt\n    /* \"#utility.yul\":720:738   */\n  dup2\n    /* \"#utility.yul\":717:755   */\n  sub\n    /* \"#utility.yul\":714:798   */\n  tag_33\n  jumpi\n    /* \"#utility.yul\":770:788   */\n  tag_34\n  tag_9\n  jump\t// in\ntag_34:\n    /* \"#utility.yul\":714:798   */\ntag_33:\n    /* \"#utility.yul\":535:804   */\n  pop\n    /* \"#utility.yul\":484:804   */\n  swap2\n  swap1\n  pop\n  jump\t// out\n    /* \"#utility.yul\":810:951   */\ntag_11:\n    /* \"#utility.yul\":859:863   */\n  0x00\n    /* \"#utility.yul\":882:885   */\n  dup2\n    /* \"#utility.yul\":874:885   */\n  swap1\n  pop\n    /* \"#utility.yul\":905:908   */\n  dup2\n    /* \"#utility.yul\":902:903   */\n  0x00\n    /* \"#utility.yul\":895:909   */\n  mstore\n    /* \"#utility.yul\":939:943   */\n  0x20\n    /* \"#utility.yul\":936:937   */\n  0x00\n    /* \"#utility.yul\":926:944   */\n  keccak256\n    /* \"#utility.yul\":918:944   */\n  swap1\n  pop\n    /* \"#utility.yul\":810:951   */\n  swap2\n  swap1\n  pop\n  jump\t// out\n    /* \"#utility.yul\":957:1050   */\ntag_12:\n    /* \"#utility.yul\":994:1000   */\n  0x00\n    /* \"#utility.yul\":1041:1043   */\n  0x20\n    /* \"#utility.yul\":1036:1038   */\n  0x1f\n    /* \"#utility.yul\":1029:1034   */\n  dup4\n    /* \"#utility.yul\":1025:1039   */\n  add\n    /* \"#utility.yul\":1021:1044   */\n  div\n    /* \"#utility.yul\":1011:1044   */\n  swap1\n  pop\n    /* \"#utility.yul\":957:1050   */\n  swap2\n  swap1\n  pop\n  jump\t// out\n    /* \"#utility.yul\":1056:1163   */\ntag_13:\n    /* \"#utility.yul\":1100:1108   */\n  0x00\n    /* \"#utility.yul\":1150:1155   */\n  dup3\n    /* \"#utility.yul\":1144:1148   */\n  dup3\n    /* \"#utility.yul\":1140:1156   */\n  shl\n    /* \"#utility.yul\":1119:1156   */\n  swap1\n  pop\n    /* \"#utility.yul\":1056:1163   */\n  swap3\n  swap2\n  pop\n  pop\n  jump\t// out\n    /* \"#utility.yul\":1169:1562   */\ntag_14:\n    /* \"#utility.yul\":1238:1244   */\n  0x00\n    /* \"#utility.yul\":1288:1289   */\n  0x08\n    /* \"#utility.yul\":1276:1286   */\n  dup4\n    /* \"#utility.yul\":1272:1290   */\n  mul\n    /* \"#utility.yul\":1311:1408   */\n  tag_39\n    /* \"#utility.yul\":1341:1407   */\n  0xffffffffffffffffffffffffffffffffffffffffffffffffffffffffffffffff\n    /* \"#utility.yul\":1330:1339   */\n  dup3\n    /* \"#utility.yul\":1311:1408   */\n  tag_13\n  jump\t// in\ntag_39:\n    /* \"#utility.yul\":1429:1468   */\n  tag_40\n    /* \"#utility.yul\":1459:1467   */\n  dup7\n    /* \"#utility.yul\":1448:1457   */\n  dup4\n    /* \"#utility.yul\":1429:1468   */\n  tag_13\n  jump\t// in\ntag_40:\n    /* \"#utility.yul\":1417:1468   */\n  swap6\n  pop\n    /* \"#utility.yul\":1501:1505   */\n  dup1\n    /* \"#utility.yul\":1497:1506   */\n  not\n    /* \"#utility.yul\":1490:1495   */\n  dup5\n    /* \"#utility.yul\":1486:1507   */\n  and\n    /* \"#utility.yul\":1477:1507   */\n  swap4\n  pop\n    /* \"#utility.yul\":1550:1554   */\n  dup1\n    /* \"#utility.yul\":1540:1548   */\n  dup7\n    /* \"#utility.yul\":1536:1555   */\n  and\n    /* \"#utility.yul\":1529:1534   */\n  dup5\n    /* \"#utility.yul\":1526:1556   */\n  or\n    /* \"#utility.yul\":1516:1556   */\n  swap3\n  pop\n    /* \"#utility.yul\":1245:1562   */\n  pop\n  pop\n    /* \"#utility.yul\":1169:1562   */\n  swap4\n  swap3\n  pop\n  pop\n  pop\n  jump\t// out\n    /* \"#utility.yul\":1568:1645   */\ntag_15:\n    /* \"#utility.yul\":1605:1612   */\n  0x00\n    /* \"#utility.yul\":1634:1639   */\n  dup2\n    /* \"#utility.yul\":1623:1639   */\n  swap1\n  pop\n    /* \"#utility.yul\":1568:1645   */\n  swap2\n  swap1\n  pop\n  jump\t// out\n    /* \"#utility.yul\":1651:1711   */\ntag_16:\n    /* \"#utility.yul\":1679:1682   */\n  0x00\n    /* \"#utility.yul\":1700:1705   */\n  dup2\n    /* \"#utility.yul\":1693:1705   */\n  swap1\n  pop\n    /* \"#utility.yul\":1651:1711   */\n  swap2\n  swap1\n  pop\n  jump\t// out\n    /* \"#utility.yul\":1717:1859   */\ntag_17:\n    /* \"#utility.yul\":1767:1776   */\n  0x00\n    /* \"#utility.yul\":1800:1853   */\n  tag_44\n    /* \"#utility.yul\":1818:1852   */\n  tag_45\n    /* \"#utility.yul\":1827:1851   */\n  tag_46\n    /* \"#utility.yul\":1845:1850   */\n  dup5\n    /* \"#utility.yul\":1827:1851   */\n  tag_15\n  jump\t// in\ntag_46:\n    /* \"#utility.yul\":1818:1852   */\n  tag_16\n  jump\t// in\ntag_45:\n    /* \"#utility.yul\":1800:1853   */\n  tag_15\n  jump\t// in\ntag_44:\n    /* \"#utility.yul\":1787:1853   */\n  swap1\n  pop\n    /* \"#utility.yul\":1717:1859   */\n  swap2\n  swap1\n  pop\n  jump\t// out\n    /* \"#utility.yul\":1865:1940   */\ntag_18:\n    /* \"#utility.yul\":1908:1911   */\n  0x00\n    /* \"#utility.yul\":1929:1934   */\n  dup2\n    /* \"#utility.yul\":1922:1934   */\n  swap1\n  pop\n    /* \"#utility.yul\":1865:1940   */\n  swap2\n  swap1\n  pop\n  jump\t// out\n    /* \"#utility.yul\":1946:2215   */\ntag_19:\n    /* \"#utility.yul\":2056:2095   */\n  tag_49\n    /* \"#utility.yul\":2087:2094   */\n  dup4\n    /* \"#utility.yul\":2056:2095   */\n  tag_17\n  jump\t// in\ntag_49:\n    /* \"#utility.yul\":2117:2208   */\n  tag_50\n    /* \"#utility.yul\":2166:2207   */\n  tag_51\n    /* \"#utility.yul\":2190:2206   */\n  dup3\n    /* \"#utility.yul\":2166:2207   */\n  tag_18\n  jump\t// in\ntag_51:\n    /* \"#utility.yul\":2158:2164   */\n  dup5\n    /* \"#utility.yul\":2151:2155   */\n  dup5\n    /* \"#utility.yul\":2145:2156   */\n  sload\n    /* \"#utility.yul\":2117:2208   */\n  tag_14\n  jump\t// in\ntag_50:\n    /* \"#utility.yul\":2111:2115   */\n  dup3\n    /* \"#utility.yul\":2104:2209   */\n  sstore\n    /* \"#utility.yul\":2022:2215   */\n  pop\n    /* \"#utility.yul\":1946:2215   */\n  pop\n  pop\n  pop\n  jump\t// out\n    /* \"#utility.yul\":2221:2294   */\ntag_20:\n    /* \"#utility.yul\":2266:2269   */\n  0x00\n    /* \"#utility.yul\":2221:2294   */\n  swap1\n  jump\t// out\n    /* \"#utility.yul\":2300:2489   */\ntag_21:\n    /* \"#utility.yul\":2377:2409   */\n  tag_54\n  tag_20\n  jump\t// in\ntag_54:\n    /* \"#utility.yul\":2418:2483   */\n  tag_55\n    /* \"#utility.yul\":2476:2482   */\n  dup2\n    /* \"#utility.yul\":2468:2474   */\n  dup5\n    /* \"#utility.yul\":2462:2466   */\n  dup5\n    /* \"#utility.yul\":2418:2483   */\n  tag_19\n  jump\t// in\ntag_55:\n    /* \"#utility.yul\":2353:2489   */\n  pop\n    /* \"#utility.yul\":2300:2489   */\n  pop\n  pop\n  jump\t// out\n    /* \"#utility.yul\":2495:2681   */\ntag_22:\n    /* \"#utility.yul\":2555:2675   */\ntag_57:\n    /* \"#utility.yul\":2572:2575   */\n  dup2\n    /* \"#utility.yul\":2565:2570   */\n  dup2\n    /* \"#utility.yul\":2562:2576   */\n  lt\n    /* \"#utility.yul\":2555:2675   */\n  iszero\n  tag_59\n  jumpi\n    /* \"#utility.yul\":2626:2665   */\n  tag_60\n    /* \"#utility.yul\":2663:2664   */\n  0x00\n    /* \"#utility.yul\":2656:2661   */\n  dup3\n    /* \"#utility.yul\":2626:2665   */\n  tag_21\n  jump\t// in\ntag_60:\n    /* \"#utility.yul\":2599:2600   */\n  0x01\n    /* \"#utility.yul\":2592:2597   */\n  dup2\n    /* \"#utility.yul\":2588:2601   */\n  add\n    /* \"#utility.yul\":2579:2601   */\n  swap1\n  pop\n    /* \"#utility.yul\":2555:2675   */\n  jump(tag_57)\ntag_59:\n    /* \"#utility.yul\":2495:2681   */\n  pop\n  pop\n  jump\t// out\n    /* \"#utility.yul\":2687:3230   */\ntag_23:\n    /* \"#utility.yul\":2788:2790   */\n  0x1f\n    /* \"#utility.yul\":2783:2786   */\n  dup3\n    /* \"#utility.yul\":2780:2791   */\n  gt\n    /* \"#utility.yul\":2777:3223   */\n  iszero\n  tag_62\n  jumpi\n    /* \"#utility.yul\":2822:2860   */\n  tag_63\n    /* \"#utility.yul\":2854:2859   */\n  dup2\n    /* \"#utility.yul\":2822:2860   */\n  tag_11\n  jump\t// in\ntag_63:\n    /* \"#utility.yul\":2906:2935   */\n  tag_64\n    /* \"#utility.yul\":2924:2934   */\n  dup5\n    /* \"#utility.yul\":2906:2935   */\n  tag_12\n  jump\t// in\ntag_64:\n    /* \"#utility.yul\":2896:2904   */\n  dup2\n    /* \"#utility.yul\":2892:2936   */\n  add\n    /* \"#utility.yul\":3089:3091   */\n  0x20\n    /* \"#utility.yul\":3077:3087   */\n  dup6\n    /* \"#utility.yul\":3074:3092   */\n  lt\n    /* \"#utility.yul\":3071:3120   */\n  iszero\n  tag_65\n  jumpi\n    /* \"#utility.yul\":3110:3118   */\n  dup2\n    /* \"#utility.yul\":3095:3118   */\n  swap1\n  pop\n    /* \"#utility.yul\":3071:3120   */\ntag_65:\n    /* \"#utility.yul\":3133:3213   */\n  tag_66\n    /* \"#utility.yul\":3189:3211   */\n  tag_67\n    /* \"#utility.yul\":3207:3210   */\n  dup6\n    /* \"#utility.yul\":3189:3211   */\n  tag_12\n  jump\t// in\ntag_67:\n    /* \"#utility.yul\":3179:3187   */\n  dup4\n    /* \"#utility.yul\":3175:3212   */\n  add\n    /* \"#utility.yul\":3162:3173   */\n  dup3\n    /* \"#utility.yul\":3133:3213   */\n  tag_22\n  jump\t// in\ntag_66:\n    /* \"#utility.yul\":2792:3223   */\n  pop\n  pop\n    /* \"#utility.yul\":2777:3223   */\ntag_62:\n    /* \"#utility.yul\":2687:3230   */\n  pop\n  pop\n  pop\n  jump\t// out\n    /* \"#utility.yul\":3236:3353   */\ntag_24:\n    /* \"#utility.yul\":3290:3298   */\n  0x00\n    /* \"#utility.yul\":3340:3345   */\n  dup3\n    /* \"#utility.yul\":3334:3338   */\n  dup3\n    /* \"#utility.yul\":3330:3346   */\n  shr\n    /* \"#utility.yul\":3309:3346   */\n  swap1\n  pop\n    /* \"#utility.yul\":3236:3353   */\n  swap3\n  swap2\n  pop\n  pop\n  jump\t// out\n    /* \"#utility.yul\":3359:3528   */\ntag_25:\n    /* \"#utility.yul\":3403:3409   */\n  0x00\n    /* \"#utility.yul\":3436:3487   */\n  tag_70\n    /* \"#utility.yul\":3484:3485   */\n  0x00\n    /* \"#utility.yul\":3480:3486   */\n  not\n    /* \"#utility.yul\":3472:3477   */\n  dup5\n    /* \"#utility.yul\":3469:3470   */\n  0x08\n    /* \"#utility.yul\":3465:3478   */\n  mul\n    /* \"#utility.yul\":3436:3487   */\n  tag_24\n  jump\t// in\ntag_70:\n    /* \"#utility.yul\":3432:3488   */\n  not\n    /* \"#utility.yul\":3517:3521   */\n  dup1\n    /* \"#utility.yul\":3511:3515   */\n  dup4\n    /* \"#utility.yul\":3507:3522   */\n  and\n    /* \"#utility.yul\":3497:3522   */\n  swap2\n  pop\n    /* \"#utility.yul\":3410:3528   */\n  pop\n    /* \"#utility.yul\":3359:3528   */\n  swap3\n  swap2\n  pop\n  pop\n  jump\t// out\n    /* \"#utility.yul\":3533:3828   */\ntag_26:\n    /* \"#utility.yul\":3609:3613   */\n  0x00\n    /* \"#utility.yul\":3755:3784   */\n  tag_72\n    /* \"#utility.yul\":3780:3783   */\n  dup4\n    /* \"#utility.yul\":3774:3778   */\n  dup4\n    /* \"#utility.yul\":3755:3784   */\n  tag_25\n  jump\t// in\ntag_72:\n    /* \"#utility.yul\":3747:3784   */\n  swap2\n  pop\n    /* \"#utility.yul\":3817:3820   */\n  dup3\n    /* \"#utility.yul\":3814:3815   */\n  0x02\n    /* \"#utility.yul\":3810:3821   */\n  mul\n    /* \"#utility.yul\":3804:3808   */\n  dup3\n    /* \"#utility.yul\":3801:3822   */\n  or\n    /* \"#utility.yul\":3793:3822   */\n  swap1\n  pop\n    /* \"#utility.yul\":3533:3828   */\n  swap3\n  swap2\n  pop\n  pop\n  jump\t// out\n    /* \"#utility.yul\":3833:5228   */\ntag_2:\n    /* \"#utility.yul\":3950:3987   */\n  tag_74\n    /* \"#utility.yul\":3983:3986   */\n  dup3\n    /* \"#utility.yul\":3950:3987   */\n  tag_7\n  jump\t// in\ntag_74:\n    /* \"#utility.yul\":4052:4070   */\n  0xffffffffffffffff\n    /* \"#utility.yul\":4044:4050   */\n  dup2\n    /* \"#utility.yul\":4041:4071   */\n  gt\n    /* \"#utility.yul\":4038:4094   */\n  iszero\n  tag_75\n  jumpi\n    /* \"#utility.yul\":4074:4092   */\n  tag_76\n  tag_8\n  jump\t// in\ntag_76:\n    /* \"#utility.yul\":4038:4094   */\ntag_75:\n    /* \"#utility.yul\":4118:4156   */\n  tag_77\n    /* \"#utility.yul\":4150:4154   */\n  dup3\n    /* \"#utility.yul\":4144:4155   */\n  sload\n    /* \"#utility.yul\":4118:4156   */\n  tag_10\n  jump\t// in\ntag_77:\n    /* \"#utility.yul\":4203:4270   */\n  tag_78\n    /* \"#utility.yul\":4263:4269   */\n  dup3\n    /* \"#utility.yul\":4255:4261   */\n  dup3\n    /* \"#utility.yul\":4249:4253   */\n  dup6\n    /* \"#utility.yul\":4203:4270   */\n  tag_23\n  jump\t// in\ntag_78:\n    /* \"#utility.yul\":4297:4298   */\n  0x00\n    /* \"#utility.yul\":4321:4325   */\n  0x20\n    /* \"#utility.yul\":4308:4325   */\n  swap1\n  pop\n    /* \"#utility.yul\":4353:4355   */\n  0x1f\n    /* \"#utility.yul\":4345:4351   */\n  dup4\n    /* \"#utility.yul\":4342:4356   */\n  gt\n    /* \"#utility.yul\":4370:4371   */\n  0x01\n    /* \"#utility.yul\":4365:4983   */\n  dup2\n  eq\n  tag_80\n  jumpi\n    /* \"#utility.yul\":5027:5028   */\n  0x00\n    /* \"#utility.yul\":5044:5050   */\n  dup5\n    /* \"#utility.yul\":5041:5118   */\n  iszero\n  tag_81\n  jumpi\n    /* \"#utility.yul\":5093:5102   */\n  dup3\n    /* \"#utility.yul\":5088:5091   */\n  dup8\n    /* \"#utility.yul\":5084:5103   */\n  add\n    /* \"#utility.yul\":5078:5104   */\n  mload\n    /* \"#utility.yul\":5069:5104   */\n  swap1\n  pop\n    /* \"#utility.yul\":5041:5118   */\ntag_81:\n    /* \"#utility.yul\":5144:5211   */\n  tag_82\n    /* \"#utility.yul\":5204:5210   */\n  dup6\n    /* \"#utility.yul\":5197:5202   */\n  dup3\n    /* \"#utility.yul\":5144:5211   */\n  tag_26\n  jump\t// in\ntag_82:\n    /* \"#utility.yul\":5138:5142   */\n  dup7\n    /* \"#utility.yul\":5131:5212   */\n  sstore\n    /* \"#utility.yul\":5000:5222   */\n  pop\n    /* \"#utility.yul\":4335:5222   */\n  jump(tag_79)\n    /* \"#utility.yul\":4365:4983   */\ntag_80:\n    /* \"#utility.yul\":4417:4421   */\n  0x1f\n    /* \"#utility.yul\":4413:4422   */\n  not\n    /* \"#utility.yul\":4405:4411   */\n  dup5\n    /* \"#utility.yul\":4401:4423   */\n  and\n    /* \"#utility.yul\":4451:4488   */\n  tag_83\n    /* \"#utility.yul\":4483:4487   */\n  dup7\n    /* \"#utility.yul\":4451:4488   */\n  tag_11\n  jump\t// in\ntag_83:\n    /* \"#utility.yul\":4510:4511   */\n  0x00\n    /* \"#utility.yul\":4524:4732   */\ntag_84:\n    /* \"#utility.yul\":4538:4545   */\n  dup3\n    /* \"#utility.yul\":4535:4536   */\n  dup2\n    /* \"#utility.yul\":4532:4546   */\n  lt\n    /* \"#utility.yul\":4524:4732   */\n  iszero\n  tag_86\n  jumpi\n    /* \"#utility.yul\":4617:4626   */\n  dup5\n    /* \"#utility.yul\":4612:4615   */\n  dup10\n    /* \"#utility.yul\":4608:4627   */\n  add\n    /* \"#utility.yul\":4602:4628   */\n  mload\n    /* \"#utility.yul\":4594:4600   */\n  dup3\n    /* \"#utility.yul\":4587:4629   */\n  sstore\n    /* \"#utility.yul\":4668:4669   */\n  0x01\n    /* \"#utility.yul\":4660:4666   */\n  dup3\n    /* \"#utility.yul\":4656:4670   */\n  add\n    /* \"#utility.yul\":4646:4670   */\n  swap2\n  pop\n    /* \"#utility.yul\":4715:4717   */\n  0x20\n    /* \"#utility.yul\":4704:4713   */\n  dup6\n    /* \"#utility.yul\":4700:4718   */\n  add\n    /* \"#utility.yul\":4687:4718   */\n  swap5\n  pop\n    /* \"#utility.yul\":4561:4565   */\n  0x20\n    /* \"#utility.yul\":4558:4559   */\n  dup2\n    /* \"#utility.yul\":4554:4566   */\n  add\n    /* \"#utility.yul\":4549:4566   */\n  swap1\n  pop\n    /* \"#utility.yul\":4524:4732   */\n  jump(tag_84)\ntag_86:\n    /* \"#utility.yul\":4760:4766   */\n  dup7\n    /* \"#utility.yul\":4751:4758   */\n  dup4\n    /* \"#utility.yul\":4748:4767   */\n  lt\n    /* \"#utility.yul\":4745:4924   */\n  iszero\n  tag_87\n  jumpi\n    /* \"#utility.yul\":4818:4827   */\n  dup5\n    /* \"#utility.yul\":4813:4816   */\n  dup10\n    /* \"#utility.yul\":4809:4828   */\n  add\n    /* \"#utility.yul\":4803:4829   */\n  mload\n    /* \"#utility.yul\":4861:4909   */\n  tag_88\n    /* \"#utility.yul\":4903:4907   */\n  0x1f\n    /* \"#utility.yul\":4895:4901   */\n  dup10\n    /* \"#utility.yul\":4891:4908   */\n  and\n    /* \"#utility.yul\":4880:4889   */\n  dup3\n    /* \"#utility.yul\":4861:4909   */\n  tag_25\n  jump\t// in\ntag_88:\n    /* \"#utility.yul\":4853:4859   */\n  dup4\n    /* \"#utility.yul\":4846:4910   */\n  sstore\n    /* \"#utility.yul\":4768:4924   */\n  pop\n    /* \"#utility.yul\":4745:4924   */\ntag_87:\n    /* \"#utility.yul\":4970:4971   */\n  0x01\n    /* \"#utility.yul\":4966:4967   */\n  0x02\n    /* \"#utility.yul\":4958:4964   */\n  dup9\n    /* \"#utility.yul\":4954:4968   */\n  mul\n    /* \"#utility.yul\":4950:4972   */\n  add\n    /* \"#utility.yul\":4944:4948   */\n  dup9\n    /* \"#utility.yul\":4937:4973   */\n  sstore\n    /* \"#utility.yul\":4372:4983   */\n  pop\n  pop\n  pop\n    /* \"#utility.yul\":4335:5222   */\ntag_79:\n  pop\n    /* \"#utility.yul\":3925:5228   */\n  pop\n  pop\n  pop\n    /* \"#utility.yul\":3833:5228   */\n  pop\n  pop\n  jump\t// out\n    /* \"secondExample.sol\":61:568  contract Zoo {... */\ntag_6:\n  dataSize(sub_0)\n  dup1\n  dataOffset(sub_0)\n  0x00\n  codecopy\n  0x00\n  return\nstop\n\nsub_0: assembly {\n        /* \"secondExample.sol\":61:568  contract Zoo {... */\n      mstore(0x40, 0x80)\n      callvalue\n      dup1\n      iszero\n      tag_1\n      jumpi\n      0x00\n      dup1\n      revert\n    tag_1:\n      pop\n      jumpi(tag_2, lt(calldatasize, 0x04))\n      shr(0xe0, calldataload(0x00))\n      dup1\n      0x2dbdcb13\n      eq\n      tag_3\n      jumpi\n      dup1\n      0x9fcd513f\n      eq\n      tag_4\n      jumpi\n      dup1\n      0xc5da71a8\n      eq\n      tag_5\n      jumpi\n      dup1\n      0xe96116b5\n      eq\n      tag_6\n      jumpi\n      dup1\n      0xf9134682\n      eq\n      tag_7\n      jumpi\n    tag_2:\n      0x00\n      dup1\n      revert\n        /* \"secondExample.sol\":150:195  Animal public animal1 = Animal(\"Geraffe\", 25) */\n    tag_3:\n      tag_8\n      tag_9\n      jump\t// in\n    tag_8:\n      mload(0x40)\n      tag_10\n      swap3\n      swap2\n      swap1\n      tag_11\n      jump\t// in\n    tag_10:\n      mload(0x40)\n      dup1\n      swap2\n      sub\n      swap1\n      return\n        /* \"secondExample.sol\":202:244  Animal public animal2 = Animal(\"Lion\", 22) */\n    tag_4:\n      tag_12\n      tag_13\n      jump\t// in\n    tag_12:\n      mload(0x40)\n      tag_14\n      swap3\n      swap2\n      swap1\n      tag_11\n      jump\t// in\n    tag_14:\n      mload(0x40)\n      dup1\n      swap2\n      sub\n      swap1\n      return\n        /* \"secondExample.sol\":251:292  Animal public animal3 = Animal(\"Krot\", 2) */\n    tag_5:\n      tag_15\n      tag_16\n      jump\t// in\n    tag_15:\n      mload(0x40)\n      tag_17\n      swap3\n      swap2\n      swap1\n      tag_11\n      jump\t// in\n    tag_17:\n      mload(0x40)\n      dup1\n      swap2\n      sub\n      swap1\n      return\n        /* \"secondExample.sol\":340:565  function addAnimal(string memory _name, int age) public {... */\n    tag_6:\n      tag_18\n      0x04\n      dup1\n      calldatasize\n      sub\n      dup2\n      add\n      swap1\n      tag_19\n      swap2\n      swap1\n      tag_20\n      jump\t// in\n    tag_19:\n      tag_21\n      jump\t// in\n    tag_18:\n      stop\n        /* \"secondExample.sol\":301:329  Animal[] public listOfAnimal */\n    tag_7:\n      tag_22\n      0x04\n      dup1\n      calldatasize\n      sub\n      dup2\n      add\n      swap1\n      tag_23\n      swap2\n      swap1\n      tag_24\n      jump\t// in\n    tag_23:\n      tag_25\n      jump\t// in\n    tag_22:\n      mload(0x40)\n      tag_26\n      swap3\n      swap2\n      swap1\n      tag_11\n      jump\t// in\n    tag_26:\n      mload(0x40)\n      dup1\n      swap2\n      sub\n      swap1\n      return\n        /* \"secondExample.sol\":150:195  Animal public animal1 = Animal(\"Geraffe\", 25) */\n    tag_9:\n      0x00\n      dup1\n      0x00\n      add\n      dup1\n      sload\n      tag_27\n      swap1\n      tag_28\n      jump\t// in\n    tag_27:\n      dup1\n      0x1f\n      add\n      0x20\n      dup1\n      swap2\n      div\n      mul\n      0x20\n      add\n      mload(0x40)\n      swap1\n      dup2\n      add\n      0x40\n      mstore\n      dup1\n      swap3\n      swap2\n      swap1\n      dup2\n      dup2\n      mstore\n      0x20\n      add\n      dup3\n      dup1\n      sload\n      tag_29\n      swap1\n      tag_28\n      jump\t// in\n    tag_29:\n      dup1\n      iszero\n      tag_30\n      jumpi\n      dup1\n      0x1f\n      lt\n      tag_31\n      jumpi\n      0x0100\n      dup1\n      dup4\n      sload\n      div\n      mul\n      dup4\n      mstore\n      swap2\n      0x20\n      add\n      swap2\n      jump(tag_30)\n    tag_31:\n      dup3\n      add\n      swap2\n      swap1\n      0x00\n      mstore\n      keccak256(0x00, 0x20)\n      swap1\n    tag_32:\n      dup2\n      sload\n      dup2\n      mstore\n      swap1\n      0x01\n      add\n      swap1\n      0x20\n      add\n      dup1\n      dup4\n      gt\n      tag_32\n      jumpi\n      dup3\n      swap1\n      sub\n      0x1f\n      and\n      dup3\n      add\n      swap2\n    tag_30:\n      pop\n      pop\n      pop\n      pop\n      pop\n      swap1\n      dup1\n      0x01\n      add\n      sload\n      swap1\n      pop\n      dup3\n      jump\t// out\n        /* \"secondExample.sol\":202:244  Animal public animal2 = Animal(\"Lion\", 22) */\n    tag_13:\n      0x02\n      dup1\n      0x00\n      add\n      dup1\n      sload\n      tag_33\n      swap1\n      tag_28\n      jump\t// in\n    tag_33:\n      dup1\n      0x1f\n      add\n      0x20\n      dup1\n      swap2\n      div\n      mul\n      0x20\n      add\n      mload(0x40)\n      swap1\n      dup2\n      add\n      0x40\n      mstore\n      dup1\n      swap3\n      swap2\n      swap1\n      dup2\n      dup2\n      mstore\n      0x20\n      add\n      dup3\n      dup1\n      sload\n      tag_34\n      swap1\n      tag_28\n      jump\t// in\n    tag_34:\n      dup1\n      iszero\n      tag_35\n      jumpi\n      dup1\n      0x1f\n      lt\n      tag_36\n      jumpi\n      0x0100\n      dup1\n      dup4\n      sload\n      div\n      mul\n      dup4\n      mstore\n      swap2\n      0x20\n      add\n      swap2\n      jump(tag_35)\n    tag_36:\n      dup3\n      add\n      swap2\n      swap1\n      0x00\n      mstore\n      keccak256(0x00, 0x20)\n      swap1\n    tag_37:\n      dup2\n      sload\n      dup2\n      mstore\n      swap1\n      0x01\n      add\n      swap1\n      0x20\n      add\n      dup1\n      dup4\n      gt\n      tag_37\n      jumpi\n      dup3\n      swap1\n      sub\n      0x1f\n      and\n      dup3\n      add\n      swap2\n    tag_35:\n      pop\n      pop\n      pop\n      pop\n      pop\n      swap1\n      dup1\n      0x01\n      add\n      sload\n      swap1\n      pop\n      dup3\n      jump\t// out\n        /* \"secondExample.sol\":251:292  Animal public animal3 = Animal(\"Krot\", 2) */\n    tag_16:\n      0x04\n      dup1\n      0x00\n      add\n      dup1\n      sload\n      tag_38\n      swap1\n      tag_28\n      jump\t// in\n    tag_38:\n      dup1\n      0x1f\n      add\n      0x20\n      dup1\n      swap2\n      div\n      mul\n      0x20\n      add\n      mload(0x40)\n      swap1\n      dup2\n      add\n      0x40\n      mstore\n      dup1\n      swap3\n      swap2\n      swap1\n      dup2\n      dup2\n      mstore\n      0x20\n      add\n      dup3\n      dup1\n      sload\n      tag_39\n      swap1\n      tag_28\n      jump\t// in\n    tag_39:\n      dup1\n      iszero\n      tag_40\n      jumpi\n      dup1\n      0x1f\n      lt\n      tag_41\n      jumpi\n      0x0100\n      dup1\n      dup4\n      sload\n      div\n      mul\n      dup4\n      mstore\n      swap2\n      0x20\n      add\n      swap2\n      jump(tag_40)\n    tag_41:\n      dup3\n      add\n      swap2\n      swap1\n      0x00\n      mstore\n      keccak256(0x00, 0x20)\n      swap1\n    tag_42:\n      dup2\n      sload\n      dup2\n      mstore\n      swap1\n      0x01\n      add\n      swap1\n      0x20\n      add\n      dup1\n      dup4\n      gt\n      tag_42\n      jumpi\n      dup3\n      swap1\n      sub\n      0x1f\n      and\n      dup3\n      add\n      swap2\n    tag_40:\n      pop\n      pop\n      pop\n      pop\n      pop\n      swap1\n      dup1\n      0x01\n      add\n      sload\n      swap1\n      pop\n      dup3\n      jump\t// out\n        /* \"secondExample.sol\":340:565  function addAnimal(string memory _name, int age) public {... */\n    tag_21:\n        /* \"secondExample.sol\":407:419  listOfAnimal */\n      0x06\n        /* \"secondExample.sol\":425:432  animal1 */\n      0x00\n        /* \"secondExample.sol\":407:433  listOfAnimal.push(animal1) */\n      swap1\n      dup1\n      0x01\n      dup2\n      sload\n      add\n      dup1\n      dup3\n      sstore\n      dup1\n      swap2\n      pop\n      pop\n      0x01\n      swap1\n      sub\n      swap1\n      0x00\n      mstore\n      keccak256(0x00, 0x20)\n      swap1\n      0x02\n      mul\n      add\n      0x00\n      swap1\n      swap2\n      swap1\n      swap2\n      swap1\n      swap2\n      pop\n      0x00\n      dup3\n      add\n      dup2\n      0x00\n      add\n      swap1\n      dup2\n      tag_45\n      swap2\n      swap1\n      tag_46\n      jump\t// in\n    tag_45:\n      pop\n      0x01\n      dup3\n      add\n      sload\n      dup2\n      0x01\n      add\n      sstore\n      pop\n      pop\n        /* \"secondExample.sol\":444:456  listOfAnimal */\n      0x06\n        /* \"secondExample.sol\":462:469  animal2 */\n      0x02\n        /* \"secondExample.sol\":444:470  listOfAnimal.push(animal2) */\n      swap1\n      dup1\n      0x01\n      dup2\n      sload\n      add\n      dup1\n      dup3\n      sstore\n      dup1\n      swap2\n      pop\n      pop\n      0x01\n      swap1\n      sub\n      swap1\n      0x00\n      mstore\n      keccak256(0x00, 0x20)\n      swap1\n      0x02\n      mul\n      add\n      0x00\n      swap1\n      swap2\n      swap1\n      swap2\n      swap1\n      swap2\n      pop\n      0x00\n      dup3\n      add\n      dup2\n      0x00\n      add\n      swap1\n      dup2\n      tag_48\n      swap2\n      swap1\n      tag_46\n      jump\t// in\n    tag_48:\n      pop\n      0x01\n      dup3\n      add\n      sload\n      dup2\n      0x01\n      add\n      sstore\n      pop\n      pop\n        /* \"secondExample.sol\":481:493  listOfAnimal */\n      0x06\n        /* \"secondExample.sol\":499:506  animal3 */\n      0x04\n        /* \"secondExample.sol\":481:507  listOfAnimal.push(animal3) */\n      swap1\n      dup1\n      0x01\n      dup2\n      sload\n      add\n      dup1\n      dup3\n      sstore\n      dup1\n      swap2\n      pop\n      pop\n      0x01\n      swap1\n      sub\n      swap1\n      0x00\n      mstore\n      keccak256(0x00, 0x20)\n      swap1\n      0x02\n      mul\n      add\n      0x00\n      swap1\n      swap2\n      swap1\n      swap2\n      swap1\n      swap2\n      pop\n      0x00\n      dup3\n      add\n      dup2\n      0x00\n      add\n      swap1\n      dup2\n      tag_50\n      swap2\n      swap1\n      tag_46\n      jump\t// in\n    tag_50:\n      pop\n      0x01\n      dup3\n      add\n      sload\n      dup2\n      0x01\n      add\n      sstore\n      pop\n      pop\n        /* \"secondExample.sol\":520:532  listOfAnimal */\n      0x06\n        /* \"secondExample.sol\":538:556  Animal(_name, age) */\n      mload(0x40)\n      dup1\n      0x40\n      add\n      0x40\n      mstore\n      dup1\n        /* \"secondExample.sol\":545:550  _name */\n      dup5\n        /* \"secondExample.sol\":538:556  Animal(_name, age) */\n      dup2\n      mstore\n      0x20\n      add\n        /* \"secondExample.sol\":552:555  age */\n      dup4\n        /* \"secondExample.sol\":538:556  Animal(_name, age) */\n      dup2\n      mstore\n      pop\n        /* \"secondExample.sol\":520:557  listOfAnimal.push(Animal(_name, age)) */\n      swap1\n      dup1\n      0x01\n      dup2\n      sload\n      add\n      dup1\n      dup3\n      sstore\n      dup1\n      swap2\n      pop\n      pop\n      0x01\n      swap1\n      sub\n      swap1\n      0x00\n      mstore\n      keccak256(0x00, 0x20)\n      swap1\n      0x02\n      mul\n      add\n      0x00\n      swap1\n      swap2\n      swap1\n      swap2\n      swap1\n      swap2\n      pop\n      0x00\n      dup3\n      add\n      mload\n      dup2\n      0x00\n      add\n      swap1\n      dup2\n      tag_52\n      swap2\n      swap1\n      tag_53\n      jump\t// in\n    tag_52:\n      pop\n      0x20\n      dup3\n      add\n      mload\n      dup2\n      0x01\n      add\n      sstore\n      pop\n      pop\n        /* \"secondExample.sol\":340:565  function addAnimal(string memory _name, int age) public {... */\n      pop\n      pop\n      jump\t// out\n        /* \"secondExample.sol\":301:329  Animal[] public listOfAnimal */\n    tag_25:\n      0x06\n      dup2\n      dup2\n      sload\n      dup2\n      lt\n      tag_54\n      jumpi\n      0x00\n      dup1\n      revert\n    tag_54:\n      swap1\n      0x00\n      mstore\n      keccak256(0x00, 0x20)\n      swap1\n      0x02\n      mul\n      add\n      0x00\n      swap2\n      pop\n      swap1\n      pop\n      dup1\n      0x00\n      add\n      dup1\n      sload\n      tag_56\n      swap1\n      tag_28\n      jump\t// in\n    tag_56:\n      dup1\n      0x1f\n      add\n      0x20\n      dup1\n      swap2\n      div\n      mul\n      0x20\n      add\n      mload(0x40)\n      swap1\n      dup2\n      add\n      0x40\n      mstore\n      dup1\n      swap3\n      swap2\n      swap1\n      dup2\n      dup2\n      mstore\n      0x20\n      add\n      dup3\n      dup1\n      sload\n      tag_57\n      swap1\n      tag_28\n      jump\t// in\n    tag_57:\n      dup1\n      iszero\n      tag_58\n      jumpi\n      dup1\n      0x1f\n      lt\n      tag_59\n      jumpi\n      0x0100\n      dup1\n      dup4\n      sload\n      div\n      mul\n      dup4\n      mstore\n      swap2\n      0x20\n      add\n      swap2\n      jump(tag_58)\n    tag_59:\n      dup3\n      add\n      swap2\n      swap1\n      0x00\n      mstore\n      keccak256(0x00, 0x20)\n      swap1\n    tag_60:\n      dup2\n      sload\n      dup2\n      mstore\n      swap1\n      0x01\n      add\n      swap1\n      0x20\n      add\n      dup1\n      dup4\n      gt\n      tag_60\n      jumpi\n      dup3\n      swap1\n      sub\n      0x1f\n      and\n      dup3\n      add\n      swap2\n    tag_58:\n      pop\n      pop\n      pop\n      pop\n      pop\n      swap1\n      dup1\n      0x01\n      add\n      sload\n      swap1\n      pop\n      dup3\n      jump\t// out\n        /* \"#utility.yul\":7:106   */\n    tag_61:\n        /* \"#utility.yul\":59:65   */\n      0x00\n        /* \"#utility.yul\":93:98   */\n      dup2\n        /* \"#utility.yul\":87:99   */\n      mload\n        /* \"#utility.yul\":77:99   */\n      swap1\n      pop\n        /* \"#utility.yul\":7:106   */\n      swap2\n      swap1\n      pop\n      jump\t// out\n        /* \"#utility.yul\":112:281   */\n    tag_62:\n        /* \"#utility.yul\":196:207   */\n      0x00\n        /* \"#utility.yul\":230:236   */\n      dup3\n        /* \"#utility.yul\":225:228   */\n      dup3\n        /* \"#utility.yul\":218:237   */\n      mstore\n        /* \"#utility.yul\":270:274   */\n      0x20\n        /* \"#utility.yul\":265:268   */\n      dup3\n        /* \"#utility.yul\":261:275   */\n      add\n        /* \"#utility.yul\":246:275   */\n      swap1\n      pop\n        /* \"#utility.yul\":112:281   */\n      swap3\n      swap2\n      pop\n      pop\n      jump\t// out\n        /* \"#utility.yul\":287:533   */\n    tag_63:\n        /* \"#utility.yul\":368:369   */\n      0x00\n        /* \"#utility.yul\":378:491   */\n    tag_106:\n        /* \"#utility.yul\":392:398   */\n      dup4\n        /* \"#utility.yul\":389:390   */\n      dup2\n        /* \"#utility.yul\":386:399   */\n      lt\n        /* \"#utility.yul\":378:491   */\n      iszero\n      tag_108\n      jumpi\n        /* \"#utility.yul\":477:478   */\n      dup1\n        /* \"#utility.yul\":472:475   */\n      dup3\n        /* \"#utility.yul\":468:479   */\n      add\n        /* \"#utility.yul\":462:480   */\n      mload\n        /* \"#utility.yul\":458:459   */\n      dup2\n        /* \"#utility.yul\":453:456   */\n      dup5\n        /* \"#utility.yul\":449:460   */\n      add\n        /* \"#utility.yul\":442:481   */\n      mstore\n        /* \"#utility.yul\":414:416   */\n      0x20\n        /* \"#utility.yul\":411:412   */\n      dup2\n        /* \"#utility.yul\":407:417   */\n      add\n        /* \"#utility.yul\":402:417   */\n      swap1\n      pop\n        /* \"#utility.yul\":378:491   */\n      jump(tag_106)\n    tag_108:\n        /* \"#utility.yul\":525:526   */\n      0x00\n        /* \"#utility.yul\":516:522   */\n      dup5\n        /* \"#utility.yul\":511:514   */\n      dup5\n        /* \"#utility.yul\":507:523   */\n      add\n        /* \"#utility.yul\":500:527   */\n      mstore\n        /* \"#utility.yul\":349:533   */\n      pop\n        /* \"#utility.yul\":287:533   */\n      pop\n      pop\n      pop\n      jump\t// out\n        /* \"#utility.yul\":539:641   */\n    tag_64:\n        /* \"#utility.yul\":580:586   */\n      0x00\n        /* \"#utility.yul\":631:633   */\n      0x1f\n        /* \"#utility.yul\":627:634   */\n      not\n        /* \"#utility.yul\":622:624   */\n      0x1f\n        /* \"#utility.yul\":615:620   */\n      dup4\n        /* \"#utility.yul\":611:625   */\n      add\n        /* \"#utility.yul\":607:635   */\n      and\n        /* \"#utility.yul\":597:635   */\n      swap1\n      pop\n        /* \"#utility.yul\":539:641   */\n      swap2\n      swap1\n      pop\n      jump\t// out\n        /* \"#utility.yul\":647:1024   */\n    tag_65:\n        /* \"#utility.yul\":735:738   */\n      0x00\n        /* \"#utility.yul\":763:802   */\n      tag_111\n        /* \"#utility.yul\":796:801   */\n      dup3\n        /* \"#utility.yul\":763:802   */\n      tag_61\n      jump\t// in\n    tag_111:\n        /* \"#utility.yul\":818:889   */\n      tag_112\n        /* \"#utility.yul\":882:888   */\n      dup2\n        /* \"#utility.yul\":877:880   */\n      dup6\n        /* \"#utility.yul\":818:889   */\n      tag_62\n      jump\t// in\n    tag_112:\n        /* \"#utility.yul\":811:889   */\n      swap4\n      pop\n        /* \"#utility.yul\":898:963   */\n      tag_113\n        /* \"#utility.yul\":956:962   */\n      dup2\n        /* \"#utility.yul\":951:954   */\n      dup6\n        /* \"#utility.yul\":944:948   */\n      0x20\n        /* \"#utility.yul\":937:942   */\n      dup7\n        /* \"#utility.yul\":933:949   */\n      add\n        /* \"#utility.yul\":898:963   */\n      tag_63\n      jump\t// in\n    tag_113:\n        /* \"#utility.yul\":988:1017   */\n      tag_114\n        /* \"#utility.yul\":1010:1016   */\n      dup2\n        /* \"#utility.yul\":988:1017   */\n      tag_64\n      jump\t// in\n    tag_114:\n        /* \"#utility.yul\":983:986   */\n      dup5\n        /* \"#utility.yul\":979:1018   */\n      add\n        /* \"#utility.yul\":972:1018   */\n      swap2\n      pop\n        /* \"#utility.yul\":739:1024   */\n      pop\n        /* \"#utility.yul\":647:1024   */\n      swap3\n      swap2\n      pop\n      pop\n      jump\t// out\n        /* \"#utility.yul\":1030:1106   */\n    tag_66:\n        /* \"#utility.yul\":1066:1073   */\n      0x00\n        /* \"#utility.yul\":1095:1100   */\n      dup2\n        /* \"#utility.yul\":1084:1100   */\n      swap1\n      pop\n        /* \"#utility.yul\":1030:1106   */\n      swap2\n      swap1\n      pop\n      jump\t// out\n        /* \"#utility.yul\":1112:1227   */\n    tag_67:\n        /* \"#utility.yul\":1197:1220   */\n      tag_117\n        /* \"#utility.yul\":1214:1219   */\n      dup2\n        /* \"#utility.yul\":1197:1220   */\n      tag_66\n      jump\t// in\n    tag_117:\n        /* \"#utility.yul\":1192:1195   */\n      dup3\n        /* \"#utility.yul\":1185:1221   */\n      mstore\n        /* \"#utility.yul\":1112:1227   */\n      pop\n      pop\n      jump\t// out\n        /* \"#utility.yul\":1233:1652   */\n    tag_11:\n        /* \"#utility.yul\":1372:1376   */\n      0x00\n        /* \"#utility.yul\":1410:1412   */\n      0x40\n        /* \"#utility.yul\":1399:1408   */\n      dup3\n        /* \"#utility.yul\":1395:1413   */\n      add\n        /* \"#utility.yul\":1387:1413   */\n      swap1\n      pop\n        /* \"#utility.yul\":1459:1468   */\n      dup2\n        /* \"#utility.yul\":1453:1457   */\n      dup2\n        /* \"#utility.yul\":1449:1469   */\n      sub\n        /* \"#utility.yul\":1445:1446   */\n      0x00\n        /* \"#utility.yul\":1434:1443   */\n      dup4\n        /* \"#utility.yul\":1430:1447   */\n      add\n        /* \"#utility.yul\":1423:1470   */\n      mstore\n        /* \"#utility.yul\":1487:1565   */\n      tag_119\n        /* \"#utility.yul\":1560:1564   */\n      dup2\n        /* \"#utility.yul\":1551:1557   */\n      dup6\n        /* \"#utility.yul\":1487:1565   */\n      tag_65\n      jump\t// in\n    tag_119:\n        /* \"#utility.yul\":1479:1565   */\n      swap1\n      pop\n        /* \"#utility.yul\":1575:1645   */\n      tag_120\n        /* \"#utility.yul\":1641:1643   */\n      0x20\n        /* \"#utility.yul\":1630:1639   */\n      dup4\n        /* \"#utility.yul\":1626:1644   */\n      add\n        /* \"#utility.yul\":1617:1623   */\n      dup5\n        /* \"#utility.yul\":1575:1645   */\n      tag_67\n      jump\t// in\n    tag_120:\n        /* \"#utility.yul\":1233:1652   */\n      swap4\n      swap3\n      pop\n      pop\n      pop\n      jump\t// out\n        /* \"#utility.yul\":1658:1733   */\n    tag_68:\n        /* \"#utility.yul\":1691:1697   */\n      0x00\n        /* \"#utility.yul\":1724:1726   */\n      0x40\n        /* \"#utility.yul\":1718:1727   */\n      mload\n        /* \"#utility.yul\":1708:1727   */\n      swap1\n      pop\n        /* \"#utility.yul\":1658:1733   */\n      swap1\n      jump\t// out\n        /* \"#utility.yul\":1739:1856   */\n    tag_69:\n        /* \"#utility.yul\":1848:1849   */\n      0x00\n        /* \"#utility.yul\":1845:1846   */\n      dup1\n        /* \"#utility.yul\":1838:1850   */\n      revert\n        /* \"#utility.yul\":1862:1979   */\n    tag_70:\n        /* \"#utility.yul\":1971:1972   */\n      0x00\n        /* \"#utility.yul\":1968:1969   */\n      dup1\n        /* \"#utility.yul\":1961:1973   */\n      revert\n        /* \"#utility.yul\":1985:2102   */\n    tag_71:\n        /* \"#utility.yul\":2094:2095   */\n      0x00\n        /* \"#utility.yul\":2091:2092   */\n      dup1\n        /* \"#utility.yul\":2084:2096   */\n      revert\n        /* \"#utility.yul\":2108:2225   */\n    tag_72:\n        /* \"#utility.yul\":2217:2218   */\n      0x00\n        /* \"#utility.yul\":2214:2215   */\n      dup1\n        /* \"#utility.yul\":2207:2219   */\n      revert\n        /* \"#utility.yul\":2231:2411   */\n    tag_73:\n        /* \"#utility.yul\":2279:2356   */\n      0x4e487b7100000000000000000000000000000000000000000000000000000000\n        /* \"#utility.yul\":2276:2277   */\n      0x00\n        /* \"#utility.yul\":2269:2357   */\n      mstore\n        /* \"#utility.yul\":2376:2380   */\n      0x41\n        /* \"#utility.yul\":2373:2374   */\n      0x04\n        /* \"#utility.yul\":2366:2381   */\n      mstore\n        /* \"#utility.yul\":2400:2404   */\n      0x24\n        /* \"#utility.yul\":2397:2398   */\n      0x00\n        /* \"#utility.yul\":2390:2405   */\n      revert\n        /* \"#utility.yul\":2417:2698   */\n    tag_74:\n        /* \"#utility.yul\":2500:2527   */\n      tag_128\n        /* \"#utility.yul\":2522:2526   */\n      dup3\n        /* \"#utility.yul\":2500:2527   */\n      tag_64\n      jump\t// in\n    tag_128:\n        /* \"#utility.yul\":2492:2498   */\n      dup2\n        /* \"#utility.yul\":2488:2528   */\n      add\n        /* \"#utility.yul\":2630:2636   */\n      dup2\n        /* \"#utility.yul\":2618:2628   */\n      dup2\n        /* \"#utility.yul\":2615:2637   */\n      lt\n        /* \"#utility.yul\":2594:2612   */\n      0xffffffffffffffff\n        /* \"#utility.yul\":2582:2592   */\n      dup3\n        /* \"#utility.yul\":2579:2613   */\n      gt\n        /* \"#utility.yul\":2576:2638   */\n      or\n        /* \"#utility.yul\":2573:2661   */\n      iszero\n      tag_129\n      jumpi\n        /* \"#utility.yul\":2641:2659   */\n      tag_130\n      tag_73\n      jump\t// in\n    tag_130:\n        /* \"#utility.yul\":2573:2661   */\n    tag_129:\n        /* \"#utility.yul\":2681:2691   */\n      dup1\n        /* \"#utility.yul\":2677:2679   */\n      0x40\n        /* \"#utility.yul\":2670:2692   */\n      mstore\n        /* \"#utility.yul\":2460:2698   */\n      pop\n        /* \"#utility.yul\":2417:2698   */\n      pop\n      pop\n      jump\t// out\n        /* \"#utility.yul\":2704:2833   */\n    tag_75:\n        /* \"#utility.yul\":2738:2744   */\n      0x00\n        /* \"#utility.yul\":2765:2785   */\n      tag_132\n      tag_68\n      jump\t// in\n    tag_132:\n        /* \"#utility.yul\":2755:2785   */\n      swap1\n      pop\n        /* \"#utility.yul\":2794:2827   */\n      tag_133\n        /* \"#utility.yul\":2822:2826   */\n      dup3\n        /* \"#utility.yul\":2814:2820   */\n      dup3\n        /* \"#utility.yul\":2794:2827   */\n      tag_74\n      jump\t// in\n    tag_133:\n        /* \"#utility.yul\":2704:2833   */\n      swap2\n      swap1\n      pop\n      jump\t// out\n        /* \"#utility.yul\":2839:3147   */\n    tag_76:\n        /* \"#utility.yul\":2901:2905   */\n      0x00\n        /* \"#utility.yul\":2991:3009   */\n      0xffffffffffffffff\n        /* \"#utility.yul\":2983:2989   */\n      dup3\n        /* \"#utility.yul\":2980:3010   */\n      gt\n        /* \"#utility.yul\":2977:3033   */\n      iszero\n      tag_135\n      jumpi\n        /* \"#utility.yul\":3013:3031   */\n      tag_136\n      tag_73\n      jump\t// in\n    tag_136:\n        /* \"#utility.yul\":2977:3033   */\n    tag_135:\n        /* \"#utility.yul\":3051:3080   */\n      tag_137\n        /* \"#utility.yul\":3073:3079   */\n      dup3\n        /* \"#utility.yul\":3051:3080   */\n      tag_64\n      jump\t// in\n    tag_137:\n        /* \"#utility.yul\":3043:3080   */\n      swap1\n      pop\n        /* \"#utility.yul\":3135:3139   */\n      0x20\n        /* \"#utility.yul\":3129:3133   */\n      dup2\n        /* \"#utility.yul\":3125:3140   */\n      add\n        /* \"#utility.yul\":3117:3140   */\n      swap1\n      pop\n        /* \"#utility.yul\":2839:3147   */\n      swap2\n      swap1\n      pop\n      jump\t// out\n        /* \"#utility.yul\":3153:3299   */\n    tag_77:\n        /* \"#utility.yul\":3250:3256   */\n      dup3\n        /* \"#utility.yul\":3245:3248   */\n      dup2\n        /* \"#utility.yul\":3240:3243   */\n      dup4\n        /* \"#utility.yul\":3227:3257   */\n      calldatacopy\n        /* \"#utility.yul\":3291:3292   */\n      0x00\n        /* \"#utility.yul\":3282:3288   */\n      dup4\n        /* \"#utility.yul\":3277:3280   */\n      dup4\n        /* \"#utility.yul\":3273:3289   */\n      add\n        /* \"#utility.yul\":3266:3293   */\n      mstore\n        /* \"#utility.yul\":3153:3299   */\n      pop\n      pop\n      pop\n      jump\t// out\n        /* \"#utility.yul\":3305:3730   */\n    tag_78:\n        /* \"#utility.yul\":3383:3388   */\n      0x00\n        /* \"#utility.yul\":3408:3474   */\n      tag_140\n        /* \"#utility.yul\":3424:3473   */\n      tag_141\n        /* \"#utility.yul\":3466:3472   */\n      dup5\n        /* \"#utility.yul\":3424:3473   */\n      tag_76\n      jump\t// in\n    tag_141:\n        /* \"#utility.yul\":3408:3474   */\n      tag_75\n      jump\t// in\n    tag_140:\n        /* \"#utility.yul\":3399:3474   */\n      swap1\n      pop\n        /* \"#utility.yul\":3497:3503   */\n      dup3\n        /* \"#utility.yul\":3490:3495   */\n      dup2\n        /* \"#utility.yul\":3483:3504   */\n      mstore\n        /* \"#utility.yul\":3535:3539   */\n      0x20\n        /* \"#utility.yul\":3528:3533   */\n      dup2\n        /* \"#utility.yul\":3524:3540   */\n      add\n        /* \"#utility.yul\":3573:3576   */\n      dup5\n        /* \"#utility.yul\":3564:3570   */\n      dup5\n        /* \"#utility.yul\":3559:3562   */\n      dup5\n        /* \"#utility.yul\":3555:3571   */\n      add\n        /* \"#utility.yul\":3552:3577   */\n      gt\n        /* \"#utility.yul\":3549:3661   */\n      iszero\n      tag_142\n      jumpi\n        /* \"#utility.yul\":3580:3659   */\n      tag_143\n      tag_72\n      jump\t// in\n    tag_143:\n        /* \"#utility.yul\":3549:3661   */\n    tag_142:\n        /* \"#utility.yul\":3670:3724   */\n      tag_144\n        /* \"#utility.yul\":3717:3723   */\n      dup5\n        /* \"#utility.yul\":3712:3715   */\n      dup3\n        /* \"#utility.yul\":3707:3710   */\n      dup6\n        /* \"#utility.yul\":3670:3724   */\n      tag_77\n      jump\t// in\n    tag_144:\n        /* \"#utility.yul\":3389:3730   */\n      pop\n        /* \"#utility.yul\":3305:3730   */\n      swap4\n      swap3\n      pop\n      pop\n      pop\n      jump\t// out\n        /* \"#utility.yul\":3750:4090   */\n    tag_79:\n        /* \"#utility.yul\":3806:3811   */\n      0x00\n        /* \"#utility.yul\":3855:3858   */\n      dup3\n        /* \"#utility.yul\":3848:3852   */\n      0x1f\n        /* \"#utility.yul\":3840:3846   */\n      dup4\n        /* \"#utility.yul\":3836:3853   */\n      add\n        /* \"#utility.yul\":3832:3859   */\n      slt\n        /* \"#utility.yul\":3822:3944   */\n      tag_146\n      jumpi\n        /* \"#utility.yul\":3863:3942   */\n      tag_147\n      tag_71\n      jump\t// in\n    tag_147:\n        /* \"#utility.yul\":3822:3944   */\n    tag_146:\n        /* \"#utility.yul\":3980:3986   */\n      dup2\n        /* \"#utility.yul\":3967:3987   */\n      calldataload\n        /* \"#utility.yul\":4005:4084   */\n      tag_148\n        /* \"#utility.yul\":4080:4083   */\n      dup5\n        /* \"#utility.yul\":4072:4078   */\n      dup3\n        /* \"#utility.yul\":4065:4069   */\n      0x20\n        /* \"#utility.yul\":4057:4063   */\n      dup7\n        /* \"#utility.yul\":4053:4070   */\n      add\n        /* \"#utility.yul\":4005:4084   */\n      tag_78\n      jump\t// in\n    tag_148:\n        /* \"#utility.yul\":3996:4084   */\n      swap2\n      pop\n        /* \"#utility.yul\":3812:4090   */\n      pop\n        /* \"#utility.yul\":3750:4090   */\n      swap3\n      swap2\n      pop\n      pop\n      jump\t// out\n        /* \"#utility.yul\":4096:4216   */\n    tag_80:\n        /* \"#utility.yul\":4168:4191   */\n      tag_150\n        /* \"#utility.yul\":4185:4190   */\n      dup2\n        /* \"#utility.yul\":4168:4191   */\n      tag_66\n      jump\t// in\n    tag_150:\n        /* \"#utility.yul\":4161:4166   */\n      dup2\n        /* \"#utility.yul\":4158:4192   */\n      eq\n        /* \"#utility.yul\":4148:4210   */\n      tag_151\n      jumpi\n        /* \"#utility.yul\":4206:4207   */\n      0x00\n        /* \"#utility.yul\":4203:4204   */\n      dup1\n        /* \"#utility.yul\":4196:4208   */\n      revert\n        /* \"#utility.yul\":4148:4210   */\n    tag_151:\n        /* \"#utility.yul\":4096:4216   */\n      pop\n      jump\t// out\n        /* \"#utility.yul\":4222:4359   */\n    tag_81:\n        /* \"#utility.yul\":4267:4272   */\n      0x00\n        /* \"#utility.yul\":4305:4311   */\n      dup2\n        /* \"#utility.yul\":4292:4312   */\n      calldataload\n        /* \"#utility.yul\":4283:4312   */\n      swap1\n      pop\n        /* \"#utility.yul\":4321:4353   */\n      tag_153\n        /* \"#utility.yul\":4347:4352   */\n      dup2\n        /* \"#utility.yul\":4321:4353   */\n      tag_80\n      jump\t// in\n    tag_153:\n        /* \"#utility.yul\":4222:4359   */\n      swap3\n      swap2\n      pop\n      pop\n      jump\t// out\n        /* \"#utility.yul\":4365:5017   */\n    tag_20:\n        /* \"#utility.yul\":4442:4448   */\n      0x00\n        /* \"#utility.yul\":4450:4456   */\n      dup1\n        /* \"#utility.yul\":4499:4501   */\n      0x40\n        /* \"#utility.yul\":4487:4496   */\n      dup4\n        /* \"#utility.yul\":4478:4485   */\n      dup6\n        /* \"#utility.yul\":4474:4497   */\n      sub\n        /* \"#utility.yul\":4470:4502   */\n      slt\n        /* \"#utility.yul\":4467:4586   */\n      iszero\n      tag_155\n      jumpi\n        /* \"#utility.yul\":4505:4584   */\n      tag_156\n      tag_69\n      jump\t// in\n    tag_156:\n        /* \"#utility.yul\":4467:4586   */\n    tag_155:\n        /* \"#utility.yul\":4653:4654   */\n      0x00\n        /* \"#utility.yul\":4642:4651   */\n      dup4\n        /* \"#utility.yul\":4638:4655   */\n      add\n        /* \"#utility.yul\":4625:4656   */\n      calldataload\n        /* \"#utility.yul\":4683:4701   */\n      0xffffffffffffffff\n        /* \"#utility.yul\":4675:4681   */\n      dup2\n        /* \"#utility.yul\":4672:4702   */\n      gt\n        /* \"#utility.yul\":4669:4786   */\n      iszero\n      tag_157\n      jumpi\n        /* \"#utility.yul\":4705:4784   */\n      tag_158\n      tag_70\n      jump\t// in\n    tag_158:\n        /* \"#utility.yul\":4669:4786   */\n    tag_157:\n        /* \"#utility.yul\":4810:4873   */\n      tag_159\n        /* \"#utility.yul\":4865:4872   */\n      dup6\n        /* \"#utility.yul\":4856:4862   */\n      dup3\n        /* \"#utility.yul\":4845:4854   */\n      dup7\n        /* \"#utility.yul\":4841:4863   */\n      add\n        /* \"#utility.yul\":4810:4873   */\n      tag_79\n      jump\t// in\n    tag_159:\n        /* \"#utility.yul\":4800:4873   */\n      swap3\n      pop\n        /* \"#utility.yul\":4596:4883   */\n      pop\n        /* \"#utility.yul\":4922:4924   */\n      0x20\n        /* \"#utility.yul\":4948:5000   */\n      tag_160\n        /* \"#utility.yul\":4992:4999   */\n      dup6\n        /* \"#utility.yul\":4983:4989   */\n      dup3\n        /* \"#utility.yul\":4972:4981   */\n      dup7\n        /* \"#utility.yul\":4968:4990   */\n      add\n        /* \"#utility.yul\":4948:5000   */\n      tag_81\n      jump\t// in\n    tag_160:\n        /* \"#utility.yul\":4938:5000   */\n      swap2\n      pop\n        /* \"#utility.yul\":4893:5010   */\n      pop\n        /* \"#utility.yul\":4365:5017   */\n      swap3\n      pop\n      swap3\n      swap1\n      pop\n      jump\t// out\n        /* \"#utility.yul\":5023:5100   */\n    tag_82:\n        /* \"#utility.yul\":5060:5067   */\n      0x00\n        /* \"#utility.yul\":5089:5094   */\n      dup2\n        /* \"#utility.yul\":5078:5094   */\n      swap1\n      pop\n        /* \"#utility.yul\":5023:5100   */\n      swap2\n      swap1\n      pop\n      jump\t// out\n        /* \"#utility.yul\":5106:5228   */\n    tag_83:\n        /* \"#utility.yul\":5179:5203   */\n      tag_163\n        /* \"#utility.yul\":5197:5202   */\n      dup2\n        /* \"#utility.yul\":5179:5203   */\n      tag_82\n      jump\t// in\n    tag_163:\n        /* \"#utility.yul\":5172:5177   */\n      dup2\n        /* \"#utility.yul\":5169:5204   */\n      eq\n        /* \"#utility.yul\":5159:5222   */\n      tag_164\n      jumpi\n        /* \"#utility.yul\":5218:5219   */\n      0x00\n        /* \"#utility.yul\":5215:5216   */\n      dup1\n        /* \"#utility.yul\":5208:5220   */\n      revert\n        /* \"#utility.yul\":5159:5222   */\n    tag_164:\n        /* \"#utility.yul\":5106:5228   */\n      pop\n      jump\t// out\n        /* \"#utility.yul\":5234:5373   */\n    tag_84:\n        /* \"#utility.yul\":5280:5285   */\n      0x00\n        /* \"#utility.yul\":5318:5324   */\n      dup2\n        /* \"#utility.yul\":5305:5325   */\n      calldataload\n        /* \"#utility.yul\":5296:5325   */\n      swap1\n      pop\n        /* \"#utility.yul\":5334:5367   */\n      tag_166\n        /* \"#utility.yul\":5361:5366   */\n      dup2\n        /* \"#utility.yul\":5334:5367   */\n      tag_83\n      jump\t// in\n    tag_166:\n        /* \"#utility.yul\":5234:5373   */\n      swap3\n      swap2\n      pop\n      pop\n      jump\t// out\n        /* \"#utility.yul\":5379:5708   */\n    tag_24:\n        /* \"#utility.yul\":5438:5444   */\n      0x00\n        /* \"#utility.yul\":5487:5489   */\n      0x20\n        /* \"#utility.yul\":5475:5484   */\n      dup3\n        /* \"#utility.yul\":5466:5473   */\n      dup5\n        /* \"#utility.yul\":5462:5485   */\n      sub\n        /* \"#utility.yul\":5458:5490   */\n      slt\n        /* \"#utility.yul\":5455:5574   */\n      iszero\n      tag_168\n      jumpi\n        /* \"#utility.yul\":5493:5572   */\n      tag_169\n      tag_69\n      jump\t// in\n    tag_169:\n        /* \"#utility.yul\":5455:5574   */\n    tag_168:\n        /* \"#utility.yul\":5613:5614   */\n      0x00\n        /* \"#utility.yul\":5638:5691   */\n      tag_170\n        /* \"#utility.yul\":5683:5690   */\n      dup5\n        /* \"#utility.yul\":5674:5680   */\n      dup3\n        /* \"#utility.yul\":5663:5672   */\n      dup6\n        /* \"#utility.yul\":5659:5681   */\n      add\n        /* \"#utility.yul\":5638:5691   */\n      tag_84\n      jump\t// in\n    tag_170:\n        /* \"#utility.yul\":5628:5691   */\n      swap2\n      pop\n        /* \"#utility.yul\":5584:5701   */\n      pop\n        /* \"#utility.yul\":5379:5708   */\n      swap3\n      swap2\n      pop\n      pop\n      jump\t// out\n        /* \"#utility.yul\":5714:5894   */\n    tag_85:\n        /* \"#utility.yul\":5762:5839   */\n      0x4e487b7100000000000000000000000000000000000000000000000000000000\n        /* \"#utility.yul\":5759:5760   */\n      0x00\n        /* \"#utility.yul\":5752:5840   */\n      mstore\n        /* \"#utility.yul\":5859:5863   */\n      0x22\n        /* \"#utility.yul\":5856:5857   */\n      0x04\n        /* \"#utility.yul\":5849:5864   */\n      mstore\n        /* \"#utility.yul\":5883:5887   */\n      0x24\n        /* \"#utility.yul\":5880:5881   */\n      0x00\n        /* \"#utility.yul\":5873:5888   */\n      revert\n        /* \"#utility.yul\":5900:6220   */\n    tag_28:\n        /* \"#utility.yul\":5944:5950   */\n      0x00\n        /* \"#utility.yul\":5981:5982   */\n      0x02\n        /* \"#utility.yul\":5975:5979   */\n      dup3\n        /* \"#utility.yul\":5971:5983   */\n      div\n        /* \"#utility.yul\":5961:5983   */\n      swap1\n      pop\n        /* \"#utility.yul\":6028:6029   */\n      0x01\n        /* \"#utility.yul\":6022:6026   */\n      dup3\n        /* \"#utility.yul\":6018:6030   */\n      and\n        /* \"#utility.yul\":6049:6067   */\n      dup1\n        /* \"#utility.yul\":6039:6120   */\n      tag_173\n      jumpi\n        /* \"#utility.yul\":6105:6109   */\n      0x7f\n        /* \"#utility.yul\":6097:6103   */\n      dup3\n        /* \"#utility.yul\":6093:6110   */\n      and\n        /* \"#utility.yul\":6083:6110   */\n      swap2\n      pop\n        /* \"#utility.yul\":6039:6120   */\n    tag_173:\n        /* \"#utility.yul\":6167:6169   */\n      0x20\n        /* \"#utility.yul\":6159:6165   */\n      dup3\n        /* \"#utility.yul\":6156:6170   */\n      lt\n        /* \"#utility.yul\":6136:6154   */\n      dup2\n        /* \"#utility.yul\":6133:6171   */\n      sub\n        /* \"#utility.yul\":6130:6214   */\n      tag_174\n      jumpi\n        /* \"#utility.yul\":6186:6204   */\n      tag_175\n      tag_85\n      jump\t// in\n    tag_175:\n        /* \"#utility.yul\":6130:6214   */\n    tag_174:\n        /* \"#utility.yul\":5951:6220   */\n      pop\n        /* \"#utility.yul\":5900:6220   */\n      swap2\n      swap1\n      pop\n      jump\t// out\n        /* \"#utility.yul\":6226:6375   */\n    tag_86:\n        /* \"#utility.yul\":6275:6281   */\n      0x00\n        /* \"#utility.yul\":6309:6314   */\n      dup2\n        /* \"#utility.yul\":6303:6315   */\n      sload\n        /* \"#utility.yul\":6293:6315   */\n      swap1\n      pop\n        /* \"#utility.yul\":6335:6368   */\n      tag_177\n        /* \"#utility.yul\":6361:6367   */\n      dup2\n        /* \"#utility.yul\":6335:6368   */\n      tag_28\n      jump\t// in\n    tag_177:\n        /* \"#utility.yul\":6325:6368   */\n      swap1\n      pop\n        /* \"#utility.yul\":6226:6375   */\n      swap2\n      swap1\n      pop\n      jump\t// out\n        /* \"#utility.yul\":6381:6522   */\n    tag_87:\n        /* \"#utility.yul\":6430:6434   */\n      0x00\n        /* \"#utility.yul\":6453:6456   */\n      dup2\n        /* \"#utility.yul\":6445:6456   */\n      swap1\n      pop\n        /* \"#utility.yul\":6476:6479   */\n      dup2\n        /* \"#utility.yul\":6473:6474   */\n      0x00\n        /* \"#utility.yul\":6466:6480   */\n      mstore\n        /* \"#utility.yul\":6510:6514   */\n      0x20\n        /* \"#utility.yul\":6507:6508   */\n      0x00\n        /* \"#utility.yul\":6497:6515   */\n      keccak256\n        /* \"#utility.yul\":6489:6515   */\n      swap1\n      pop\n        /* \"#utility.yul\":6381:6522   */\n      swap2\n      swap1\n      pop\n      jump\t// out\n        /* \"#utility.yul\":6528:6621   */\n    tag_88:\n        /* \"#utility.yul\":6565:6571   */\n      0x00\n        /* \"#utility.yul\":6612:6614   */\n      0x20\n        /* \"#utility.yul\":6607:6609   */\n      0x1f\n        /* \"#utility.yul\":6600:6605   */\n      dup4\n        /* \"#utility.yul\":6596:6610   */\n      add\n        /* \"#utility.yul\":6592:6615   */\n      div\n        /* \"#utility.yul\":6582:6615   */\n      swap1\n      pop\n        /* \"#utility.yul\":6528:6621   */\n      swap2\n      swap1\n      pop\n      jump\t// out\n        /* \"#utility.yul\":6627:6734   */\n    tag_89:\n        /* \"#utility.yul\":6671:6679   */\n      0x00\n        /* \"#utility.yul\":6721:6726   */\n      dup3\n        /* \"#utility.yul\":6715:6719   */\n      dup3\n        /* \"#utility.yul\":6711:6727   */\n      shl\n        /* \"#utility.yul\":6690:6727   */\n      swap1\n      pop\n        /* \"#utility.yul\":6627:6734   */\n      swap3\n      swap2\n      pop\n      pop\n      jump\t// out\n        /* \"#utility.yul\":6740:7133   */\n    tag_90:\n        /* \"#utility.yul\":6809:6815   */\n      0x00\n        /* \"#utility.yul\":6859:6860   */\n      0x08\n        /* \"#utility.yul\":6847:6857   */\n      dup4\n        /* \"#utility.yul\":6843:6861   */\n      mul\n        /* \"#utility.yul\":6882:6979   */\n      tag_182\n        /* \"#utility.yul\":6912:6978   */\n      0xffffffffffffffffffffffffffffffffffffffffffffffffffffffffffffffff\n        /* \"#utility.yul\":6901:6910   */\n      dup3\n        /* \"#utility.yul\":6882:6979   */\n      tag_89\n      jump\t// in\n    tag_182:\n        /* \"#utility.yul\":7000:7039   */\n      tag_183\n        /* \"#utility.yul\":7030:7038   */\n      dup7\n        /* \"#utility.yul\":7019:7028   */\n      dup4\n        /* \"#utility.yul\":7000:7039   */\n      tag_89\n      jump\t// in\n    tag_183:\n        /* \"#utility.yul\":6988:7039   */\n      swap6\n      pop\n        /* \"#utility.yul\":7072:7076   */\n      dup1\n        /* \"#utility.yul\":7068:7077   */\n      not\n        /* \"#utility.yul\":7061:7066   */\n      dup5\n        /* \"#utility.yul\":7057:7078   */\n      and\n        /* \"#utility.yul\":7048:7078   */\n      swap4\n      pop\n        /* \"#utility.yul\":7121:7125   */\n      dup1\n        /* \"#utility.yul\":7111:7119   */\n      dup7\n        /* \"#utility.yul\":7107:7126   */\n      and\n        /* \"#utility.yul\":7100:7105   */\n      dup5\n        /* \"#utility.yul\":7097:7127   */\n      or\n        /* \"#utility.yul\":7087:7127   */\n      swap3\n      pop\n        /* \"#utility.yul\":6816:7133   */\n      pop\n      pop\n        /* \"#utility.yul\":6740:7133   */\n      swap4\n      swap3\n      pop\n      pop\n      pop\n      jump\t// out\n        /* \"#utility.yul\":7139:7199   */\n    tag_91:\n        /* \"#utility.yul\":7167:7170   */\n      0x00\n        /* \"#utility.yul\":7188:7193   */\n      dup2\n        /* \"#utility.yul\":7181:7193   */\n      swap1\n      pop\n        /* \"#utility.yul\":7139:7199   */\n      swap2\n      swap1\n      pop\n      jump\t// out\n        /* \"#utility.yul\":7205:7347   */\n    tag_92:\n        /* \"#utility.yul\":7255:7264   */\n      0x00\n        /* \"#utility.yul\":7288:7341   */\n      tag_186\n        /* \"#utility.yul\":7306:7340   */\n      tag_187\n        /* \"#utility.yul\":7315:7339   */\n      tag_188\n        /* \"#utility.yul\":7333:7338   */\n      dup5\n        /* \"#utility.yul\":7315:7339   */\n      tag_82\n      jump\t// in\n    tag_188:\n        /* \"#utility.yul\":7306:7340   */\n      tag_91\n      jump\t// in\n    tag_187:\n        /* \"#utility.yul\":7288:7341   */\n      tag_82\n      jump\t// in\n    tag_186:\n        /* \"#utility.yul\":7275:7341   */\n      swap1\n      pop\n        /* \"#utility.yul\":7205:7347   */\n      swap2\n      swap1\n      pop\n      jump\t// out\n        /* \"#utility.yul\":7353:7428   */\n    tag_93:\n        /* \"#utility.yul\":7396:7399   */\n      0x00\n        /* \"#utility.yul\":7417:7422   */\n      dup2\n        /* \"#utility.yul\":7410:7422   */\n      swap1\n      pop\n        /* \"#utility.yul\":7353:7428   */\n      swap2\n      swap1\n      pop\n      jump\t// out\n        /* \"#utility.yul\":7434:7703   */\n    tag_94:\n        /* \"#utility.yul\":7544:7583   */\n      tag_191\n        /* \"#utility.yul\":7575:7582   */\n      dup4\n        /* \"#utility.yul\":7544:7583   */\n      tag_92\n      jump\t// in\n    tag_191:\n        /* \"#utility.yul\":7605:7696   */\n      tag_192\n        /* \"#utility.yul\":7654:7695   */\n      tag_193\n        /* \"#utility.yul\":7678:7694   */\n      dup3\n        /* \"#utility.yul\":7654:7695   */\n      tag_93\n      jump\t// in\n    tag_193:\n        /* \"#utility.yul\":7646:7652   */\n      dup5\n        /* \"#utility.yul\":7639:7643   */\n      dup5\n        /* \"#utility.yul\":7633:7644   */\n      sload\n        /* \"#utility.yul\":7605:7696   */\n      tag_90\n      jump\t// in\n    tag_192:\n        /* \"#utility.yul\":7599:7603   */\n      dup3\n        /* \"#utility.yul\":7592:7697   */\n      sstore\n        /* \"#utility.yul\":7510:7703   */\n      pop\n        /* \"#utility.yul\":7434:7703   */\n      pop\n      pop\n      pop\n      jump\t// out\n        /* \"#utility.yul\":7709:7782   */\n    tag_95:\n        /* \"#utility.yul\":7754:7757   */\n      0x00\n        /* \"#utility.yul\":7709:7782   */\n      swap1\n      jump\t// out\n        /* \"#utility.yul\":7788:7977   */\n    tag_96:\n        /* \"#utility.yul\":7865:7897   */\n      tag_196\n      tag_95\n      jump\t// in\n    tag_196:\n        /* \"#utility.yul\":7906:7971   */\n      tag_197\n        /* \"#utility.yul\":7964:7970   */\n      dup2\n        /* \"#utility.yul\":7956:7962   */\n      dup5\n        /* \"#utility.yul\":7950:7954   */\n      dup5\n        /* \"#utility.yul\":7906:7971   */\n      tag_94\n      jump\t// in\n    tag_197:\n        /* \"#utility.yul\":7841:7977   */\n      pop\n        /* \"#utility.yul\":7788:7977   */\n      pop\n      pop\n      jump\t// out\n        /* \"#utility.yul\":7983:8169   */\n    tag_97:\n        /* \"#utility.yul\":8043:8163   */\n    tag_199:\n        /* \"#utility.yul\":8060:8063   */\n      dup2\n        /* \"#utility.yul\":8053:8058   */\n      dup2\n        /* \"#utility.yul\":8050:8064   */\n      lt\n        /* \"#utility.yul\":8043:8163   */\n      iszero\n      tag_201\n      jumpi\n        /* \"#utility.yul\":8114:8153   */\n      tag_202\n        /* \"#utility.yul\":8151:8152   */\n      0x00\n        /* \"#utility.yul\":8144:8149   */\n      dup3\n        /* \"#utility.yul\":8114:8153   */\n      tag_96\n      jump\t// in\n    tag_202:\n        /* \"#utility.yul\":8087:8088   */\n      0x01\n        /* \"#utility.yul\":8080:8085   */\n      dup2\n        /* \"#utility.yul\":8076:8089   */\n      add\n        /* \"#utility.yul\":8067:8089   */\n      swap1\n      pop\n        /* \"#utility.yul\":8043:8163   */\n      jump(tag_199)\n    tag_201:\n        /* \"#utility.yul\":7983:8169   */\n      pop\n      pop\n      jump\t// out\n        /* \"#utility.yul\":8175:8718   */\n    tag_98:\n        /* \"#utility.yul\":8276:8278   */\n      0x1f\n        /* \"#utility.yul\":8271:8274   */\n      dup3\n        /* \"#utility.yul\":8268:8279   */\n      gt\n        /* \"#utility.yul\":8265:8711   */\n      iszero\n      tag_204\n      jumpi\n        /* \"#utility.yul\":8310:8348   */\n      tag_205\n        /* \"#utility.yul\":8342:8347   */\n      dup2\n        /* \"#utility.yul\":8310:8348   */\n      tag_87\n      jump\t// in\n    tag_205:\n        /* \"#utility.yul\":8394:8423   */\n      tag_206\n        /* \"#utility.yul\":8412:8422   */\n      dup5\n        /* \"#utility.yul\":8394:8423   */\n      tag_88\n      jump\t// in\n    tag_206:\n        /* \"#utility.yul\":8384:8392   */\n      dup2\n        /* \"#utility.yul\":8380:8424   */\n      add\n        /* \"#utility.yul\":8577:8579   */\n      0x20\n        /* \"#utility.yul\":8565:8575   */\n      dup6\n        /* \"#utility.yul\":8562:8580   */\n      lt\n        /* \"#utility.yul\":8559:8608   */\n      iszero\n      tag_207\n      jumpi\n        /* \"#utility.yul\":8598:8606   */\n      dup2\n        /* \"#utility.yul\":8583:8606   */\n      swap1\n      pop\n        /* \"#utility.yul\":8559:8608   */\n    tag_207:\n        /* \"#utility.yul\":8621:8701   */\n      tag_208\n        /* \"#utility.yul\":8677:8699   */\n      tag_209\n        /* \"#utility.yul\":8695:8698   */\n      dup6\n        /* \"#utility.yul\":8677:8699   */\n      tag_88\n      jump\t// in\n    tag_209:\n        /* \"#utility.yul\":8667:8675   */\n      dup4\n        /* \"#utility.yul\":8663:8700   */\n      add\n        /* \"#utility.yul\":8650:8661   */\n      dup3\n        /* \"#utility.yul\":8621:8701   */\n      tag_97\n      jump\t// in\n    tag_208:\n        /* \"#utility.yul\":8280:8711   */\n      pop\n      pop\n        /* \"#utility.yul\":8265:8711   */\n    tag_204:\n        /* \"#utility.yul\":8175:8718   */\n      pop\n      pop\n      pop\n      jump\t// out\n        /* \"#utility.yul\":8724:8841   */\n    tag_99:\n        /* \"#utility.yul\":8778:8786   */\n      0x00\n        /* \"#utility.yul\":8828:8833   */\n      dup3\n        /* \"#utility.yul\":8822:8826   */\n      dup3\n        /* \"#utility.yul\":8818:8834   */\n      shr\n        /* \"#utility.yul\":8797:8834   */\n      swap1\n      pop\n        /* \"#utility.yul\":8724:8841   */\n      swap3\n      swap2\n      pop\n      pop\n      jump\t// out\n        /* \"#utility.yul\":8847:9016   */\n    tag_100:\n        /* \"#utility.yul\":8891:8897   */\n      0x00\n        /* \"#utility.yul\":8924:8975   */\n      tag_212\n        /* \"#utility.yul\":8972:8973   */\n      0x00\n        /* \"#utility.yul\":8968:8974   */\n      not\n        /* \"#utility.yul\":8960:8965   */\n      dup5\n        /* \"#utility.yul\":8957:8958   */\n      0x08\n        /* \"#utility.yul\":8953:8966   */\n      mul\n        /* \"#utility.yul\":8924:8975   */\n      tag_99\n      jump\t// in\n    tag_212:\n        /* \"#utility.yul\":8920:8976   */\n      not\n        /* \"#utility.yul\":9005:9009   */\n      dup1\n        /* \"#utility.yul\":8999:9003   */\n      dup4\n        /* \"#utility.yul\":8995:9010   */\n      and\n        /* \"#utility.yul\":8985:9010   */\n      swap2\n      pop\n        /* \"#utility.yul\":8898:9016   */\n      pop\n        /* \"#utility.yul\":8847:9016   */\n      swap3\n      swap2\n      pop\n      pop\n      jump\t// out\n        /* \"#utility.yul\":9021:9316   */\n    tag_101:\n        /* \"#utility.yul\":9097:9101   */\n      0x00\n        /* \"#utility.yul\":9243:9272   */\n      tag_214\n        /* \"#utility.yul\":9268:9271   */\n      dup4\n        /* \"#utility.yul\":9262:9266   */\n      dup4\n        /* \"#utility.yul\":9243:9272   */\n      tag_100\n      jump\t// in\n    tag_214:\n        /* \"#utility.yul\":9235:9272   */\n      swap2\n      pop\n        /* \"#utility.yul\":9305:9308   */\n      dup3\n        /* \"#utility.yul\":9302:9303   */\n      0x02\n        /* \"#utility.yul\":9298:9309   */\n      mul\n        /* \"#utility.yul\":9292:9296   */\n      dup3\n        /* \"#utility.yul\":9289:9310   */\n      or\n        /* \"#utility.yul\":9281:9310   */\n      swap1\n      pop\n        /* \"#utility.yul\":9021:9316   */\n      swap3\n      swap2\n      pop\n      pop\n      jump\t// out\n        /* \"#utility.yul\":9321:10772   */\n    tag_46:\n        /* \"#utility.yul\":9432:9435   */\n      dup2\n        /* \"#utility.yul\":9426:9430   */\n      dup2\n        /* \"#utility.yul\":9423:9436   */\n      sub\n        /* \"#utility.yul\":9420:9446   */\n      tag_216\n      jumpi\n        /* \"#utility.yul\":9439:9444   */\n      pop\n      pop\n      jump(tag_215)\n        /* \"#utility.yul\":9420:9446   */\n    tag_216:\n        /* \"#utility.yul\":9470:9504   */\n      tag_217\n        /* \"#utility.yul\":9500:9503   */\n      dup3\n        /* \"#utility.yul\":9470:9504   */\n      tag_86\n      jump\t// in\n    tag_217:\n        /* \"#utility.yul\":9569:9587   */\n      0xffffffffffffffff\n        /* \"#utility.yul\":9561:9567   */\n      dup2\n        /* \"#utility.yul\":9558:9588   */\n      gt\n        /* \"#utility.yul\":9555:9611   */\n      iszero\n      tag_218\n      jumpi\n        /* \"#utility.yul\":9591:9609   */\n      tag_219\n      tag_73\n      jump\t// in\n    tag_219:\n        /* \"#utility.yul\":9555:9611   */\n    tag_218:\n        /* \"#utility.yul\":9635:9673   */\n      tag_220\n        /* \"#utility.yul\":9667:9671   */\n      dup3\n        /* \"#utility.yul\":9661:9672   */\n      sload\n        /* \"#utility.yul\":9635:9673   */\n      tag_28\n      jump\t// in\n    tag_220:\n        /* \"#utility.yul\":9720:9787   */\n      tag_221\n        /* \"#utility.yul\":9780:9786   */\n      dup3\n        /* \"#utility.yul\":9772:9778   */\n      dup3\n        /* \"#utility.yul\":9766:9770   */\n      dup6\n        /* \"#utility.yul\":9720:9787   */\n      tag_98\n      jump\t// in\n    tag_221:\n        /* \"#utility.yul\":9814:9815   */\n      0x00\n        /* \"#utility.yul\":9843:9845   */\n      0x1f\n        /* \"#utility.yul\":9835:9841   */\n      dup4\n        /* \"#utility.yul\":9832:9846   */\n      gt\n        /* \"#utility.yul\":9860:9861   */\n      0x01\n        /* \"#utility.yul\":9855:10527   */\n      dup2\n      eq\n      tag_223\n      jumpi\n        /* \"#utility.yul\":10571:10572   */\n      0x00\n        /* \"#utility.yul\":10588:10594   */\n      dup5\n        /* \"#utility.yul\":10585:10662   */\n      iszero\n      tag_224\n      jumpi\n        /* \"#utility.yul\":10637:10646   */\n      dup3\n        /* \"#utility.yul\":10632:10635   */\n      dup8\n        /* \"#utility.yul\":10628:10647   */\n      add\n        /* \"#utility.yul\":10622:10648   */\n      sload\n        /* \"#utility.yul\":10613:10648   */\n      swap1\n      pop\n        /* \"#utility.yul\":10585:10662   */\n    tag_224:\n        /* \"#utility.yul\":10688:10755   */\n      tag_225\n        /* \"#utility.yul\":10748:10754   */\n      dup6\n        /* \"#utility.yul\":10741:10746   */\n      dup3\n        /* \"#utility.yul\":10688:10755   */\n      tag_101\n      jump\t// in\n    tag_225:\n        /* \"#utility.yul\":10682:10686   */\n      dup7\n        /* \"#utility.yul\":10675:10756   */\n      sstore\n        /* \"#utility.yul\":10544:10766   */\n      pop\n        /* \"#utility.yul\":9825:10766   */\n      jump(tag_222)\n        /* \"#utility.yul\":9855:10527   */\n    tag_223:\n        /* \"#utility.yul\":9907:9911   */\n      0x1f\n        /* \"#utility.yul\":9903:9912   */\n      not\n        /* \"#utility.yul\":9895:9901   */\n      dup5\n        /* \"#utility.yul\":9891:9913   */\n      and\n        /* \"#utility.yul\":9933:9969   */\n      tag_226\n        /* \"#utility.yul\":9965:9968   */\n      dup8\n        /* \"#utility.yul\":9933:9969   */\n      tag_87\n      jump\t// in\n    tag_226:\n        /* \"#utility.yul\":9926:9969   */\n      swap7\n      pop\n        /* \"#utility.yul\":9996:10033   */\n      tag_227\n        /* \"#utility.yul\":10028:10032   */\n      dup7\n        /* \"#utility.yul\":9996:10033   */\n      tag_87\n      jump\t// in\n    tag_227:\n        /* \"#utility.yul\":10055:10056   */\n      0x00\n        /* \"#utility.yul\":10069:10276   */\n    tag_228:\n        /* \"#utility.yul\":10083:10090   */\n      dup3\n        /* \"#utility.yul\":10080:10081   */\n      dup2\n        /* \"#utility.yul\":10077:10091   */\n      lt\n        /* \"#utility.yul\":10069:10276   */\n      iszero\n      tag_230\n      jumpi\n        /* \"#utility.yul\":10162:10171   */\n      dup5\n        /* \"#utility.yul\":10157:10160   */\n      dup10\n        /* \"#utility.yul\":10153:10172   */\n      add\n        /* \"#utility.yul\":10147:10173   */\n      sload\n        /* \"#utility.yul\":10139:10145   */\n      dup3\n        /* \"#utility.yul\":10132:10174   */\n      sstore\n        /* \"#utility.yul\":10213:10214   */\n      0x01\n        /* \"#utility.yul\":10205:10211   */\n      dup3\n        /* \"#utility.yul\":10201:10215   */\n      add\n        /* \"#utility.yul\":10191:10215   */\n      swap2\n      pop\n        /* \"#utility.yul\":10260:10261   */\n      0x01\n        /* \"#utility.yul\":10249:10258   */\n      dup6\n        /* \"#utility.yul\":10245:10262   */\n      add\n        /* \"#utility.yul\":10232:10262   */\n      swap5\n      pop\n        /* \"#utility.yul\":10106:10110   */\n      0x20\n        /* \"#utility.yul\":10103:10104   */\n      dup2\n        /* \"#utility.yul\":10099:10111   */\n      add\n        /* \"#utility.yul\":10094:10111   */\n      swap1\n      pop\n        /* \"#utility.yul\":10069:10276   */\n      jump(tag_228)\n    tag_230:\n        /* \"#utility.yul\":10304:10310   */\n      dup7\n        /* \"#utility.yul\":10295:10302   */\n      dup4\n        /* \"#utility.yul\":10292:10311   */\n      lt\n        /* \"#utility.yul\":10289:10468   */\n      iszero\n      tag_231\n      jumpi\n        /* \"#utility.yul\":10362:10371   */\n      dup5\n        /* \"#utility.yul\":10357:10360   */\n      dup10\n        /* \"#utility.yul\":10353:10372   */\n      add\n        /* \"#utility.yul\":10347:10373   */\n      sload\n        /* \"#utility.yul\":10405:10453   */\n      tag_232\n        /* \"#utility.yul\":10447:10451   */\n      0x1f\n        /* \"#utility.yul\":10439:10445   */\n      dup10\n        /* \"#utility.yul\":10435:10452   */\n      and\n        /* \"#utility.yul\":10424:10433   */\n      dup3\n        /* \"#utility.yul\":10405:10453   */\n      tag_100\n      jump\t// in\n    tag_232:\n        /* \"#utility.yul\":10397:10403   */\n      dup4\n        /* \"#utility.yul\":10390:10454   */\n      sstore\n        /* \"#utility.yul\":10312:10468   */\n      pop\n        /* \"#utility.yul\":10289:10468   */\n    tag_231:\n        /* \"#utility.yul\":10514:10515   */\n      0x01\n        /* \"#utility.yul\":10510:10511   */\n      0x02\n        /* \"#utility.yul\":10502:10508   */\n      dup9\n        /* \"#utility.yul\":10498:10512   */\n      mul\n        /* \"#utility.yul\":10494:10516   */\n      add\n        /* \"#utility.yul\":10488:10492   */\n      dup9\n        /* \"#utility.yul\":10481:10517   */\n      sstore\n        /* \"#utility.yul\":9862:10527   */\n      pop\n      pop\n      pop\n        /* \"#utility.yul\":9825:10766   */\n    tag_222:\n      pop\n        /* \"#utility.yul\":9410:10772   */\n      pop\n      pop\n      pop\n        /* \"#utility.yul\":9321:10772   */\n      pop\n      pop\n    tag_215:\n      jump\t// out\n        /* \"#utility.yul\":10778:12173   */\n    tag_53:\n        /* \"#utility.yul\":10895:10932   */\n      tag_234\n        /* \"#utility.yul\":10928:10931   */\n      dup3\n        /* \"#utility.yul\":10895:10932   */\n      tag_61\n      jump\t// in\n    tag_234:\n        /* \"#utility.yul\":10997:11015   */\n      0xffffffffffffffff\n        /* \"#utility.yul\":10989:10995   */\n      dup2\n        /* \"#utility.yul\":10986:11016   */\n      gt\n        /* \"#utility.yul\":10983:11039   */\n      iszero\n      tag_235\n      jumpi\n        /* \"#utility.yul\":11019:11037   */\n      tag_236\n      tag_73\n      jump\t// in\n    tag_236:\n        /* \"#utility.yul\":10983:11039   */\n    tag_235:\n        /* \"#utility.yul\":11063:11101   */\n      tag_237\n        /* \"#utility.yul\":11095:11099   */\n      dup3\n        /* \"#utility.yul\":11089:11100   */\n      sload\n        /* \"#utility.yul\":11063:11101   */\n      tag_28\n      jump\t// in\n    tag_237:\n        /* \"#utility.yul\":11148:11215   */\n      tag_238\n        /* \"#utility.yul\":11208:11214   */\n      dup3\n        /* \"#utility.yul\":11200:11206   */\n      dup3\n        /* \"#utility.yul\":11194:11198   */\n      dup6\n        /* \"#utility.yul\":11148:11215   */\n      tag_98\n      jump\t// in\n    tag_238:\n        /* \"#utility.yul\":11242:11243   */\n      0x00\n        /* \"#utility.yul\":11266:11270   */\n      0x20\n        /* \"#utility.yul\":11253:11270   */\n      swap1\n      pop\n        /* \"#utility.yul\":11298:11300   */\n      0x1f\n        /* \"#utility.yul\":11290:11296   */\n      dup4\n        /* \"#utility.yul\":11287:11301   */\n      gt\n        /* \"#utility.yul\":11315:11316   */\n      0x01\n        /* \"#utility.yul\":11310:11928   */\n      dup2\n      eq\n      tag_240\n      jumpi\n        /* \"#utility.yul\":11972:11973   */\n      0x00\n        /* \"#utility.yul\":11989:11995   */\n      dup5\n        /* \"#utility.yul\":11986:12063   */\n      iszero\n      tag_241\n      jumpi\n        /* \"#utility.yul\":12038:12047   */\n      dup3\n        /* \"#utility.yul\":12033:12036   */\n      dup8\n        /* \"#utility.yul\":12029:12048   */\n      add\n        /* \"#utility.yul\":12023:12049   */\n      mload\n        /* \"#utility.yul\":12014:12049   */\n      swap1\n      pop\n        /* \"#utility.yul\":11986:12063   */\n    tag_241:\n        /* \"#utility.yul\":12089:12156   */\n      tag_242\n        /* \"#utility.yul\":12149:12155   */\n      dup6\n        /* \"#utility.yul\":12142:12147   */\n      dup3\n        /* \"#utility.yul\":12089:12156   */\n      tag_101\n      jump\t// in\n    tag_242:\n        /* \"#utility.yul\":12083:12087   */\n      dup7\n        /* \"#utility.yul\":12076:12157   */\n      sstore\n        /* \"#utility.yul\":11945:12167   */\n      pop\n        /* \"#utility.yul\":11280:12167   */\n      jump(tag_239)\n        /* \"#utility.yul\":11310:11928   */\n    tag_240:\n        /* \"#utility.yul\":11362:11366   */\n      0x1f\n        /* \"#utility.yul\":11358:11367   */\n      not\n        /* \"#utility.yul\":11350:11356   */\n      dup5\n        /* \"#utility.yul\":11346:11368   */\n      and\n        /* \"#utility.yul\":11396:11433   */\n      tag_243\n        /* \"#utility.yul\":11428:11432   */\n      dup7\n        /* \"#utility.yul\":11396:11433   */\n      tag_87\n      jump\t// in\n    tag_243:\n        /* \"#utility.yul\":11455:11456   */\n      0x00\n        /* \"#utility.yul\":11469:11677   */\n    tag_244:\n        /* \"#utility.yul\":11483:11490   */\n      dup3\n        /* \"#utility.yul\":11480:11481   */\n      dup2\n        /* \"#utility.yul\":11477:11491   */\n      lt\n        /* \"#utility.yul\":11469:11677   */\n      iszero\n      tag_246\n      jumpi\n        /* \"#utility.yul\":11562:11571   */\n      dup5\n        /* \"#utility.yul\":11557:11560   */\n      dup10\n        /* \"#utility.yul\":11553:11572   */\n      add\n        /* \"#utility.yul\":11547:11573   */\n      mload\n        /* \"#utility.yul\":11539:11545   */\n      dup3\n        /* \"#utility.yul\":11532:11574   */\n      sstore\n        /* \"#utility.yul\":11613:11614   */\n      0x01\n        /* \"#utility.yul\":11605:11611   */\n      dup3\n        /* \"#utility.yul\":11601:11615   */\n      add\n        /* \"#utility.yul\":11591:11615   */\n      swap2\n      pop\n        /* \"#utility.yul\":11660:11662   */\n      0x20\n        /* \"#utility.yul\":11649:11658   */\n      dup6\n        /* \"#utility.yul\":11645:11663   */\n      add\n        /* \"#utility.yul\":11632:11663   */\n      swap5\n      pop\n        /* \"#utility.yul\":11506:11510   */\n      0x20\n        /* \"#utility.yul\":11503:11504   */\n      dup2\n        /* \"#utility.yul\":11499:11511   */\n      add\n        /* \"#utility.yul\":11494:11511   */\n      swap1\n      pop\n        /* \"#utility.yul\":11469:11677   */\n      jump(tag_244)\n    tag_246:\n        /* \"#utility.yul\":11705:11711   */\n      dup7\n        /* \"#utility.yul\":11696:11703   */\n      dup4\n        /* \"#utility.yul\":11693:11712   */\n      lt\n        /* \"#utility.yul\":11690:11869   */\n      iszero\n      tag_247\n      jumpi\n        /* \"#utility.yul\":11763:11772   */\n      dup5\n        /* \"#utility.yul\":11758:11761   */\n      dup10\n        /* \"#utility.yul\":11754:11773   */\n      add\n        /* \"#utility.yul\":11748:11774   */\n      mload\n        /* \"#utility.yul\":11806:11854   */\n      tag_248\n        /* \"#utility.yul\":11848:11852   */\n      0x1f\n        /* \"#utility.yul\":11840:11846   */\n      dup10\n        /* \"#utility.yul\":11836:11853   */\n      and\n        /* \"#utility.yul\":11825:11834   */\n      dup3\n        /* \"#utility.yul\":11806:11854   */\n      tag_100\n      jump\t// in\n    tag_248:\n        /* \"#utility.yul\":11798:11804   */\n      dup4\n        /* \"#utility.yul\":11791:11855   */\n      sstore\n        /* \"#utility.yul\":11713:11869   */\n      pop\n        /* \"#utility.yul\":11690:11869   */\n    tag_247:\n        /* \"#utility.yul\":11915:11916   */\n      0x01\n        /* \"#utility.yul\":11911:11912   */\n      0x02\n        /* \"#utility.yul\":11903:11909   */\n      dup9\n        /* \"#utility.yul\":11899:11913   */\n      mul\n        /* \"#utility.yul\":11895:11917   */\n      add\n        /* \"#utility.yul\":11889:11893   */\n      dup9\n        /* \"#utility.yul\":11882:11918   */\n      sstore\n        /* \"#utility.yul\":11317:11928   */\n      pop\n      pop\n      pop\n        /* \"#utility.yul\":11280:12167   */\n    tag_239:\n      pop\n        /* \"#utility.yul\":10870:12173   */\n      pop\n      pop\n      pop\n        /* \"#utility.yul\":10778:12173   */\n      pop\n      pop\n      jump\t// out\n\n    auxdata: 0xa2646970667358221220346717f31af84c8290ee83711dece5b428db29aa407ac023023c1b9e447faec964736f6c63430008130033\n}\n",
				"bytecode": {
					"linkReferences": {},
					"object": "608060405260405180604001604052806040518060400160405280600781526020017f476572616666650000000000000000000000000000000000000000000000000081525081526020016019815250600080820151816000019081620000679190620003e4565b5060208201518160010155505060405180604001604052806040518060400160405280600481526020017f4c696f6e000000000000000000000000000000000000000000000000000000008152508152602001601681525060026000820151816000019081620000d89190620003e4565b5060208201518160010155505060405180604001604052806040518060400160405280600481526020017f4b726f74000000000000000000000000000000000000000000000000000000008152508152602001600281525060046000820151816000019081620001499190620003e4565b506020820151816001015550503480156200016357600080fd5b50620004cb565b600081519050919050565b7f4e487b7100000000000000000000000000000000000000000000000000000000600052604160045260246000fd5b7f4e487b7100000000000000000000000000000000000000000000000000000000600052602260045260246000fd5b60006002820490506001821680620001ec57607f821691505b602082108103620002025762000201620001a4565b5b50919050565b60008190508160005260206000209050919050565b60006020601f8301049050919050565b600082821b905092915050565b6000600883026200026c7fffffffffffffffffffffffffffffffffffffffffffffffffffffffffffffffff826200022d565b6200027886836200022d565b95508019841693508086168417925050509392505050565b6000819050919050565b6000819050919050565b6000620002c5620002bf620002b98462000290565b6200029a565b62000290565b9050919050565b6000819050919050565b620002e183620002a4565b620002f9620002f082620002cc565b8484546200023a565b825550505050565b600090565b6200031062000301565b6200031d818484620002d6565b505050565b5b8181101562000345576200033960008262000306565b60018101905062000323565b5050565b601f82111562000394576200035e8162000208565b62000369846200021d565b8101602085101562000379578190505b6200039162000388856200021d565b83018262000322565b50505b505050565b600082821c905092915050565b6000620003b96000198460080262000399565b1980831691505092915050565b6000620003d48383620003a6565b9150826002028217905092915050565b620003ef826200016a565b67ffffffffffffffff8111156200040b576200040a62000175565b5b620004178254620001d3565b6200042482828562000349565b600060209050601f8311600181146200045c576000841562000447578287015190505b620004538582620003c6565b865550620004c3565b601f1984166200046c8662000208565b60005b8281101562000496578489015182556001820191506020850194506020810190506200046f565b86831015620004b65784890151620004b2601f891682620003a6565b8355505b6001600288020188555050505b505050505050565b610bff80620004db6000396000f3fe608060405234801561001057600080fd5b50600436106100575760003560e01c80632dbdcb131461005c5780639fcd513f1461007b578063c5da71a81461009a578063e96116b5146100b9578063f9134682146100d5575b600080fd5b610064610106565b604051610072929190610589565b60405180910390f35b6100836101a0565b604051610091929190610589565b60405180910390f35b6100a261023a565b6040516100b0929190610589565b60405180910390f35b6100d360048036038101906100ce919061072e565b6102d4565b005b6100ef60048036038101906100ea91906107c0565b610424565b6040516100fd929190610589565b60405180910390f35b60008060000180546101179061081c565b80601f01602080910402602001604051908101604052809291908181526020018280546101439061081c565b80156101905780601f1061016557610100808354040283529160200191610190565b820191906000526020600020905b81548152906001019060200180831161017357829003601f168201915b5050505050908060010154905082565b60028060000180546101b19061081c565b80601f01602080910402602001604051908101604052809291908181526020018280546101dd9061081c565b801561022a5780601f106101ff5761010080835404028352916020019161022a565b820191906000526020600020905b81548152906001019060200180831161020d57829003601f168201915b5050505050908060010154905082565b600480600001805461024b9061081c565b80601f01602080910402602001604051908101604052809291908181526020018280546102779061081c565b80156102c45780601f10610299576101008083540402835291602001916102c4565b820191906000526020600020905b8154815290600101906020018083116102a757829003601f168201915b5050505050908060010154905082565b600660009080600181540180825580915050600190039060005260206000209060020201600090919091909150600082018160000190816103159190610a0f565b50600182015481600101555050600660029080600181540180825580915050600190039060005260206000209060020201600090919091909150600082018160000190816103639190610a0f565b50600182015481600101555050600660049080600181540180825580915050600190039060005260206000209060020201600090919091909150600082018160000190816103b19190610a0f565b506001820154816001015550506006604051806040016040528084815260200183815250908060018154018082558091505060019003906000526020600020906002020160009091909190915060008201518160000190816104139190610af7565b506020820151816001015550505050565b6006818154811061043457600080fd5b90600052602060002090600202016000915090508060000180546104579061081c565b80601f01602080910402602001604051908101604052809291908181526020018280546104839061081c565b80156104d05780601f106104a5576101008083540402835291602001916104d0565b820191906000526020600020905b8154815290600101906020018083116104b357829003601f168201915b5050505050908060010154905082565b600081519050919050565b600082825260208201905092915050565b60005b8381101561051a5780820151818401526020810190506104ff565b60008484015250505050565b6000601f19601f8301169050919050565b6000610542826104e0565b61054c81856104eb565b935061055c8185602086016104fc565b61056581610526565b840191505092915050565b6000819050919050565b61058381610570565b82525050565b600060408201905081810360008301526105a38185610537565b90506105b2602083018461057a565b9392505050565b6000604051905090565b600080fd5b600080fd5b600080fd5b600080fd5b7f4e487b7100000000000000000000000000000000000000000000000000000000600052604160045260246000fd5b61060f82610526565b810181811067ffffffffffffffff8211171561062e5761062d6105d7565b5b80604052505050565b60006106416105b9565b905061064d8282610606565b919050565b600067ffffffffffffffff82111561066d5761066c6105d7565b5b61067682610526565b9050602081019050919050565b82818337600083830152505050565b60006106a56106a084610652565b610637565b9050828152602081018484840111156106c1576106c06105d2565b5b6106cc848285610683565b509392505050565b600082601f8301126106e9576106e86105cd565b5b81356106f9848260208601610692565b91505092915050565b61070b81610570565b811461071657600080fd5b50565b60008135905061072881610702565b92915050565b60008060408385031215610745576107446105c3565b5b600083013567ffffffffffffffff811115610763576107626105c8565b5b61076f858286016106d4565b925050602061078085828601610719565b9150509250929050565b6000819050919050565b61079d8161078a565b81146107a857600080fd5b50565b6000813590506107ba81610794565b92915050565b6000602082840312156107d6576107d56105c3565b5b60006107e4848285016107ab565b91505092915050565b7f4e487b7100000000000000000000000000000000000000000000000000000000600052602260045260246000fd5b6000600282049050600182168061083457607f821691505b602082108103610847576108466107ed565b5b50919050565b60008154905061085c8161081c565b9050919050565b60008190508160005260206000209050919050565b60006020601f8301049050919050565b600082821b905092915050565b6000600883026108c57fffffffffffffffffffffffffffffffffffffffffffffffffffffffffffffffff82610888565b6108cf8683610888565b95508019841693508086168417925050509392505050565b6000819050919050565b600061090c6109076109028461078a565b6108e7565b61078a565b9050919050565b6000819050919050565b610926836108f1565b61093a61093282610913565b848454610895565b825550505050565b600090565b61094f610942565b61095a81848461091d565b505050565b5b8181101561097e57610973600082610947565b600181019050610960565b5050565b601f8211156109c35761099481610863565b61099d84610878565b810160208510156109ac578190505b6109c06109b885610878565b83018261095f565b50505b505050565b600082821c905092915050565b60006109e6600019846008026109c8565b1980831691505092915050565b60006109ff83836109d5565b9150826002028217905092915050565b818103610a1d575050610af5565b610a268261084d565b67ffffffffffffffff811115610a3f57610a3e6105d7565b5b610a49825461081c565b610a54828285610982565b6000601f831160018114610a835760008415610a71578287015490505b610a7b85826109f3565b865550610aee565b601f198416610a9187610863565b9650610a9c86610863565b60005b82811015610ac457848901548255600182019150600185019450602081019050610a9f565b86831015610ae15784890154610add601f8916826109d5565b8355505b6001600288020188555050505b5050505050505b565b610b00826104e0565b67ffffffffffffffff811115610b1957610b186105d7565b5b610b23825461081c565b610b2e828285610982565b600060209050601f831160018114610b615760008415610b4f578287015190505b610b5985826109f3565b865550610bc1565b601f198416610b6f86610863565b60005b82811015610b9757848901518255600182019150602085019450602081019050610b72565b86831015610bb45784890151610bb0601f8916826109d5565b8355505b6001600288020188555050505b50505050505056fea2646970667358221220346717f31af84c8290ee83711dece5b428db29aa407ac023023c1b9e447faec964736f6c63430008130033",
					"opcodes": "PUSH1 0x80 PUSH1 0x40 MSTORE PUSH1 0x40 MLOAD DUP1 PUSH1 0x40 ADD PUSH1 0x40 MSTORE DUP1 PUSH1 0x40 MLOAD DUP1 PUSH1 0x40 ADD PUSH1 0x40 MSTORE DUP1 PUSH1 0x7 DUP2 MSTORE PUSH1 0x20 ADD PUSH32 0x4765726166666500000000000000000000000000000000000000000000000000 DUP2 MSTORE POP DUP2 MSTORE PUSH1 0x20 ADD PUSH1 0x19 DUP2 MSTORE POP PUSH1 0x0 DUP1 DUP3 ADD MLOAD DUP2 PUSH1 0x0 ADD SWAP1 DUP2 PUSH3 0x67 SWAP2 SWAP1 PUSH3 0x3E4 JUMP JUMPDEST POP PUSH1 0x20 DUP3 ADD MLOAD DUP2 PUSH1 0x1 ADD SSTORE POP POP PUSH1 0x40 MLOAD DUP1 PUSH1 0x40 ADD PUSH1 0x40 MSTORE DUP1 PUSH1 0x40 MLOAD DUP1 PUSH1 0x40 ADD PUSH1 0x40 MSTORE DUP1 PUSH1 0x4 DUP2 MSTORE PUSH1 0x20 ADD PUSH32 0x4C696F6E00000000000000000000000000000000000000000000000000000000 DUP2 MSTORE POP DUP2 MSTORE PUSH1 0x20 ADD PUSH1 0x16 DUP2 MSTORE POP PUSH1 0x2 PUSH1 0x0 DUP3 ADD MLOAD DUP2 PUSH1 0x0 ADD SWAP1 DUP2 PUSH3 0xD8 SWAP2 SWAP1 PUSH3 0x3E4 JUMP JUMPDEST POP PUSH1 0x20 DUP3 ADD MLOAD DUP2 PUSH1 0x1 ADD SSTORE POP POP PUSH1 0x40 MLOAD DUP1 PUSH1 0x40 ADD PUSH1 0x40 MSTORE DUP1 PUSH1 0x40 MLOAD DUP1 PUSH1 0x40 ADD PUSH1 0x40 MSTORE DUP1 PUSH1 0x4 DUP2 MSTORE PUSH1 0x20 ADD PUSH32 0x4B726F7400000000000000000000000000000000000000000000000000000000 DUP2 MSTORE POP DUP2 MSTORE PUSH1 0x20 ADD PUSH1 0x2 DUP2 MSTORE POP PUSH1 0x4 PUSH1 0x0 DUP3 ADD MLOAD DUP2 PUSH1 0x0 ADD SWAP1 DUP2 PUSH3 0x149 SWAP2 SWAP1 PUSH3 0x3E4 JUMP JUMPDEST POP PUSH1 0x20 DUP3 ADD MLOAD DUP2 PUSH1 0x1 ADD SSTORE POP POP CALLVALUE DUP1 ISZERO PUSH3 0x163 JUMPI PUSH1 0x0 DUP1 REVERT JUMPDEST POP PUSH3 0x4CB JUMP JUMPDEST PUSH1 0x0 DUP2 MLOAD SWAP1 POP SWAP2 SWAP1 POP JUMP JUMPDEST PUSH32 0x4E487B7100000000000000000000000000000000000000000000000000000000 PUSH1 0x0 MSTORE PUSH1 0x41 PUSH1 0x4 MSTORE PUSH1 0x24 PUSH1 0x0 REVERT JUMPDEST PUSH32 0x4E487B7100000000000000000000000000000000000000000000000000000000 PUSH1 0x0 MSTORE PUSH1 0x22 PUSH1 0x4 MSTORE PUSH1 0x24 PUSH1 0x0 REVERT JUMPDEST PUSH1 0x0 PUSH1 0x2 DUP3 DIV SWAP1 POP PUSH1 0x1 DUP3 AND DUP1 PUSH3 0x1EC JUMPI PUSH1 0x7F DUP3 AND SWAP2 POP JUMPDEST PUSH1 0x20 DUP3 LT DUP2 SUB PUSH3 0x202 JUMPI PUSH3 0x201 PUSH3 0x1A4 JUMP JUMPDEST JUMPDEST POP SWAP2 SWAP1 POP JUMP JUMPDEST PUSH1 0x0 DUP2 SWAP1 POP DUP2 PUSH1 0x0 MSTORE PUSH1 0x20 PUSH1 0x0 KECCAK256 SWAP1 POP SWAP2 SWAP1 POP JUMP JUMPDEST PUSH1 0x0 PUSH1 0x20 PUSH1 0x1F DUP4 ADD DIV SWAP1 POP SWAP2 SWAP1 POP JUMP JUMPDEST PUSH1 0x0 DUP3 DUP3 SHL SWAP1 POP SWAP3 SWAP2 POP POP JUMP JUMPDEST PUSH1 0x0 PUSH1 0x8 DUP4 MUL PUSH3 0x26C PUSH32 0xFFFFFFFFFFFFFFFFFFFFFFFFFFFFFFFFFFFFFFFFFFFFFFFFFFFFFFFFFFFFFFFF DUP3 PUSH3 0x22D JUMP JUMPDEST PUSH3 0x278 DUP7 DUP4 PUSH3 0x22D JUMP JUMPDEST SWAP6 POP DUP1 NOT DUP5 AND SWAP4 POP DUP1 DUP7 AND DUP5 OR SWAP3 POP POP POP SWAP4 SWAP3 POP POP POP JUMP JUMPDEST PUSH1 0x0 DUP2 SWAP1 POP SWAP2 SWAP1 POP JUMP JUMPDEST PUSH1 0x0 DUP2 SWAP1 POP SWAP2 SWAP1 POP JUMP JUMPDEST PUSH1 0x0 PUSH3 0x2C5 PUSH3 0x2BF PUSH3 0x2B9 DUP5 PUSH3 0x290 JUMP JUMPDEST PUSH3 0x29A JUMP JUMPDEST PUSH3 0x290 JUMP JUMPDEST SWAP1 POP SWAP2 SWAP1 POP JUMP JUMPDEST PUSH1 0x0 DUP2 SWAP1 POP SWAP2 SWAP1 POP JUMP JUMPDEST PUSH3 0x2E1 DUP4 PUSH3 0x2A4 JUMP JUMPDEST PUSH3 0x2F9 PUSH3 0x2F0 DUP3 PUSH3 0x2CC JUMP JUMPDEST DUP5 DUP5 SLOAD PUSH3 0x23A JUMP JUMPDEST DUP3 SSTORE POP POP POP POP JUMP JUMPDEST PUSH1 0x0 SWAP1 JUMP JUMPDEST PUSH3 0x310 PUSH3 0x301 JUMP JUMPDEST PUSH3 0x31D DUP2 DUP5 DUP5 PUSH3 0x2D6 JUMP JUMPDEST POP POP POP JUMP JUMPDEST JUMPDEST DUP2 DUP2 LT ISZERO PUSH3 0x345 JUMPI PUSH3 0x339 PUSH1 0x0 DUP3 PUSH3 0x306 JUMP JUMPDEST PUSH1 0x1 DUP2 ADD SWAP1 POP PUSH3 0x323 JUMP JUMPDEST POP POP JUMP JUMPDEST PUSH1 0x1F DUP3 GT ISZERO PUSH3 0x394 JUMPI PUSH3 0x35E DUP2 PUSH3 0x208 JUMP JUMPDEST PUSH3 0x369 DUP5 PUSH3 0x21D JUMP JUMPDEST DUP2 ADD PUSH1 0x20 DUP6 LT ISZERO PUSH3 0x379 JUMPI DUP2 SWAP1 POP JUMPDEST PUSH3 0x391 PUSH3 0x388 DUP6 PUSH3 0x21D JUMP JUMPDEST DUP4 ADD DUP3 PUSH3 0x322 JUMP JUMPDEST POP POP JUMPDEST POP POP POP JUMP JUMPDEST PUSH1 0x0 DUP3 DUP3 SHR SWAP1 POP SWAP3 SWAP2 POP POP JUMP JUMPDEST PUSH1 0x0 PUSH3 0x3B9 PUSH1 0x0 NOT DUP5 PUSH1 0x8 MUL PUSH3 0x399 JUMP JUMPDEST NOT DUP1 DUP4 AND SWAP2 POP POP SWAP3 SWAP2 POP POP JUMP JUMPDEST PUSH1 0x0 PUSH3 0x3D4 DUP4 DUP4 PUSH3 0x3A6 JUMP JUMPDEST SWAP2 POP DUP3 PUSH1 0x2 MUL DUP3 OR SWAP1 POP SWAP3 SWAP2 POP POP JUMP JUMPDEST PUSH3 0x3EF DUP3 PUSH3 0x16A JUMP JUMPDEST PUSH8 0xFFFFFFFFFFFFFFFF DUP2 GT ISZERO PUSH3 0x40B JUMPI PUSH3 0x40A PUSH3 0x175 JUMP JUMPDEST JUMPDEST PUSH3 0x417 DUP3 SLOAD PUSH3 0x1D3 JUMP JUMPDEST PUSH3 0x424 DUP3 DUP3 DUP6 PUSH3 0x349 JUMP JUMPDEST PUSH1 0x0 PUSH1 0x20 SWAP1 POP PUSH1 0x1F DUP4 GT PUSH1 0x1 DUP2 EQ PUSH3 0x45C JUMPI PUSH1 0x0 DUP5 ISZERO PUSH3 0x447 JUMPI DUP3 DUP8 ADD MLOAD SWAP1 POP JUMPDEST PUSH3 0x453 DUP6 DUP3 PUSH3 0x3C6 JUMP JUMPDEST DUP7 SSTORE POP PUSH3 0x4C3 JUMP JUMPDEST PUSH1 0x1F NOT DUP5 AND PUSH3 0x46C DUP7 PUSH3 0x208 JUMP JUMPDEST PUSH1 0x0 JUMPDEST DUP3 DUP2 LT ISZERO PUSH3 0x496 JUMPI DUP5 DUP10 ADD MLOAD DUP3 SSTORE PUSH1 0x1 DUP3 ADD SWAP2 POP PUSH1 0x20 DUP6 ADD SWAP5 POP PUSH1 0x20 DUP2 ADD SWAP1 POP PUSH3 0x46F JUMP JUMPDEST DUP7 DUP4 LT ISZERO PUSH3 0x4B6 JUMPI DUP5 DUP10 ADD MLOAD PUSH3 0x4B2 PUSH1 0x1F DUP10 AND DUP3 PUSH3 0x3A6 JUMP JUMPDEST DUP4 SSTORE POP JUMPDEST PUSH1 0x1 PUSH1 0x2 DUP9 MUL ADD DUP9 SSTORE POP POP POP JUMPDEST POP POP POP POP POP POP JUMP JUMPDEST PUSH2 0xBFF DUP1 PUSH3 0x4DB PUSH1 0x0 CODECOPY PUSH1 0x0 RETURN INVALID PUSH1 0x80 PUSH1 0x40 MSTORE CALLVALUE DUP1 ISZERO PUSH2 0x10 JUMPI PUSH1 0x0 DUP1 REVERT JUMPDEST POP PUSH1 0x4 CALLDATASIZE LT PUSH2 0x57 JUMPI PUSH1 0x0 CALLDATALOAD PUSH1 0xE0 SHR DUP1 PUSH4 0x2DBDCB13 EQ PUSH2 0x5C JUMPI DUP1 PUSH4 0x9FCD513F EQ PUSH2 0x7B JUMPI DUP1 PUSH4 0xC5DA71A8 EQ PUSH2 0x9A JUMPI DUP1 PUSH4 0xE96116B5 EQ PUSH2 0xB9 JUMPI DUP1 PUSH4 0xF9134682 EQ PUSH2 0xD5 JUMPI JUMPDEST PUSH1 0x0 DUP1 REVERT JUMPDEST PUSH2 0x64 PUSH2 0x106 JUMP JUMPDEST PUSH1 0x40 MLOAD PUSH2 0x72 SWAP3 SWAP2 SWAP1 PUSH2 0x589 JUMP JUMPDEST PUSH1 0x40 MLOAD DUP1 SWAP2 SUB SWAP1 RETURN JUMPDEST PUSH2 0x83 PUSH2 0x1A0 JUMP JUMPDEST PUSH1 0x40 MLOAD PUSH2 0x91 SWAP3 SWAP2 SWAP1 PUSH2 0x589 JUMP JUMPDEST PUSH1 0x40 MLOAD DUP1 SWAP2 SUB SWAP1 RETURN JUMPDEST PUSH2 0xA2 PUSH2 0x23A JUMP JUMPDEST PUSH1 0x40 MLOAD PUSH2 0xB0 SWAP3 SWAP2 SWAP1 PUSH2 0x589 JUMP JUMPDEST PUSH1 0x40 MLOAD DUP1 SWAP2 SUB SWAP1 RETURN JUMPDEST PUSH2 0xD3 PUSH1 0x4 DUP1 CALLDATASIZE SUB DUP2 ADD SWAP1 PUSH2 0xCE SWAP2 SWAP1 PUSH2 0x72E JUMP JUMPDEST PUSH2 0x2D4 JUMP JUMPDEST STOP JUMPDEST PUSH2 0xEF PUSH1 0x4 DUP1 CALLDATASIZE SUB DUP2 ADD SWAP1 PUSH2 0xEA SWAP2 SWAP1 PUSH2 0x7C0 JUMP JUMPDEST PUSH2 0x424 JUMP JUMPDEST PUSH1 0x40 MLOAD PUSH2 0xFD SWAP3 SWAP2 SWAP1 PUSH2 0x589 JUMP JUMPDEST PUSH1 0x40 MLOAD DUP1 SWAP2 SUB SWAP1 RETURN JUMPDEST PUSH1 0x0 DUP1 PUSH1 0x0 ADD DUP1 SLOAD PUSH2 0x117 SWAP1 PUSH2 0x81C JUMP JUMPDEST DUP1 PUSH1 0x1F ADD PUSH1 0x20 DUP1 SWAP2 DIV MUL PUSH1 0x20 ADD PUSH1 0x40 MLOAD SWAP1 DUP2 ADD PUSH1 0x40 MSTORE DUP1 SWAP3 SWAP2 SWAP1 DUP2 DUP2 MSTORE PUSH1 0x20 ADD DUP3 DUP1 SLOAD PUSH2 0x143 SWAP1 PUSH2 0x81C JUMP JUMPDEST DUP1 ISZERO PUSH2 0x190 JUMPI DUP1 PUSH1 0x1F LT PUSH2 0x165 JUMPI PUSH2 0x100 DUP1 DUP4 SLOAD DIV MUL DUP4 MSTORE SWAP2 PUSH1 0x20 ADD SWAP2 PUSH2 0x190 JUMP JUMPDEST DUP3 ADD SWAP2 SWAP1 PUSH1 0x0 MSTORE PUSH1 0x20 PUSH1 0x0 KECCAK256 SWAP1 JUMPDEST DUP2 SLOAD DUP2 MSTORE SWAP1 PUSH1 0x1 ADD SWAP1 PUSH1 0x20 ADD DUP1 DUP4 GT PUSH2 0x173 JUMPI DUP3 SWAP1 SUB PUSH1 0x1F AND DUP3 ADD SWAP2 JUMPDEST POP POP POP POP POP SWAP1 DUP1 PUSH1 0x1 ADD SLOAD SWAP1 POP DUP3 JUMP JUMPDEST PUSH1 0x2 DUP1 PUSH1 0x0 ADD DUP1 SLOAD PUSH2 0x1B1 SWAP1 PUSH2 0x81C JUMP JUMPDEST DUP1 PUSH1 0x1F ADD PUSH1 0x20 DUP1 SWAP2 DIV MUL PUSH1 0x20 ADD PUSH1 0x40 MLOAD SWAP1 DUP2 ADD PUSH1 0x40 MSTORE DUP1 SWAP3 SWAP2 SWAP1 DUP2 DUP2 MSTORE PUSH1 0x20 ADD DUP3 DUP1 SLOAD PUSH2 0x1DD SWAP1 PUSH2 0x81C JUMP JUMPDEST DUP1 ISZERO PUSH2 0x22A JUMPI DUP1 PUSH1 0x1F LT PUSH2 0x1FF JUMPI PUSH2 0x100 DUP1 DUP4 SLOAD DIV MUL DUP4 MSTORE SWAP2 PUSH1 0x20 ADD SWAP2 PUSH2 0x22A JUMP JUMPDEST DUP3 ADD SWAP2 SWAP1 PUSH1 0x0 MSTORE PUSH1 0x20 PUSH1 0x0 KECCAK256 SWAP1 JUMPDEST DUP2 SLOAD DUP2 MSTORE SWAP1 PUSH1 0x1 ADD SWAP1 PUSH1 0x20 ADD DUP1 DUP4 GT PUSH2 0x20D JUMPI DUP3 SWAP1 SUB PUSH1 0x1F AND DUP3 ADD SWAP2 JUMPDEST POP POP POP POP POP SWAP1 DUP1 PUSH1 0x1 ADD SLOAD SWAP1 POP DUP3 JUMP JUMPDEST PUSH1 0x4 DUP1 PUSH1 0x0 ADD DUP1 SLOAD PUSH2 0x24B SWAP1 PUSH2 0x81C JUMP JUMPDEST DUP1 PUSH1 0x1F ADD PUSH1 0x20 DUP1 SWAP2 DIV MUL PUSH1 0x20 ADD PUSH1 0x40 MLOAD SWAP1 DUP2 ADD PUSH1 0x40 MSTORE DUP1 SWAP3 SWAP2 SWAP1 DUP2 DUP2 MSTORE PUSH1 0x20 ADD DUP3 DUP1 SLOAD PUSH2 0x277 SWAP1 PUSH2 0x81C JUMP JUMPDEST DUP1 ISZERO PUSH2 0x2C4 JUMPI DUP1 PUSH1 0x1F LT PUSH2 0x299 JUMPI PUSH2 0x100 DUP1 DUP4 SLOAD DIV MUL DUP4 MSTORE SWAP2 PUSH1 0x20 ADD SWAP2 PUSH2 0x2C4 JUMP JUMPDEST DUP3 ADD SWAP2 SWAP1 PUSH1 0x0 MSTORE PUSH1 0x20 PUSH1 0x0 KECCAK256 SWAP1 JUMPDEST DUP2 SLOAD DUP2 MSTORE SWAP1 PUSH1 0x1 ADD SWAP1 PUSH1 0x20 ADD DUP1 DUP4 GT PUSH2 0x2A7 JUMPI DUP3 SWAP1 SUB PUSH1 0x1F AND DUP3 ADD SWAP2 JUMPDEST POP POP POP POP POP SWAP1 DUP1 PUSH1 0x1 ADD SLOAD SWAP1 POP DUP3 JUMP JUMPDEST PUSH1 0x6 PUSH1 0x0 SWAP1 DUP1 PUSH1 0x1 DUP2 SLOAD ADD DUP1 DUP3 SSTORE DUP1 SWAP2 POP POP PUSH1 0x1 SWAP1 SUB SWAP1 PUSH1 0x0 MSTORE PUSH1 0x20 PUSH1 0x0 KECCAK256 SWAP1 PUSH1 0x2 MUL ADD PUSH1 0x0 SWAP1 SWAP2 SWAP1 SWAP2 SWAP1 SWAP2 POP PUSH1 0x0 DUP3 ADD DUP2 PUSH1 0x0 ADD SWAP1 DUP2 PUSH2 0x315 SWAP2 SWAP1 PUSH2 0xA0F JUMP JUMPDEST POP PUSH1 0x1 DUP3 ADD SLOAD DUP2 PUSH1 0x1 ADD SSTORE POP POP PUSH1 0x6 PUSH1 0x2 SWAP1 DUP1 PUSH1 0x1 DUP2 SLOAD ADD DUP1 DUP3 SSTORE DUP1 SWAP2 POP POP PUSH1 0x1 SWAP1 SUB SWAP1 PUSH1 0x0 MSTORE PUSH1 0x20 PUSH1 0x0 KECCAK256 SWAP1 PUSH1 0x2 MUL ADD PUSH1 0x0 SWAP1 SWAP2 SWAP1 SWAP2 SWAP1 SWAP2 POP PUSH1 0x0 DUP3 ADD DUP2 PUSH1 0x0 ADD SWAP1 DUP2 PUSH2 0x363 SWAP2 SWAP1 PUSH2 0xA0F JUMP JUMPDEST POP PUSH1 0x1 DUP3 ADD SLOAD DUP2 PUSH1 0x1 ADD SSTORE POP POP PUSH1 0x6 PUSH1 0x4 SWAP1 DUP1 PUSH1 0x1 DUP2 SLOAD ADD DUP1 DUP3 SSTORE DUP1 SWAP2 POP POP PUSH1 0x1 SWAP1 SUB SWAP1 PUSH1 0x0 MSTORE PUSH1 0x20 PUSH1 0x0 KECCAK256 SWAP1 PUSH1 0x2 MUL ADD PUSH1 0x0 SWAP1 SWAP2 SWAP1 SWAP2 SWAP1 SWAP2 POP PUSH1 0x0 DUP3 ADD DUP2 PUSH1 0x0 ADD SWAP1 DUP2 PUSH2 0x3B1 SWAP2 SWAP1 PUSH2 0xA0F JUMP JUMPDEST POP PUSH1 0x1 DUP3 ADD SLOAD DUP2 PUSH1 0x1 ADD SSTORE POP POP PUSH1 0x6 PUSH1 0x40 MLOAD DUP1 PUSH1 0x40 ADD PUSH1 0x40 MSTORE DUP1 DUP5 DUP2 MSTORE PUSH1 0x20 ADD DUP4 DUP2 MSTORE POP SWAP1 DUP1 PUSH1 0x1 DUP2 SLOAD ADD DUP1 DUP3 SSTORE DUP1 SWAP2 POP POP PUSH1 0x1 SWAP1 SUB SWAP1 PUSH1 0x0 MSTORE PUSH1 0x20 PUSH1 0x0 KECCAK256 SWAP1 PUSH1 0x2 MUL ADD PUSH1 0x0 SWAP1 SWAP2 SWAP1 SWAP2 SWAP1 SWAP2 POP PUSH1 0x0 DUP3 ADD MLOAD DUP2 PUSH1 0x0 ADD SWAP1 DUP2 PUSH2 0x413 SWAP2 SWAP1 PUSH2 0xAF7 JUMP JUMPDEST POP PUSH1 0x20 DUP3 ADD MLOAD DUP2 PUSH1 0x1 ADD SSTORE POP POP POP POP JUMP JUMPDEST PUSH1 0x6 DUP2 DUP2 SLOAD DUP2 LT PUSH2 0x434 JUMPI PUSH1 0x0 DUP1 REVERT JUMPDEST SWAP1 PUSH1 0x0 MSTORE PUSH1 0x20 PUSH1 0x0 KECCAK256 SWAP1 PUSH1 0x2 MUL ADD PUSH1 0x0 SWAP2 POP SWAP1 POP DUP1 PUSH1 0x0 ADD DUP1 SLOAD PUSH2 0x457 SWAP1 PUSH2 0x81C JUMP JUMPDEST DUP1 PUSH1 0x1F ADD PUSH1 0x20 DUP1 SWAP2 DIV MUL PUSH1 0x20 ADD PUSH1 0x40 MLOAD SWAP1 DUP2 ADD PUSH1 0x40 MSTORE DUP1 SWAP3 SWAP2 SWAP1 DUP2 DUP2 MSTORE PUSH1 0x20 ADD DUP3 DUP1 SLOAD PUSH2 0x483 SWAP1 PUSH2 0x81C JUMP JUMPDEST DUP1 ISZERO PUSH2 0x4D0 JUMPI DUP1 PUSH1 0x1F LT PUSH2 0x4A5 JUMPI PUSH2 0x100 DUP1 DUP4 SLOAD DIV MUL DUP4 MSTORE SWAP2 PUSH1 0x20 ADD SWAP2 PUSH2 0x4D0 JUMP JUMPDEST DUP3 ADD SWAP2 SWAP1 PUSH1 0x0 MSTORE PUSH1 0x20 PUSH1 0x0 KECCAK256 SWAP1 JUMPDEST DUP2 SLOAD DUP2 MSTORE SWAP1 PUSH1 0x1 ADD SWAP1 PUSH1 0x20 ADD DUP1 DUP4 GT PUSH2 0x4B3 JUMPI DUP3 SWAP1 SUB PUSH1 0x1F AND DUP3 ADD SWAP2 JUMPDEST POP POP POP POP POP SWAP1 DUP1 PUSH1 0x1 ADD SLOAD SWAP1 POP DUP3 JUMP JUMPDEST PUSH1 0x0 DUP2 MLOAD SWAP1 POP SWAP2 SWAP1 POP JUMP JUMPDEST PUSH1 0x0 DUP3 DUP3 MSTORE PUSH1 0x20 DUP3 ADD SWAP1 POP SWAP3 SWAP2 POP POP JUMP JUMPDEST PUSH1 0x0 JUMPDEST DUP4 DUP2 LT ISZERO PUSH2 0x51A JUMPI DUP1 DUP3 ADD MLOAD DUP2 DUP5 ADD MSTORE PUSH1 0x20 DUP2 ADD SWAP1 POP PUSH2 0x4FF JUMP JUMPDEST PUSH1 0x0 DUP5 DUP5 ADD MSTORE POP POP POP POP JUMP JUMPDEST PUSH1 0x0 PUSH1 0x1F NOT PUSH1 0x1F DUP4 ADD AND SWAP1 POP SWAP2 SWAP1 POP JUMP JUMPDEST PUSH1 0x0 PUSH2 0x542 DUP3 PUSH2 0x4E0 JUMP JUMPDEST PUSH2 0x54C DUP2 DUP6 PUSH2 0x4EB JUMP JUMPDEST SWAP4 POP PUSH2 0x55C DUP2 DUP6 PUSH1 0x20 DUP7 ADD PUSH2 0x4FC JUMP JUMPDEST PUSH2 0x565 DUP2 PUSH2 0x526 JUMP JUMPDEST DUP5 ADD SWAP2 POP POP SWAP3 SWAP2 POP POP JUMP JUMPDEST PUSH1 0x0 DUP2 SWAP1 POP SWAP2 SWAP1 POP JUMP JUMPDEST PUSH2 0x583 DUP2 PUSH2 0x570 JUMP JUMPDEST DUP3 MSTORE POP POP JUMP JUMPDEST PUSH1 0x0 PUSH1 0x40 DUP3 ADD SWAP1 POP DUP2 DUP2 SUB PUSH1 0x0 DUP4 ADD MSTORE PUSH2 0x5A3 DUP2 DUP6 PUSH2 0x537 JUMP JUMPDEST SWAP1 POP PUSH2 0x5B2 PUSH1 0x20 DUP4 ADD DUP5 PUSH2 0x57A JUMP JUMPDEST SWAP4 SWAP3 POP POP POP JUMP JUMPDEST PUSH1 0x0 PUSH1 0x40 MLOAD SWAP1 POP SWAP1 JUMP JUMPDEST PUSH1 0x0 DUP1 REVERT JUMPDEST PUSH1 0x0 DUP1 REVERT JUMPDEST PUSH1 0x0 DUP1 REVERT JUMPDEST PUSH1 0x0 DUP1 REVERT JUMPDEST PUSH32 0x4E487B7100000000000000000000000000000000000000000000000000000000 PUSH1 0x0 MSTORE PUSH1 0x41 PUSH1 0x4 MSTORE PUSH1 0x24 PUSH1 0x0 REVERT JUMPDEST PUSH2 0x60F DUP3 PUSH2 0x526 JUMP JUMPDEST DUP2 ADD DUP2 DUP2 LT PUSH8 0xFFFFFFFFFFFFFFFF DUP3 GT OR ISZERO PUSH2 0x62E JUMPI PUSH2 0x62D PUSH2 0x5D7 JUMP JUMPDEST JUMPDEST DUP1 PUSH1 0x40 MSTORE POP POP POP JUMP JUMPDEST PUSH1 0x0 PUSH2 0x641 PUSH2 0x5B9 JUMP JUMPDEST SWAP1 POP PUSH2 0x64D DUP3 DUP3 PUSH2 0x606 JUMP JUMPDEST SWAP2 SWAP1 POP JUMP JUMPDEST PUSH1 0x0 PUSH8 0xFFFFFFFFFFFFFFFF DUP3 GT ISZERO PUSH2 0x66D JUMPI PUSH2 0x66C PUSH2 0x5D7 JUMP JUMPDEST JUMPDEST PUSH2 0x676 DUP3 PUSH2 0x526 JUMP JUMPDEST SWAP1 POP PUSH1 0x20 DUP2 ADD SWAP1 POP SWAP2 SWAP1 POP JUMP JUMPDEST DUP3 DUP2 DUP4 CALLDATACOPY PUSH1 0x0 DUP4 DUP4 ADD MSTORE POP POP POP JUMP JUMPDEST PUSH1 0x0 PUSH2 0x6A5 PUSH2 0x6A0 DUP5 PUSH2 0x652 JUMP JUMPDEST PUSH2 0x637 JUMP JUMPDEST SWAP1 POP DUP3 DUP2 MSTORE PUSH1 0x20 DUP2 ADD DUP5 DUP5 DUP5 ADD GT ISZERO PUSH2 0x6C1 JUMPI PUSH2 0x6C0 PUSH2 0x5D2 JUMP JUMPDEST JUMPDEST PUSH2 0x6CC DUP5 DUP3 DUP6 PUSH2 0x683 JUMP JUMPDEST POP SWAP4 SWAP3 POP POP POP JUMP JUMPDEST PUSH1 0x0 DUP3 PUSH1 0x1F DUP4 ADD SLT PUSH2 0x6E9 JUMPI PUSH2 0x6E8 PUSH2 0x5CD JUMP JUMPDEST JUMPDEST DUP2 CALLDATALOAD PUSH2 0x6F9 DUP5 DUP3 PUSH1 0x20 DUP7 ADD PUSH2 0x692 JUMP JUMPDEST SWAP2 POP POP SWAP3 SWAP2 POP POP JUMP JUMPDEST PUSH2 0x70B DUP2 PUSH2 0x570 JUMP JUMPDEST DUP2 EQ PUSH2 0x716 JUMPI PUSH1 0x0 DUP1 REVERT JUMPDEST POP JUMP JUMPDEST PUSH1 0x0 DUP2 CALLDATALOAD SWAP1 POP PUSH2 0x728 DUP2 PUSH2 0x702 JUMP JUMPDEST SWAP3 SWAP2 POP POP JUMP JUMPDEST PUSH1 0x0 DUP1 PUSH1 0x40 DUP4 DUP6 SUB SLT ISZERO PUSH2 0x745 JUMPI PUSH2 0x744 PUSH2 0x5C3 JUMP JUMPDEST JUMPDEST PUSH1 0x0 DUP4 ADD CALLDATALOAD PUSH8 0xFFFFFFFFFFFFFFFF DUP2 GT ISZERO PUSH2 0x763 JUMPI PUSH2 0x762 PUSH2 0x5C8 JUMP JUMPDEST JUMPDEST PUSH2 0x76F DUP6 DUP3 DUP7 ADD PUSH2 0x6D4 JUMP JUMPDEST SWAP3 POP POP PUSH1 0x20 PUSH2 0x780 DUP6 DUP3 DUP7 ADD PUSH2 0x719 JUMP JUMPDEST SWAP2 POP POP SWAP3 POP SWAP3 SWAP1 POP JUMP JUMPDEST PUSH1 0x0 DUP2 SWAP1 POP SWAP2 SWAP1 POP JUMP JUMPDEST PUSH2 0x79D DUP2 PUSH2 0x78A JUMP JUMPDEST DUP2 EQ PUSH2 0x7A8 JUMPI PUSH1 0x0 DUP1 REVERT JUMPDEST POP JUMP JUMPDEST PUSH1 0x0 DUP2 CALLDATALOAD SWAP1 POP PUSH2 0x7BA DUP2 PUSH2 0x794 JUMP JUMPDEST SWAP3 SWAP2 POP POP JUMP JUMPDEST PUSH1 0x0 PUSH1 0x20 DUP3 DUP5 SUB SLT ISZERO PUSH2 0x7D6 JUMPI PUSH2 0x7D5 PUSH2 0x5C3 JUMP JUMPDEST JUMPDEST PUSH1 0x0 PUSH2 0x7E4 DUP5 DUP3 DUP6 ADD PUSH2 0x7AB JUMP JUMPDEST SWAP2 POP POP SWAP3 SWAP2 POP POP JUMP JUMPDEST PUSH32 0x4E487B7100000000000000000000000000000000000000000000000000000000 PUSH1 0x0 MSTORE PUSH1 0x22 PUSH1 0x4 MSTORE PUSH1 0x24 PUSH1 0x0 REVERT JUMPDEST PUSH1 0x0 PUSH1 0x2 DUP3 DIV SWAP1 POP PUSH1 0x1 DUP3 AND DUP1 PUSH2 0x834 JUMPI PUSH1 0x7F DUP3 AND SWAP2 POP JUMPDEST PUSH1 0x20 DUP3 LT DUP2 SUB PUSH2 0x847 JUMPI PUSH2 0x846 PUSH2 0x7ED JUMP JUMPDEST JUMPDEST POP SWAP2 SWAP1 POP JUMP JUMPDEST PUSH1 0x0 DUP2 SLOAD SWAP1 POP PUSH2 0x85C DUP2 PUSH2 0x81C JUMP JUMPDEST SWAP1 POP SWAP2 SWAP1 POP JUMP JUMPDEST PUSH1 0x0 DUP2 SWAP1 POP DUP2 PUSH1 0x0 MSTORE PUSH1 0x20 PUSH1 0x0 KECCAK256 SWAP1 POP SWAP2 SWAP1 POP JUMP JUMPDEST PUSH1 0x0 PUSH1 0x20 PUSH1 0x1F DUP4 ADD DIV SWAP1 POP SWAP2 SWAP1 POP JUMP JUMPDEST PUSH1 0x0 DUP3 DUP3 SHL SWAP1 POP SWAP3 SWAP2 POP POP JUMP JUMPDEST PUSH1 0x0 PUSH1 0x8 DUP4 MUL PUSH2 0x8C5 PUSH32 0xFFFFFFFFFFFFFFFFFFFFFFFFFFFFFFFFFFFFFFFFFFFFFFFFFFFFFFFFFFFFFFFF DUP3 PUSH2 0x888 JUMP JUMPDEST PUSH2 0x8CF DUP7 DUP4 PUSH2 0x888 JUMP JUMPDEST SWAP6 POP DUP1 NOT DUP5 AND SWAP4 POP DUP1 DUP7 AND DUP5 OR SWAP3 POP POP POP SWAP4 SWAP3 POP POP POP JUMP JUMPDEST PUSH1 0x0 DUP2 SWAP1 POP SWAP2 SWAP1 POP JUMP JUMPDEST PUSH1 0x0 PUSH2 0x90C PUSH2 0x907 PUSH2 0x902 DUP5 PUSH2 0x78A JUMP JUMPDEST PUSH2 0x8E7 JUMP JUMPDEST PUSH2 0x78A JUMP JUMPDEST SWAP1 POP SWAP2 SWAP1 POP JUMP JUMPDEST PUSH1 0x0 DUP2 SWAP1 POP SWAP2 SWAP1 POP JUMP JUMPDEST PUSH2 0x926 DUP4 PUSH2 0x8F1 JUMP JUMPDEST PUSH2 0x93A PUSH2 0x932 DUP3 PUSH2 0x913 JUMP JUMPDEST DUP5 DUP5 SLOAD PUSH2 0x895 JUMP JUMPDEST DUP3 SSTORE POP POP POP POP JUMP JUMPDEST PUSH1 0x0 SWAP1 JUMP JUMPDEST PUSH2 0x94F PUSH2 0x942 JUMP JUMPDEST PUSH2 0x95A DUP2 DUP5 DUP5 PUSH2 0x91D JUMP JUMPDEST POP POP POP JUMP JUMPDEST JUMPDEST DUP2 DUP2 LT ISZERO PUSH2 0x97E JUMPI PUSH2 0x973 PUSH1 0x0 DUP3 PUSH2 0x947 JUMP JUMPDEST PUSH1 0x1 DUP2 ADD SWAP1 POP PUSH2 0x960 JUMP JUMPDEST POP POP JUMP JUMPDEST PUSH1 0x1F DUP3 GT ISZERO PUSH2 0x9C3 JUMPI PUSH2 0x994 DUP2 PUSH2 0x863 JUMP JUMPDEST PUSH2 0x99D DUP5 PUSH2 0x878 JUMP JUMPDEST DUP2 ADD PUSH1 0x20 DUP6 LT ISZERO PUSH2 0x9AC JUMPI DUP2 SWAP1 POP JUMPDEST PUSH2 0x9C0 PUSH2 0x9B8 DUP6 PUSH2 0x878 JUMP JUMPDEST DUP4 ADD DUP3 PUSH2 0x95F JUMP JUMPDEST POP POP JUMPDEST POP POP POP JUMP JUMPDEST PUSH1 0x0 DUP3 DUP3 SHR SWAP1 POP SWAP3 SWAP2 POP POP JUMP JUMPDEST PUSH1 0x0 PUSH2 0x9E6 PUSH1 0x0 NOT DUP5 PUSH1 0x8 MUL PUSH2 0x9C8 JUMP JUMPDEST NOT DUP1 DUP4 AND SWAP2 POP POP SWAP3 SWAP2 POP POP JUMP JUMPDEST PUSH1 0x0 PUSH2 0x9FF DUP4 DUP4 PUSH2 0x9D5 JUMP JUMPDEST SWAP2 POP DUP3 PUSH1 0x2 MUL DUP3 OR SWAP1 POP SWAP3 SWAP2 POP POP JUMP JUMPDEST DUP2 DUP2 SUB PUSH2 0xA1D JUMPI POP POP PUSH2 0xAF5 JUMP JUMPDEST PUSH2 0xA26 DUP3 PUSH2 0x84D JUMP JUMPDEST PUSH8 0xFFFFFFFFFFFFFFFF DUP2 GT ISZERO PUSH2 0xA3F JUMPI PUSH2 0xA3E PUSH2 0x5D7 JUMP JUMPDEST JUMPDEST PUSH2 0xA49 DUP3 SLOAD PUSH2 0x81C JUMP JUMPDEST PUSH2 0xA54 DUP3 DUP3 DUP6 PUSH2 0x982 JUMP JUMPDEST PUSH1 0x0 PUSH1 0x1F DUP4 GT PUSH1 0x1 DUP2 EQ PUSH2 0xA83 JUMPI PUSH1 0x0 DUP5 ISZERO PUSH2 0xA71 JUMPI DUP3 DUP8 ADD SLOAD SWAP1 POP JUMPDEST PUSH2 0xA7B DUP6 DUP3 PUSH2 0x9F3 JUMP JUMPDEST DUP7 SSTORE POP PUSH2 0xAEE JUMP JUMPDEST PUSH1 0x1F NOT DUP5 AND PUSH2 0xA91 DUP8 PUSH2 0x863 JUMP JUMPDEST SWAP7 POP PUSH2 0xA9C DUP7 PUSH2 0x863 JUMP JUMPDEST PUSH1 0x0 JUMPDEST DUP3 DUP2 LT ISZERO PUSH2 0xAC4 JUMPI DUP5 DUP10 ADD SLOAD DUP3 SSTORE PUSH1 0x1 DUP3 ADD SWAP2 POP PUSH1 0x1 DUP6 ADD SWAP5 POP PUSH1 0x20 DUP2 ADD SWAP1 POP PUSH2 0xA9F JUMP JUMPDEST DUP7 DUP4 LT ISZERO PUSH2 0xAE1 JUMPI DUP5 DUP10 ADD SLOAD PUSH2 0xADD PUSH1 0x1F DUP10 AND DUP3 PUSH2 0x9D5 JUMP JUMPDEST DUP4 SSTORE POP JUMPDEST PUSH1 0x1 PUSH1 0x2 DUP9 MUL ADD DUP9 SSTORE POP POP POP JUMPDEST POP POP POP POP POP POP JUMPDEST JUMP JUMPDEST PUSH2 0xB00 DUP3 PUSH2 0x4E0 JUMP JUMPDEST PUSH8 0xFFFFFFFFFFFFFFFF DUP2 GT ISZERO PUSH2 0xB19 JUMPI PUSH2 0xB18 PUSH2 0x5D7 JUMP JUMPDEST JUMPDEST PUSH2 0xB23 DUP3 SLOAD PUSH2 0x81C JUMP JUMPDEST PUSH2 0xB2E DUP3 DUP3 DUP6 PUSH2 0x982 JUMP JUMPDEST PUSH1 0x0 PUSH1 0x20 SWAP1 POP PUSH1 0x1F DUP4 GT PUSH1 0x1 DUP2 EQ PUSH2 0xB61 JUMPI PUSH1 0x0 DUP5 ISZERO PUSH2 0xB4F JUMPI DUP3 DUP8 ADD MLOAD SWAP1 POP JUMPDEST PUSH2 0xB59 DUP6 DUP3 PUSH2 0x9F3 JUMP JUMPDEST DUP7 SSTORE POP PUSH2 0xBC1 JUMP JUMPDEST PUSH1 0x1F NOT DUP5 AND PUSH2 0xB6F DUP7 PUSH2 0x863 JUMP JUMPDEST PUSH1 0x0 JUMPDEST DUP3 DUP2 LT ISZERO PUSH2 0xB97 JUMPI DUP5 DUP10 ADD MLOAD DUP3 SSTORE PUSH1 0x1 DUP3 ADD SWAP2 POP PUSH1 0x20 DUP6 ADD SWAP5 POP PUSH1 0x20 DUP2 ADD SWAP1 POP PUSH2 0xB72 JUMP JUMPDEST DUP7 DUP4 LT ISZERO PUSH2 0xBB4 JUMPI DUP5 DUP10 ADD MLOAD PUSH2 0xBB0 PUSH1 0x1F DUP10 AND DUP3 PUSH2 0x9D5 JUMP JUMPDEST DUP4 SSTORE POP JUMPDEST PUSH1 0x1 PUSH1 0x2 DUP9 MUL ADD DUP9 SSTORE POP POP POP JUMPDEST POP POP POP POP POP POP JUMP INVALID LOG2 PUSH5 0x6970667358 0x22 SLT KECCAK256 CALLVALUE PUSH8 0x17F31AF84C8290EE DUP4 PUSH18 0x1DECE5B428DB29AA407AC023023C1B9E447F 0xAE 0xC9 PUSH5 0x736F6C6343 STOP ADDMOD SGT STOP CALLER "
				},
				"gasEstimates": {
					"creation": {
						"codeDepositCost": "614200",
						"executionCost": "infinite",
						"totalCost": "infinite"
					},
					"external": {
						"addAnimal(string,int256)": "infinite",
						"animal1()": "infinite",
						"animal2()": "infinite",
						"animal3()": "infinite",
						"listOfAnimal(uint256)": "infinite"
					}
				},
				"methodIdentifiers": {
					"addAnimal(string,int256)": "e96116b5",
					"animal1()": "2dbdcb13",
					"animal2()": "9fcd513f",
					"animal3()": "c5da71a8",
					"listOfAnimal(uint256)": "f9134682"
				}
			},
			"storageLayout": {
				"storage": [
					{
						"astId": 13,
						"contract": "secondExample.sol:Zoo",
						"label": "animal1",
						"offset": 0,
						"slot": "0",
						"type": "t_struct(Animal)6_storage"
					},
					{
						"astId": 20,
						"contract": "secondExample.sol:Zoo",
						"label": "animal2",
						"offset": 0,
						"slot": "2",
						"type": "t_struct(Animal)6_storage"
					},
					{
						"astId": 27,
						"contract": "secondExample.sol:Zoo",
						"label": "animal3",
						"offset": 0,
						"slot": "4",
						"type": "t_struct(Animal)6_storage"
					},
					{
						"astId": 31,
						"contract": "secondExample.sol:Zoo",
						"label": "listOfAnimal",
						"offset": 0,
						"slot": "6",
						"type": "t_array(t_struct(Animal)6_storage)dyn_storage"
					}
				],
				"types": {
					"t_array(t_struct(Animal)6_storage)dyn_storage": {
						"base": "t_struct(Animal)6_storage",
						"encoding": "dynamic_array",
						"label": "struct Zoo.Animal[]",
						"numberOfBytes": "32"
					},
					"t_int256": {
						"encoding": "inplace",
						"label": "int256",
						"numberOfBytes": "32"
					},
					"t_string_storage": {
						"encoding": "bytes",
						"label": "string",
						"numberOfBytes": "32"
					},
					"t_struct(Animal)6_storage": {
						"encoding": "inplace",
						"label": "struct Zoo.Animal",
						"members": [
							{
								"astId": 3,
								"contract": "secondExample.sol:Zoo",
								"label": "name",
								"offset": 0,
								"slot": "0",
								"type": "t_string_storage"
							},
							{
								"astId": 5,
								"contract": "secondExample.sol:Zoo",
								"label": "age",
								"offset": 0,
								"slot": "1",
								"type": "t_int256"
							}
						],
						"numberOfBytes": "64"
					}
				}
			},
			"userdoc": {
				"kind": "user",
				"methods": {},
				"version": 1
			}
		}
	}
}